:040000050800C0ED42
:020000040800F2
:10C00000D087002025C3000853C3000827ED00088F
:10C0100057C3000859C300085BC3000886BAFAAFCB
:10C020008F9E939B089996970201000039C20008E1
:10C030005FC3000828930108C1C2000811C30008AB
:10C0400065C3000865C3000865C3000865C3000830
:10C0500065C3000865C3000865C3000865C3000820
:10C0600065C3000865C3000865C3000865C3000810
:10C0700065C3000865C3000865C3000865C3000800
:10C0800065C3000865C3000865C3000865C30008F0
:10C090008529010865C3000865C3000865C3000859
:10C0A00065C3000865C3000865C3000865C30008D0
:10C0B00065C3000865C3000865C3000865C30008C0
:10C0C00065C3000865C3000865C3000865C30008B0
:10C0D00065C3000865C300088104010865C3000842
:10C0E00065C3000865C3000865C3000800F002F8D6
:10C0F00000F05AF80AA090E8000C82448344AAF1A8
:10C100000107DA4501D100F04FF8AFF2090EBAE8A5
:10C110000F0013F0010F18BFFB1A43F0010318477B
:10C12000A0E80000C0E800000A444FF0000C10F83E
:10C13000013B13F0070408BF10F8014B1D1108BFA5
:10C1400010F8015B641E05D010F8016B641E01F845
:10C15000016BF9D113F0080F1EBF10F8014BAD1C95
:10C160000C1B09D16D1E58BF01F801CBFAD505E0B3
:10C1700014F8016B01F8016B6D1EF9D59142D6D30D
:10C18000704700000023002400250026103A28BF35
:10C1900078C1FBD8520728BF30C148BF0B60704739
:10C1A0001FB51FBD10B510BD00F001FB114603B453
:10C1B00006F0F6FC03BCFFF7F3FF08F009FB00F004
:10C1C0001BFB03B4FFF7EEFF03BC00F01FFB0000F6
:10C1D00080F309887047EFF309807047684680F361
:10C1E000098804480078C00714BF0220032080F3A8
:10C1F00014887047E89B0108DFF818C0EFF3058347
:10C200001B0618BF6047EFF31483DB0708BF6047C6
:10C2100000DF704729580108DFF818C0EFF30583E5
:10C220001B0618BF6047EFF31483DB0708BF6047A6
:10C2300000DF7047355A0108EFF30980816911F872
:10C24000021C39BB90E80F10E047EFF3098C194B43
:10C2500093E80600914218D059B10CB44FF0010395
:10C2600081F821302CE9F00FC1F824C009F07AFEE2
:10C270000CBC1A60D2F824C0BCE8F00F92F8213050
:10C280008CF309881BB192F82000CCF800006FF005
:10C29000020E704710B5084A1268914209D8074C3F
:10C2A00054F8214090E80F10A047EFF3098C8CE878
:10C2B0000F0010BDC40400201CC800081CC80008E2
:10C2C00009F03AFD114B93E8060091421BD00CB4E3
:10C2D0004FF0000381F82130EFF3098C2CE9F00FC7
:10C2E000C1F824C009F03EFE0CBC1A60D2F824C08C
:10C2F000BCE8F00F8CF3098892F821301BB192F85A
:10C300002030CCF800306FF0020E7047C4040020DB
:10C3100009F0ECFED6E7000008F0D2FC09F0E6FEDA
:10C32000D0E7000013484FF001010160124A134B9F
:10C330001360134B1360134B1360134B9361134C37
:10C340004FF0A53525604FF0000111488047114896
:10C350000047FEE7FEE7FEE7FEE7FEE7FEE7FEE753
:10C36000FEE7FEE7FEE700000B480C490C4A0D4BC8
:10C3700070470000F0100240006C0140863AD9A7D7
:10C38000CDDF12AB2635EDCDFF8301208C2202409C
:10C3900069010108EDC00008D0810020D08700208D
:10C3A000D0830020D0830020004870477081002097
:10C3B000B2F120030AD5C2F1200320FA02F001FAFB
:10C3C00003F321FA02F140EA0300704721FA03F077
:10C3D0004FF00001704740EA010310B59B070FD1F1
:10C3E000042A0DD310C808C9121F9C42F8D020BAE5
:10C3F00019BA884201D9012010BD4FF0FF3010BD9D
:10C400001AB1D30703D0521C07E0002010BD10F86A
:10C41000013B11F8014B1B1B07D110F8013B11F830
:10C42000014B1B1B01D1921EF1D1184610BD10B556
:10C43000431C02E010F8011B71B18107FAD14FF0E3
:10C44000013202C88C1A8C4314EAC211F9D0C01A06
:10C450000A0603D0C01E10BDC01A10BD0A0401D0C8
:10C46000801E10BD0902FCD0401E10BD40EA010331
:10C4700070B59B072ED14FF00136042A2AD308C885
:10C4800010C99D1B9D43121F15EAC61517D0D8B2BF
:10C49000E1B2401A50EA056110D198B2A1B2401A37
:10C4A00050EA05410AD123F07F4024F07F41401A31
:10C4B00050EA052102D1180EA0EB146070BDA34212
:10C4C000DBD018BA21BA884201D9012070BD4FF0E3
:10C4D000FF3070BD0AB9002070BD10F8013B11F8A3
:10C4E000014B63B1A3420AD1521E08D010F8013BA0
:10C4F00011F8014B1BB1A34201D1521EEDD1181B03
:10C5000070BD421E12F8013F002BFBD111F8013B18
:10C51000002B02F8013BF9D17047032A40F230802A
:10C5200010F0030C00F0158011F8013BBCF1020F74
:10C53000624498BF11F801CB00F8013B38BF11F8F5
:10C54000013BA2F1040298BF00F801CB38BF00F80C
:10C55000013B11F0030300F06780083AC0F0088047
:10C5600051F8043B083A51F804CBA0E80810F5E76D
:10C57000121D5CBF51F8043B40F8043BAFF3008050
:10C58000D20724BF11F8013B11F801CB48BF11F8C5
:10C59000012B24BF00F8013B00F801CB48BF00F895
:10C5A000012B7047431A28BF9A427FF6B6AF032A81
:10C5B0001044114440F2268010F0030F1EBF11F802
:10C5C000013D521E00F8013D10F0030F7FF4F6AF5D
:10C5D00011F0030300F0C180083AC0F00B8051F85D
:10C5E000043D083A51F804CD40F8043D40F804CD2C
:10C5F000FFF7F3BF121D5CBF51F8043D40F8043D46
:10C60000AFF30080D20724BF11F8013D11F801CD2E
:10C6100048BF11F8012C24BF00F8013D00F801CDFE
:10C6200048BF00F8012C704710B5203AC0F00B80CD
:10C63000B1E81850203AA0E81850B1E81850A0E826
:10C640001850BFF4F5AF5FEA027C24BFB1E8185080
:10C65000A0E8185044BF18C918C0BDE810405FEAF0
:10C66000827C24BF51F8043B40F8043B08BF70476C
:10C67000D20728BF31F8023B48BF11F8012B28BF71
:10C6800020F8023B48BF00F8012B704702F0FF037F
:10C6900043EA032242EA024200F002B84FF00002ED
:10C6A0000429C0F0128010F0030C00F01B80CCF1C4
:10C6B000040CBCF1020F18BF00F8012BA8BF20F832
:10C6C000022BA1EB0C0100F00DB85FEAC17C24BF86
:10C6D00000F8012B00F8012B48BF00F8012B704730
:10C6E0004FF0000200B5134694469646203922BF0B
:10C6F000A0E80C50A0E80C50B1F12001BFF4F7AF56
:10C70000090728BFA0E80C5048BF0CC05DF804EB37
:10C71000890028BF40F8042B08BF704748BF20F8A5
:10C72000022B11F0804F18BF00F8012B70477047A3
:10C7300070477047431A28BF9A427FF675AF10447E
:10C7400010F0030F11441EBF11F8013D521E00F8F6
:10C75000013D10F0030F7FF4F6AF103AC0F00A80ED
:10C7600010B531E91850103A20E91850BFF4F9AF6C
:10C77000BDE81040530724BF31E9081020E9081034
:10C7800044BF51F8043D40F8043D12F0030F08BFC8
:10C790007047D20728BF31F8023D48BF11F8012C7D
:10C7A00028BF20F8023D48BF00F8012C70477546AD
:10C7B000FFF7FAFDAE4605006946534620F0070034
:10C7C000854618B020B5FFF7CFFDBDE820404FF0FB
:10C7D00000064FF000074FF000084FF0000B21F06B
:10C7E0000701AC46ACE8C009ACE8C009ACE8C00938
:10C7F000ACE8C0098D46704710B50446AFF3008021
:10C800002046BDE81040FFF7DCBC000001491820BD
:10C81000ABBEFEE7260002007047000000000000EB
:10C820002DE9F84F1E4D8246012090468B464FF071
:10C830000009C5F8F0001C4C1A4820601B48206015
:10C840001B482060184E1836306800901948306038
:10C85000194F4FF0A530C7F88C0218480123002269
:10C86000D0F80CC04146584607F52377E047686882
:10C8700020F4403040EA0A00686000983060C5F853
:10C88000F0900848C04320600848C0432060084832
:10C89000C04320604FF05A3038600120BDE8F88F67
:10C8A00000100240863AD9A7006C0140CDDF12ABE0
:10C8B0002635EDCDFF8301200020024000D0FF1F70
:10C8C0002DE9F047047827488A46264D0126244959
:10C8D000471410354FF4804854B1012C09D0022C74
:10C8E00017D000248AF800404FF00110BDE8F0870F
:10C8F00001240E700D21814608F0F2FB2F600E21FD
:10C90000484608F0EDFBC5F8008001220C2148469E
:10C910001DE002220A700D21814608F0E1FB2F6024
:10C920000E21484608F0DCFBC5F8008001220C21EE
:10C93000484608F083FB0C4F0921384608F0D0FB2D
:10C94000094978151031086001220A21384608F09B
:10C9500075FB0021484608F0F5FB2E60C2E7000099
:10C9600000060020000C0140000801402DE9F041C4
:10C9700002787F2A03D0BDE8F04100F001BB01F846
:10C98000012B10F8015F01F8015B461C0C464FF0CB
:10C99000021708E02146304600F0F2FA074406EBA1
:10C9A000104680B204446D1EF4D23846BDE8F081D2
:10C9B00070B5002402460B462046092A3FD00ADC07
:10C9C0002B49092A086951D2DFE802F0505050156E
:10C9D0001920262C2F004021FC2A47D004DCF02A05
:10C9E00033D0F12A42D132E0FD2A3FD0FE2A3AD09C
:10C9F000FF2A3BD133E01C4607F038FD22E0062435
:10CA000022461C491846FFF788FD2FE0A8B1D0F850
:10CA1000A41104E018460CE078B1D0F8A811002960
:10CA2000F8D10AE01846C96F02E0D1F88010184624
:10CA300019B108F0DFFE044618E0002416E00C46A9
:10CA400007F01CFD01462046F3E733200CE0197087
:10CA5000422159700F219970D870042406E0197092
:10CA60005870022402E0642018700124204670BD32
:10CA700028930108AC9301082DE9F04F87B00446D4
:10CA800005900020CDE9011001F10209E549087087
:10CA9000E54914F8012B8246CA77897F07468A4206
:10CAA0007ED214F8016B002E7AD000BF14F8015B1F
:10CAB000E90701D00B2100E00A218B46A90770D5B8
:10CAC000F7B3D948DA45B0F814800FD1E8060DD491
:10CAD0006946284602F028FB022816D1B8F1010861
:10CAE00003D3D04909780029F2D048E1BAF10A0FFE
:10CAF00003D00A20824602F03DF9CA4F69460E2053
:10CB000002F012FB022803D000270128EDD107E034
:10CB1000B8F1010802D339780029EFD000272EE1BF
:10CB2000009989F80010009A09F10101120A01F830
:10CB3000012B009A120C01F8012B009A120E00E052
:10CB400015E001F8012B89468FB129060FD5B649AA
:10CB500009F10102C96889F800100B0A02F8013BCB
:10CB60000B0C02F8013B090E02F8011B9146E90685
:10CB70005AD5A17834F8030BDFF8AC8261F31F407B
:10CB800014F8011BDA4540EA01600490B8F8160079
:10CB90000390584602D0DA4602F0ECF8C34601E0B2
:10CBA00011E174E0B8F814800021284602F0BCFAC4
:10CBB000022802D0012898D107E0B8F1010803D378
:10CBC000984909780029EFD0D9E0BBF8148069466C
:10CBD000284602F0A9FA022802D0012818D107E05D
:10CBE000B8F1010814D38F4909780029EFD00FE07C
:10CBF000DBF81810009A1140049A914208D003996A
:10CC0000491E0391491C03D0864909780029DCD0CC
:10CC1000DBF81810009A1140049A914201D040F0BC
:10CC2000100001281ED1A0E0002F2FD15946DA456F
:10CC300003D008468A4602F09DF87B48DFF8E4B14D
:10CC4000B0F814800021284602F06EFA022802D0C3
:10CC5000012807D107E0B8F1010803D39BF80010C1
:10CC60000029EFD08BE029060FD56F49CA6809F17A
:10CC7000010189F80020130A01F8013B130C01F8A7
:10CC8000013B120E01F8012B894601276DE06FB3BD
:10CC9000BAF10A0F03D00A20824602F06BF862480C
:10CCA000B0F8148069460E2002F03EFA022802D045
:10CCB000012864D107E0B8F1010860D35949097827
:10CCC0000029EFD05BE0009989F80010009909F184
:10CCD0000100090A00F8011B0099090C00F8011B6A
:10CCE0000099090E00F8011B81460027A17834F84D
:10CCF000030B61F31F4014F8011B40EA0160009030
:10CD0000A90603D54849886101202EE05946DA4535
:10CD100003D008468A4602F02DF84348DFF804B1F4
:10CD2000B0F814806946284602F0FEF9022802D0C5
:10CD3000012824D107E0B8F1010820D39BF80010A6
:10CD40000029EFD01BE029060FD5374909F1010270
:10CD5000C96889F800100B0A02F8013B0B0C02F8B5
:10CD6000013B090E02F8011B91460299491C0291F0
:10CD70002C49097819B9761E7FF498AE09E046B1BE
:10CD800014F8011B8A0701D5C90600D5241D761E9B
:10CD9000F5E7012836D1BAF10A0F02D00A2001F0D6
:10CDA000E9FF21481F4E858A0FB369460E2002F025
:10CDB000BBF9022802D0012824D105E06D1E21D341
:10CDC00031780029F1D01DE0009989F80010009A0F
:10CDD00009F10101120A01F8012B009A120C01F865
:10CDE000012B009A120E01F8012B89460AE000215E
:10CDF0000E2002F099F9022804D16D1E02D3317879
:10CE00000029F4D0DDE901120A70019948700199F6
:10CE1000A9EB0100059907B0611A40EA0140BDE89D
:10CE2000F08F000000000020000600202DE9F84FE0
:10CE3000DFF844810027044638460D4601F1030A15
:10CE400088F800704D4914F8012BCA77897F8A420F
:10CE500022D234F8026B002E1ED014F8019B5FEA38
:10CE6000C97001D00B2000E00A20834601F082FF48
:10CE70005FEA897061D54148848A0021484602F002
:10CE800053F9022802D001286DD134E0641E6AD320
:10CE900098F800100029F0D065E03EB9BBF10A0F08
:10CEA00002D00A2001F066FF4FF00E093348848A51
:10CEB0006946484602F038F9022802D0012852D1CA
:10CEC00006E0641E4FD398F800100029F0D04AE025
:10CED00000998AF80010009A0AF10101120A01F87B
:10CEE000012B009A120C01F8012B009A120E01F886
:10CEF000012B8A467F1C761ECFD234E0A17834F80D
:10CF0000030B61F31F4014F8011B40EA016000901D
:10CF10001A48B0F814806946484602F005F902281C
:10CF200002D001281FD107E0B8F101081BD3124934
:10CF300009780029EFD016E07F1C761EDED2BBF107
:10CF40000A0F02D00A2001F015FF0C480A4E848A0D
:10CF500000210E2002F0E8F8022804D1641E02D35A
:10CF600031780029F4D02F70390A6970A870AAEBC3
:10CF70000500BDE8F88F000000000020000600203A
:10CF80002DE9F0470278A2F180031F2B03D800F0AF
:10CF900077F9BDE8F087A2F1A0035E2B02D800F07C
:10CFA0000BFAF6E701F8012B0C4610F8017B00257F
:10CFB000FF23AA49AA4A4FF001161E2F73D2DFE8B9
:10CFC00007F00F17292DF8EEED72EC4D5B727272BF
:10CFD00072725F6473818EB3D87272727272728A67
:10CFE0000078611CFFF7E4FC207000F10210D0E72C
:10CFF00002781AB1012A0BD0237024E14078C207CD
:10D000004FF4006001D0974A01E0964A121D10606B
:10D01000257018E12146FFF753FC34E0914E15705E
:10D02000103E00220D21304608F008F800220E21A3
:10D03000304608F003F800220C21304607F0FEFFCE
:10D04000894E00220921304607F0F8FF00220A210C
:10D05000304607F0F3FF25700121F4E00288834891
:10D06000834B0068B0FBF3F00323801CB0FBF3F0AC
:10D070005043401EFDD1CBE7657025700221E2E0F0
:10D08000214600F0ABFC0146DDE086780188C078DF
:10D0900066F31F41774E51EA00607DD0906003F047
:10D0A00023F8257083E0D5E010F8016B0EB94FF43A
:10D0B00080760146304602F0E3FFF61DF008257049
:10D0C000010453E0007800F00301491C1177C0F31C
:10D0D00080005077E5E7214600F0BEF9D3E704F879
:10D0E000015B0125A0462F4610F8016B17E000BF39
:10D0F00010F8019B824619F03F0000D14020C01D6E
:10D10000C40842465146484601F0BEFF25446D1C06
:10D110000AEB04005FEA096101D5A0442744761EAA
:10D12000E6D247EA05418EE010F8013B00219377F3
:10D130000E460BE002EB060C10F8017B8CF8207019
:10D1400002EB460C761CACF8281039449E42F1D311
:10D15000002007E0161896F82060891B02EB4006B5
:10D16000401C31879842F5D32570190401F1011153
:10D1700069E01178022919D10078D077917F88422F
:10D1800014D20E2001F0F6FD01F014FF257060703E
:10D19000010AA170010C04E008E057E033E013E05D
:10D1A00007E0E170000E207133494CE023703146F6
:10D1B00049E001781174B0F801109182B0F80300D1
:10D1C000D08225702D493EE012782146012A14D0E4
:10D1D000022A15D0421C12F8013B43B112F8014B50
:10D1E000A60701D5E40600D5121D5B1EF6D1101A64
:10D1F0000D7000044D70801C45E700F075F942E7A2
:10D20000FFF73AFC3FE706461078214601280BD08D
:10D2100002280DD00D704D70A5700320F17889079C
:10D220000AD540F480210EE0304600F03FFBF5E7E0
:10D230003046FFF7FBFDF1E7B6F801104FF480220E
:10D2400002EB8141014301F10110A2E6214600F009
:10D2500085FC18E704F8013C30469AE6010002001C
:10D2600000060020100C014000080140E8020020E8
:10D2700040420F000100040005000100010005000C
:10D280002DE9FC47027801F8012B0D4610F8011B2F
:10D290004FF0011406460020670080394FF0010866
:10D2A00004F101090E2978D2DFE801F007141F2EDE
:10D2B0003C77777747576165697A07F0D7F8064674
:10D2C000FFF7B5F8C4B22C70681C22463146FFF750
:10D2D00024F923E00724684603F0E6FA224669466B
:10D2E0002846FFF71AF9324C57E0684603F0DCFA9B
:10D2F00030680090684603F0F7FA002003F06AFBFC
:10D3000085F800802B4C48E03E21681C0AF09AFC0E
:10D31000040002D0012007F071FA2C7004F580346B
:10D32000A41C3AE03778701C39460AF051FD012000
:10D3300007F064FA85F800802BE085F800803178EA
:10D3400011B1012902D005E0002000E0012007F022
:10D35000CBFB00E028703C461FE085F8008005F01C
:10D360009BFD10B902200AF029FA4C4615E03078EE
:10D3700009F0A8F9EEE709F073F92870F5E716F857
:10D38000017B012007F04AFA3946304609F03CFAA1
:10D39000287004EB074404F101142046BDE8FC8723
:10D3A0002870307800B1012006F0B2FDD3E700000C
:10D3B0000900010002000500FF2008704FF0011075
:10D3C0007047000038B52248816941F0040181614D
:10D3D000816901F004010091816941F008018161D6
:10D3E000816901F008010091816941F010018161BA
:10D3F000816901F010010091816941F02001816192
:10D400008069144D00F0200000900D21284607F09F
:10D4100067FE104C6814103420600E21284607F077
:10D420005FFE4FF48040206001220C21284607F067
:10D4300005FE0021284607F085FE012020600B2113
:10D44000284607F04DFEE014211D086038BD00009D
:10D4500000100240000C01402DE9F05F002201F8AD
:10D46000012B012510F8016B8A46A94604464FF4AA
:10D47000804B31E014F8017B17F03F0000D14020D1
:10D48000C01D4FEAD008380608D500220E211548E5
:10D4900007F0D4FD13495846103106E00E2111481B
:10D4A00007F01EFE0F4958461431086052462146C7
:10D4B000384602F0F9F93EB90E210A4807F010FE8D
:10D4C00008491431C1F800B0380602D5C244C1443D
:10D4D00001E0444445446D1C761ECBD249EA054028
:10D4E000BDE8F09F000C01402DE9F04F87B08B465E
:10D4F00001F1020804460590EA49002002900870F4
:10D5000001906678A41C8146002E75D0DFF898A3A0
:10D5100014F8015BA90770D5B9F1000F50D0BAF823
:10D52000147005F0110001280AD0DFF878936946DD
:10D530000E2002F029FA022812D04FF0000905E06F
:10D540006946284602F020FA022802D0012806D1B6
:10D550000FE07F1E03D3D34909780029F0D04FE1B3
:10D560007F1E03D399F800100029E0D04FF0000986
:10D5700046E1009988F80010009A08F10101120AAA
:10D5800001F8012B009A120C01F8012B009A120EDF
:10D5900001F8012B8846B9F1000F11D029060FD5EB
:10D5A000DAF80C2008F1010188F80020130A01F8CC
:10D5B000013B130C01F8013B120E01F8012B8846C8
:10D5C000E90651D5A17834F8030B61F31F4014F834
:10D5D000011B40EA01600490BAF816000390E807C6
:10D5E00014D0BAF814700021284602F0CDF90228B0
:10D5F00004D00128B3D109E022E197E07F1E791C15
:10D60000ADD0A84909780029EDD0F9E0BAF8147036
:10D610006946284602F0B8F9022802D0012817D13D
:10D6200006E07F1E14D39F4909780029F0D00FE04F
:10D63000DAF81810009A1140049A914208D0039920
:10D64000491E0391491C03D0964909780029DDD071
:10D65000DAF81810009A1140049A914201D040F073
:10D660001000012816D15FE0BAF81470E90727D03E
:10D67000B9F1000F58D10021284602F085F902289F
:10D6800002D0012806D106E07F1E03D38549097820
:10D690000029F0D0B4E029060FD5DAF80C2008F103
:10D6A000010188F80020130A01F8013B130C01F86E
:10D6B000013B120E01F8012B88464FF0010933E0BF
:10D6C0006946284602F060F9022802D0012806D1F6
:10D6D00006E07F1E03D3734909780029F0D08FE05C
:10D6E00029060FD5DAF80C2008F1010188F800208E
:10D6F000130A01F8013B130C01F8013B120E01F86B
:10D70000012B8846009988F80010009A08F1010161
:10D71000120A01F8012B009A120C01F8012B009A51
:10D72000120E01F8012B884600215EE0B9F1000FCE
:10D7300025D0BAF8147069460E2002F025F90228A7
:10D7400002D001285CD106E07F1E59D355490978E3
:10D750000029F0D054E0009888F80000009908F102
:10D760000100090A00F8011B00994FF00009090C9B
:10D7700000F8011B0099090E00F8011B8046A178F2
:10D7800034F8030B61F31F4014F8011B40EA0160F9
:10D790000090A90603D5CAF81800012026E0BAF8BF
:10D7A00014706946284602F0EFF8022802D00128DA
:10D7B00026D107E07F1E791C22D03A49097800293A
:10D7C000EFD01DE029060FD5DAF80C2008F1010191
:10D7D00088F80020130A01F8013B130C01F8013B03
:10D7E000120E01F8012B8846012101910299491C72
:10D7F00002912C49097819B9761E7FF489AE09E0A7
:10D8000046B114F8011B8A0701D5C90600D5241DAD
:10D81000761EF5E7012837D1B9F1000F24D0BAF808
:10D820001450204E69460E2002F0AEF8022802D0B5
:10D83000012829D105E06D1E26D331780029F1D0C9
:10D8400022E0009988F80010009A08F10101120AFC
:10D8500001F8012B009A120C01F8012B009A120E0C
:10D8600001F8012B88460FE0019969B1BAF814500C
:10D870000C4E00210E2002F087F8022804D16D1E04
:10D8800002D331780029F4D002998BF800108BF87C
:10D8900001000598A8EB0B01201A07B041EA0040EF
:10D8A000BDE8F08F00000020000600202DE9F84FB1
:10D8B000DFF820810027044638460D4601F1030AAF
:10D8C00088F80070B4F80160E41C002E79D014F8D8
:10D8D000019BDFF804B15FEA897160D55FEAC97125
:10D8E0003CD0BBF814400021484602F04DF8022815
:10D8F00002D0012865D131E0641E62D398F800108F
:10D900000029F0D05DE026B95FEAC97001D04FF080
:10D910000E09BBF814406946484602F035F8022863
:10D9200002D001284DD106E0641E4AD398F80010B9
:10D930000029F0D045E000998AF80010009A0AF119
:10D940000101120A01F8012B009A120C01F8012BB7
:10D95000009A120E01F8012B8A467F1C761ED2D245
:10D960002FE0A17834F8030B61F31F4014F8011B7A
:10D9700040EA01600090BBF814806946484602F016
:10D9800003F8022802D001281BD107E0B8F10108F2
:10D9900017D3104909780029EFD012E07F1C761EBA
:10D9A000701CDED1BBF814400A4E00210E2001F09D
:10D9B000EBFF022805D1641E611C02D031780029DA
:10D9C000F3D02F70390A6970A870AAEB0500BDE882
:10D9D000F88F000000000020000600202DE9F05F15
:10D9E0008B460578447802794188407962F31F417B
:10D9F00041EA00664648E10700F1040706D0EA075D
:10DA00004FF4005101D0016000E03960A10706D554
:10DA1000AA074FF4804101D5016000E03960610739
:10DA200009D5A908CA074FF4007101D0394A01E0AD
:10DA3000384A121D116021060DD5E909C9074FF0BA
:10DA4000010802D0C0F8008005E03349334809F0EE
:10DA50009FFCC7F80080DFF8B8A0DFF8B890AAF103
:10DA6000040AA9F10809AAF1040896B32C488642D1
:10DA700000D9064602F0AEFB0746E00705D0DAF80B
:10DA80000000C0F34030A8421ED1A00706D5D8F848
:10DA90000000C0F30030B0EB550F15D1600706D57C
:10DAA000D9F80000C0F34020B0EB950F0CD1A006D0
:10DAB00001D5680908D120060BD5D8F8000000F080
:10DAC0000100B0EBD51F04D002F084FBC01BB042B4
:10DAD000D3D3DAF80000D8F80020C0F34031C2F305
:10DAE000003241EA4203D9F80020D9F80010C2F30D
:10DAF000402243EA8202C1F38021D8F8000042EAC2
:10DB0000C10141EAC0108BF800000648BDE8F09F53
:10DB1000100C0140100801400400FA050CED00E073
:10DB2000C0C62D00010006000A4910B500220A7087
:10DB3000094888600A7464238B82CA8201238A613F
:10DB40000B774A778A7702F0CFFABDE81040FFF7EB
:10DB500039BC00000006002080969800F8B5044605
:10DB6000174800260D460278012A03D0FF21022A19
:10DB700013D10DE0E178B4F8010061F31F40217981
:10DB800040EA016000906946002001F0FDFE13E0CC
:10DB90002278C277807F824201D329700DE008206D
:10DBA00001F0E8F8E178B4F8010061F31F40217951
:10DBB00040EA016001F026FD2E700248F8BD000029
:10DBC00000060020010005000078832805D0842885
:10DBD00003D08C2801D001207047002070472DE928
:10DBE000F04100F580540546D4F8C8091E46174692
:10DBF0008846002835D00846FFF7E6FF10B101201F
:10DC000006F004FE402F00DD4027D4F8C8093A464C
:10DC1000401EC4F8C809D4F8D009414605EB80106D
:10DC200004F6C814FEF779FCA06805EB80114046A5
:10DC3000FEF79CFEA16805EB410101F58051A1F8BA
:10DC40000009A068642105EB80103060A068401CCA
:10DC5000B0FBF1F201FB1200A0606068401C606044
:10DC60000120BDE8F08110B500F58053D3F8CC4910
:10DC70000CB3641EC3F8CC49D3F8D44900EB841428
:10DC80000C60D3F8D41900EB410000F580506421FA
:10DC9000B0F800091060D3F8D409401CB0FBF1F2D1
:10DCA00001FB1200C3F8D409D3F8C809401CC3F81B
:10DCB000C809012010BD002010BDA0F5C7600022DA
:10DCC00000F5005064218260C260C0E90012704714
:10DCD00001078A0E07490A44D2F8001C000602D543
:10DCE00048F6CF7001E04CF68F700140C2F8001C7E
:10DCF00070470000005000400207930E0C4A30B5F8
:10DD00001344D3F8002C000648F68F7502EA05008C
:10DD100048F2800482EA010202D502F0300101E0FB
:10DD200002F4405108432043C3F8000C30BD00000A
:10DD30000050004030B585B00546002400F03AF9A7
:10DD400000200090CDE901050120039004A9684658
:10DD500000F092F800B1012400F0E2F805B020468E
:10DD600030BD000006490020C8610648016941F045
:10DD700004010161016941F0400101617047000047
:10DD8000581C002000200240064A0021D1610649AB
:10DD90000A6942F002020A614861086940F04000E5
:10DDA00008617047581C002000200240044B0022EC
:10DDB000DA61044A136943F001031361018070477B
:10DDC000581C0020002002400E49C868C2060E48B8
:10DDD00003D5C26942F00202C261CA68520703D584
:10DDE000C26942F00102C261CA69D20707D0C269A2
:10DDF00042F00402C261C86920F00100C861142029
:10DE0000C860704700200240581C002070B50546CD
:10DE100000F0C6F90646114C09E0681C07D025B190
:10DE200000F0BEF9801BA84201D9032070BDE06854
:10DE3000C007F2D1E068800601D52020E060E068EC
:10DE4000C00605D4E069C00702D1E068400703D5E9
:10DE5000FFF7BAFF012070BD002070BD0020024016
:10DE600031B500F09DF9044600F09AF90099001BC5
:10DE70008842F9D338BD00002DE9F0470546264811
:10DE80000F460126017E01290FD00121814601762E
:10DE90002868DFF888804CF25034022808D0A24667
:10DEA0002046FFF7B3FFA8B131E00220BDE8F087BC
:10DEB0002046FFF7ABFF08BB0120FFF753FF2046CA
:10DEC000FFF7A4FFD8F81010064621F00401C8F8A7
:10DED00010101CE04FF0FF303860AC6811E02046B5
:10DEE000FFF752FF5046FFF791FFD8F810100600D9
:10DEF00021F00201C8F8101001D03C6007E004F5E1
:10DF00008064D5E9020100EB8120A042E7D800211E
:10DF100089F818103046C9E7581C0020002002403C
:10DF20000348016941F08001016100207047000051
:10DF3000002002402DE9F05F07461C488846002477
:10DF4000017E15461E46012909D001218146017630
:10DF50004CF2503A5046FFF759FF18B122E0022028
:10DF6000BDE8F09F012F02D0022F00D00427D34636
:10DF7000DFF83CA0220128463146FEF719FA81B2AB
:10DF800008EB4400FFF712FF5846FFF73FFFDAF8AF
:10DF9000102022F00102CAF8102018B9641CE4B263
:10DFA000BC42E7D3002289F81820D9E7581C00208A
:10DFB0000020024005480169090605D50449416071
:10DFC0000449416000207047012070470020024052
:10DFD00023016745AB89EFCD2DE9F84FDFF890A11C
:10DFE00000220AF1040B144601274FF00F090BF130
:10DFF000040E00BF0B6807FA04F52B40AB4274D146
:10E00000DFF870C14E68A6EB0C0866452BD00DDC1E
:10E01000032E34D005DC36B3012E19D0022E2FD1B9
:10E020001BE0112E16D0122E2AD119E0B8F5881F48
:10E0300019D006DCB8F5803F15D0B8F5801F1FD188
:10E0400011E0B8F5001F0ED0B8F5041F18D10AE092
:10E05000CA6815E0CA68121D12E0CA6808320FE0EB
:10E06000CA680C320CE08A682AB1012A4FF0080213
:10E0700003D0456104E0042202E0056100E00022D3
:10E08000FF2B01D8064601E000F104064FEA8405A3
:10E0900001D9A5F12005D6F800C009FA05F82CEA47
:10E0A000080C02FA05F54CEA050CC6F800C04D68EC
:10E0B000ED0057D5304DAE6946F00106AE61AD6951
:10E0C00024F0030605F0010500952C4D06EB050C28
:10E0D000DCF80850A6074FEA167809FA08F6B543A7
:10E0E000274EB04202D1002610E03BE0254EB04260
:10E0F00001D101260AE0244EB04201D1022605E0FA
:10E10000224EB04201D1032600E0042606FA08F6AA
:10E110002E43CCF808604D68DAF80060ED035546F0
:10E1200001D51E4300E09E432E604D68DBF8006081
:10E13000AD035D4601D51E4300E09E432E604D6851
:10E14000DEF80060ED02754601D51E4300E09E43F7
:10E150002E604D68AD020E4D2E6801D51E4300E0C5
:10E160009E432E60641C102CFFF444AFBDE8F88F72
:10E1700000040140000011100010024000000140A6
:10E1800000080140000C0140001001400014014053
:10E190000C0401400AB1016170470904FBE700006B
:10E1A000EFF3108172B607480068406A064A1368A8
:10E1B000C3EB9000C0F30D00184481F31088106089
:10E1C000704700001C1C0020E4020020074810B526
:10E1D000016841F010010160032000F05DF80F209C
:10E1E00000F006F800F056F8002010BD00200240B4
:10E1F00010B588B006A901A800F024F90498B0F57C
:10E20000806F08D0B0F5A06F35D0B0F5C06F34D0B6
:10E21000B0F5E06F33D001201A494FF0804200245E
:10E220000968B1FBF0F04FF47A61B0FBF1F11648E8
:10E23000491E02604FF6FF72C0E90324C0E90114D1
:10E2400044611248C16941F00101C161C06900F037
:10E25000010000900C4800F018FC002809D10C487F
:10E260000460094800F02DFC002802D1064800F0A7
:10E2700045FC08B010BD0220CEE70420CCE7082002
:10E28000CAE70000E80200201C1C00200010024029
:10E29000E402002070470000064900F00702086809
:10E2A0004FF6FF03184040EA0220034A104308607B
:10E2B000704700000CED00E00000FA052DE9F04782
:10E2C000DFF8708105460E46D8F8000000F0070020
:10E2D000B0420CD2D8F8001021F007013143C8F841
:10E2E0000010D8F8000000F00700B04277D128787D
:10E2F000514C800705D56068A96820F0F0000843FC
:10E3000060602878C00759D06968012001290DD0C4
:10E31000022929D05FF0020393FAA3F2B2FA82F243
:10E3200042F02002520904D0226803E04FF4003387
:10E33000F2E7626A93FAA3F3B3FA83F303F01F03DD
:10E34000984002424BD0606820F0030008436060B0
:10E35000FFF726FF6968074641F2883001290DD092
:10E360000229814617D025E04FF00073D4E700BFA3
:10E37000FFF716FFC11B494501D918E081466068C7
:10E38000C0F381000128F3D118E000BFFFF708FFB8
:10E39000C11B49450BD86068C0F381000228F5D144
:10E3A0000CE000BFFFF7FCFEC11B494502D903206A
:10E3B000BDE8F087606810F00C0FF3D1D8F80010BA
:10E3C000404601F00701B1420BD9016821F0070175
:10E3D00031430160006800F00700B04201D0012025
:10E3E000E6E72878400705D56068E96820F4E06032
:10E3F000084360602878000706D56068296920F422
:10E40000605040EAC100606000F03CF86168F022B2
:10E4100092FAA2F201F0F001B2FA82F2D140074A78
:10E42000515CC840064908600F20FFF7E1FE00205C
:10E43000BEE7000000200240001002409899010849
:10E44000E80200200F2202600C4A536803F0030325
:10E450004360536803F0F0038360536803F4E063A0
:10E46000C36052684FF4E06303EAD20202610448D9
:10E47000006800F0070008607047000000100240CC
:10E480000020024010B519A385B00FCB8DE80F0016
:10E490001AA01B4B006804905A681A4802F00C013D
:10E4A00004291DD008291BD14FF4701494FAA4F448
:10E4B00002F47011B4FA84F4E140D2031DF80110A3
:10E4C00010D55A684FF4003393FAA3F302F40032E4
:10E4D000B3FA83F3DA4004AB9A5CB0FBF2F0484342
:10E4E00005B010BD08484843FAE7000002030405E0
:10E4F000060708090A0B0C0D0E0F10100102000090
:10E500000010024000127A0000093D002DE9F84F8A
:10E5100004460078F74DC0074FF0010625D0686823
:10E520007704C0F38100012807D06868C0F3810038
:10E5300002281BD16868C00318D597FAA7F0B0FA73
:10E5400080F040F02000400901D0286800E0686AAF
:10E5500097FAA7F1B1FA81F101F01F0106FA01F172
:10E5600008425ED0606800287CD05AE06068B0F550
:10E57000803F0BD010B1B0F5A02F11D0286820F447
:10E5800080302860286820F4802002E0286840F469
:10E5900080302860606828B3FFF702FE80460BE0F9
:10E5A000286840F480202860F0E700BFFFF7F8FDFE
:10E5B000A0EB0800642871D897FAA7F0B0FA80F0B1
:10E5C00040F02000400901D0286800E0686A97FA0E
:10E5D000A7F1B1FA81F101F01F0106FA01F1084239
:10E5E000E4D01EE0FFF7DCFD804605E0FFF7D8FD34
:10E5F000A0EB08006428DED897FAA7F0B0FA80F004
:10E6000040F02000400901D0286800E0686A97FACD
:10E61000A7F1B1FA81F101F01F0106FA01F10842F8
:10E62000E4D12078DFF8D08280074FF000094FF066
:10E6300002075BD568684FF0F80B10F00C0F07D09D
:10E640006868C0F3810002281CD16868C00319D42F
:10E6500097FAA7F0B0FA80F040F02000400902D00D
:10E66000286801E08BE0686A97FAA7F1B1FA81F1B6
:10E6700001F01F0106FA01F108422CD0206901289F
:10E680007DD128E0206990B396FAA6F0B0FA80F028
:10E6900048F82060FFF784FD824607E011E100BFE3
:10E6A000FFF77EFDA0EB0A00022884D897FAA7F0B6
:10E6B000B0FA80F040F02000400901D0286800E066
:10E6C000686A97FAA7F1B1FA81F101F01F0106FA21
:10E6D00001F10842E4D028689BFAABF26169B2FA12
:10E6E00082F220F0F80091400843286025E0FFE71F
:10E6F00096FAA6F1B1FA81F148F82190FFF750FDA2
:10E70000824605E0FFF74CFDA0EB0A000228CCD8BA
:10E7100097FAA7F0B0FA80F040F02000400901D04D
:10E72000286800E0686A97FAA7F1B1FA81F101F070
:10E730001F0106FA01F10842E4D1207800076ED5E6
:10E74000A069B8B396FAA6F0B0FA80F008EB8000A2
:10E75000C0F88064FFF724FD824605E0FFF720FD46
:10E76000A0EB0A000228A0D897FAA7F0B0FA80F030
:10E7700040F06000B6EB501F02D128680CE062E167
:10E7800097FAA7F0B0FA80F040F06000B7EB501FA6
:10E7900001D1286A00E0686A97FAA7F1B1FA81F11D
:10E7A00001F01F0106FA01F21042D7D00120FFF755
:10E7B00057FB34E0FFE796FAA6F1B1FA81F108EBD6
:10E7C0008101C1F88094FFF7EBFC824606E000BFB0
:10E7D000FFF7E6FCA0EB0A00022872D897FAA7F030
:10E7E000B0FA80F040F06000B6EB501F01D128680D
:10E7F0000BE097FAA7F0B0FA80F040F06000B7EBBA
:10E80000501F01D1286A00E0686A97FAA7F1B1FAAF
:10E8100081F101F01F0106FA01F21042D8D12078EF
:10E82000400765D5E86940F08050E861E869DFF8A5
:10E83000CCB000F080500090DBF8001041F4807103
:10E84000CBF80010FFF7ACFC824605E0FFF7A8FC10
:10E85000A0EB0A00642834D8DBF80000C005F5D529
:10E86000E06801280AD008B1052813D0286A20F0F2
:10E8700001002862286A20F0040002E0286A40F0C3
:10E8800001002862E06841F2883B90B3FFF788FC02
:10E8900082460BE0286A40F004002862EEE700BFE1
:10E8A000FFF77EFCA0EB0A0159450AD897FAA7F0BA
:10E8B000B0FA80F040F04000B6EB501F02D128685B
:10E8C0000CE0A3E097FAA7F0B0FA80F040F0400027
:10E8D000B7EB501F01D1286A00E0686A97FAA7F1E8
:10E8E000B1FA81F101F01F0206FA02F10842D7D015
:10E8F00031E005E00010024000004242007000409C
:10E90000FFF74EFC824605E0FFF74AFCA0EB0A0148
:10E9100059457BD897FAA7F0B0FA80F040F0400054
:10E92000B6EB501F01D128680BE097FAA7F0B0FAB8
:10E9300080F040F04000B7EB501F01D1286A00E0A2
:10E94000686A97FAA7F1B1FA81F101F01F0206FA9D
:10E9500002F10842D8D1E06980B36968C1F381014E
:10E96000022970D04FF080714F000228484609D02C
:10E9700091FAA1F1B1FA81F148F82100FFF710FCFA
:10E98000044669E08A4691FAA1F1B1FA81F1C146E3
:10E9900048F82100FFF704FC804605E0FFF700FC83
:10E9A000A0EB0800022854D897FAA7F0B0FA80F03C
:10E9B00040F02000400902D0286801E061E0686A68
:10E9C00097FAA7F1B1FA81F101F01F0106FA01F1FE
:10E9D0000842E3D1206AB0F5803F05D16868A1689C
:10E9E00020F4003008436860D4E9080108436968EE
:10E9F00021F47411084368609AFAAAF0B0FA80F022
:10EA000049F82060FFF7CCFB044606E021E000BF98
:10EA1000FFF7C6FB001B02281BD897FAA7F0B0FA35
:10EA200080F040F02000400901D0286800E0686ACA
:10EA300097FAA7F1B1FA81F101F01F0106FA01F18D
:10EA40000842E5D01DE01EE0FFF7AAFB001B0228EC
:10EA500002D90320BDE8F88F97FAA7F0B0FA80F04A
:10EA600040F02000400901D0286800E0686A97FA69
:10EA7000A7F1B1FA81F101F01F0106FA01F1084294
:10EA8000E2D10020E6E70120E4E710B504460220C9
:10EA900084F839002068016A41F21112114207D14D
:10EAA000016A9210114203D1016821F00101016055
:10EAB000204600F021F8002084F8390084F838005E
:10EAC00010BD10B5040003D094F8390010B107E070
:10EAD000012010BD002084F83800204600F00DF819
:10EAE000022084F83900211D206801F093FB0120E9
:10EAF00084F83900002010BD70477047022180F86B
:10EB0000391001680A6842F001020A60012180F8A8
:10EB100039100020704770B5044690F838000D4653
:10EB200001280DD0012684F83860022084F83900CD
:10EB300042B1042A18D0082A2AD00C2A4DD139E033
:10EB4000022070BD206801F0A3FB2068816941F0BC
:10EB5000080181612068816921F0040181612068D8
:10EB600081692A69114311E0206801F0B9FB20682E
:10EB7000816941F4006181612068816921F48061CB
:10EB80008161206881692A6941EA0221816124E06A
:10EB9000206801F0D1FB2068C16941F00801C16122
:10EBA0002068C16921F00401C1612068C1692A6936
:10EBB000114311E0206801F0EBFB2068C16941F4CA
:10EBC0000061C1612068C16921F48061C161206870
:10EBD000C1692A6941EA0221C16184F839600020D3
:10EBE00084F8380070BD10B50446022084F839005E
:10EBF0002068016A41F21112114207D1016A921094
:10EC0000114203D1016821F001010160204600F0AA
:10EC100021F8002084F8390084F8380010BD10B5C0
:10EC2000040003D094F8390010B107E0012010BDB2
:10EC3000002084F83800204600F00DF8022084F807
:10EC40003900211D206801F0E5FA012084F839001F
:10EC5000002010BD7047704710B5044600680122BF
:10EC600001F00AFB07492068884203D1416C41F456
:10EC7000004141642068016841F001010160002009
:10EC800010BD0000002C014070B5040018D0022017
:10EC900084F839002068C16821F40051C1602068FF
:10ECA0000025C5602068056120684561204600F0A8
:10ECB00038F8E56384F8395084F83850002070BD86
:10ECC000012070BD70B5040004D094F8390000250F
:10ECD00010B106E0012070BD84F83850204600F0E5
:10ECE00021F8022084F839002068C16821F400511D
:10ECF000C160204601F06EFB2068016921F490415B
:10ED000001612068416921F02A0141612068C168E0
:10ED100041F40051C160E563012084F8390000200E
:10ED200070BD7047704703F091FE002070471CB51E
:10ED300007F0F4FF00281BD09E208DF80000E7208C
:10ED40008DF801006946102001F09AF907F0E6FFFE
:10ED500000280DD000208DF800006946082001F041
:10ED60008FF901A9002007F06BFF012800D00020D7
:10ED70001CBD00000349497809B100F005B800F056
:10ED800063B80000000600202DE9F0432B4A4FF441
:10ED9000804717605114131D1960116019601160CC
:10EDA0001F601960116019601160254E0C113460EC
:10EDB000244D95F81FC005EB4C09B9F828501DB13A
:10EDC000196011606D1EFBD11E4D20351CF80550D9
:10EDD000DFF86CC00CF1040C0AE000BF5FEAC078F9
:10EDE00001D0346001E0CCF80040196011604008A7
:10EDF0006D1EF3D1B9F838507DB1C00701D0346031
:10EE000001E0CCF8004019601160346001E0196045
:10EE100011606D1EFBD1176006E01760C00701D0BE
:10EE2000346001E0CCF80040196011601960116095
:10EE30001F60196011603460BDE8F083100C014060
:10EE400010080140000600202DE9F047564B4FF412
:10EE50008048C3F800805A141C1D2260534F796803
:10EE60000D466D1EFDD11A600D466D1EFDD122604E
:10EE70000D466D1EFDD11A600D466D1EFDD1C4F804
:10EE8000008022600D466D1EFDD11A600D466D1E7C
:10EE9000FDD122600D466D1EFDD11A600D466D1E1E
:10EEA000FDD1434E4FF40075356097F81FC007EB56
:10EEB0004C0AE146BAF828C0BCF1000F0AD0226023
:10EEC0000F467F1EFDD11A600F467F1EFDD1BCF19B
:10EED000010CF4D1DFF8D4C00CF1200C19F80CC0EF
:10EEE000DFF8CC9009F104090EE0C70701D03560C6
:10EEF00001E0C9F8005022600F467F1EFDD11A6064
:10EF00000F467F1EFDD14008BCF1010CEDD1BAF8CF
:10EF1000387027B3C00701D0356001E0C9F8005050
:10EF200022600846401EFDD11A600846401EFDD1F1
:10EF3000356007E022600846401EFDD11A60084691
:10EF4000401EFDD17F1EF5D1C3F800802260084627
:10EF5000401EFDD11A600846401EFDD10FE0C3F8E7
:10EF60000080C00701D0356001E0C9F80050226080
:10EF70000846401EFDD11A600846401EFDD12260A1
:10EF80000846401EFDD11A600846401EFDD1C4F857
:10EF9000008022600846401EFDD11A60491EFDD146
:10EFA0003560BDE8F0870000100C0140000600202D
:10EFB00010080140F0B5314C4FF4804626606214D1
:10EFC000231D1A602E4841680D466D1EFDD122603A
:10EFD0000D466D1EFDD11E601A600D466D1EFDD1E1
:10EFE00022600D466D1EFDD11A600D466D1EFDD1CD
:10EFF00022600D466D1EFDD1C57F4DB11A600846D9
:10F00000401EFDD122600846401EFDD16D1EF5D187
:10F010000027DFF870C01F251A600846401EFDD18A
:10F02000DCF800002260C0F3802E0846401EFDD1AF
:10F0300047EACE7047086D1EEED126601A6008467A
:10F04000401EFDD1DCF800002260C0F38025084698
:10F05000401EFDD147EAC5701A600D466D1EFDD1F8
:10F0600022600D466D1EFDD11E601A600B465B1EB0
:10F07000FDD12260491EFDD1F0BD0000100C014001
:10F0800000060020080801402DE9F04F10F03F0570
:10F0900000D14025DFF884A044064FF480434FF4AC
:10F0A000007EAAF1040B4FF4005801D55C4600E045
:10F0B000544623602EE000BF11F8016B00244FF08E
:10F0C000080C1FE0F307734601D0154F01E0144F01
:10F0D0003F1D3B60CAF80080124B5B681F467F1ED5
:10F0E000FDD10F4F083F3F68CBF80080C7F3802960
:10F0F0005B1EFDD1630876086D1E43EAC914BCF19E
:10F10000010C01D0002DDDD124FA0CF4030601D549
:10F1100002F8014B002DCFD1BDE8F08F140C014057
:10F120001008014000060020034A52780AB100F09E
:10F1300005B800F0D7B80000000600202DE9F05F08
:10F14000654D4FF480428B462A6054102E1D34606A
:10F150002C60326034602C6034602C605F49C97F61
:10F1600019B134602C60491EFBD1DFF874C141082D
:10F17000C907ACF104094FF4007302D0C9F800309C
:10F1800001E0CCF800303460DFF85481A8F10C08BD
:10F19000D8F800102C60C1F3802149008708FF07D0
:10F1A00002D0C9F8003001E0CCF800303460D8F863
:10F1B00000702C60C7F380273943C708FF0702D0CF
:10F1C000C9F8003001E0CCF800303460444F0C3F07
:10F1D0003F682C60C7F3802741EA870ABAF1010F24
:10F1E00001D02A605EE03D4F5FEA8078B97FFF7F03
:10F1F000A1EB070E2FD5DFF8E88000271F21A8F12B
:10F200000C083460D8F800C02C604FEA9C2C47EA08
:10F21000CC777F08491EF4D1BEF1010114D03460CF
:10F22000D8F800C0CCF3802C00E034602C60491E7C
:10F23000FBD12A6034602C6047EACC71BBF1000F2F
:10F2400032D0CBF800102FE02A603460D8F80010DC
:10F25000C1F3802CEFE7DBF800101F27E04600BF6A
:10F260005FEAC17C01D0CC4600E0C446CCF8003057
:10F2700034602C6049087F1EF2D1BEF101070AD02C
:10F28000C90701D0494600E041460B6034602C605C
:10F290007F1EFBD1A5E72A60C90701D0494600E0DF
:10F2A00041460B6034602C6034602C603260346006
:10F2B0002C60C9F80030000603D500F09BFF074919
:10F2C000C8600648007C01E034602C60401EFBD220
:10F2D0005046BDE8F09F0000100C014000060020E1
:10F2E000140801402DE9F34FC34F83B04FF480451C
:10F2F0003D606B103C1D2360DFF800C3DCF8041098
:10F300000A46521EFDD13B600A46521EFDD12560C1
:10F3100023600A46521EFDD13B600A46521EFDD1B3
:10F3200023600A46521EFDD13B600A46521EFDD1A3
:10F330009CF81F604EB123600A46521EFDD13B600F
:10F340000A46521EFDD1761EF5D14208DFF8B09272
:10F350005FEAC278A9F104064FF4007201D032606E
:10F3600001E0C9F800209A4623600B465B1EFDD1E0
:10F37000DFF88C82A8F10C08D8F80030C7F800A09C
:10F38000C3F3802C53460F467F1EFDD14FEA4C0736
:10F390004FEA900C5FEACC7C01D0326001E0C9F802
:10F3A0000020A34623600C46641EFDD1D8F800401F
:10F3B000C646C4F3802C904C23600C46641EFDD1DD
:10F3C000C40847EA0C07E40701D0326001E0C9F83D
:10F3D0000020CBF800300C46641EFDD1DEF8004062
:10F3E0009A46C4F3802C844C23600B465B1EFDD1EF
:10F3F00047EA8C030193012B0AD025605746CBF8CE
:10F4000000A00B465B1EFDD12760491EFDD1BEE06A
:10F410007A4B5FEA807C9F7FDB7FA7EB030300933F
:10F420005BD54FF0000C1F275346CBF800A0884651
:10F43000B8F10108FCD1DEF800802360C8F3802811
:10F440000B465B1EFDD14CEAC8734FEA530C7F1E7E
:10F45000EAD1009B5B1E5FEA03082AD05746CBF82F
:10F4600000A00B465B1EFDD1DEF80030BA46C3F3A8
:10F47000802927600B465B1EFDD1B8F101030DD03A
:10F480004FEA0A08CBF800800F467F1EFDD1C4F872
:10F4900000800F467F1EFDD15B1EF3D125605746CD
:10F4A000CBF800A00B465B1EFDD12760491EFDD1A5
:10F4B0000DE025605746CBF800A00B465B1EFDD142
:10F4C000DEF800302760C3F38029491EFDD1049B7C
:10F4D0004CEAC971E3B3196059E0049B4FF01F0C6B
:10F4E000D0461B68DF0701D0326001E0C9F8002078
:10F4F000CBF800800F467F1EFDD1C4F800800F4678
:10F500007F1EFDD15B08BCF1010CEBD1009F7F1E7B
:10F510002DD0DB0701D0326001E0C9F8002043465E
:10F52000DC46CBF800808846B8F10108FCD12360A6
:10F530004FEA0108B8F10108FCD17F1E0DD0CCF8CC
:10F5400000308846B8F10108FCD12360884600E00D
:10F550001DE0B8F10108FAD1EFE72560CCF80030E2
:10F560000F467F1EFDD12360491EFDD10FE02560AF
:10F57000DB0701D0326001E0C9F800204746CBF834
:10F5800000800B465B1EFDD12760491EFDD157460A
:10F59000D946CBF800A0DFF86480D8F804100B46F9
:10F5A0005B1EFDD127600B465B1EFDD1C9F80050E4
:10F5B000C9F800700B465B1EFDD12760491EFDD1C6
:10F5C0003260000603D500F015FEC8F80C0098F86C
:10F5D0001020D8F8040008E0C9F800700146491E60
:10F5E000FDD127600146491EFDD1521EF4D201987B
:10F5F00005B0BDE8F08F0000100C014000060020AF
:10F60000140801402DE9F04F654B4FF480471F600F
:10F610005A141C1D2260634E71680D466D1EFDD18B
:10F620001A600D466D1EFDD1276022600D466D1ECD
:10F63000FDD11A600D466D1EFDD122600D466D1E76
:10F64000FDD11A600D466D1EFDD196F81FC0BCF1AC
:10F65000000A0AD022600D466D1EFDD11A600D46CB
:10F660006D1EFDD1BCF1010CF4D1DFF83C814FF4EB
:10F670000075C8F8005022604FEA010CBCF1010C83
:10F68000FCD11A604FEA010CBCF1010CFCD12260E4
:10F690004FEA010CBCF1010CFCD11A604FEA010CDD
:10F6A000BCF1010CFCD122604FEA010CBCF1010C51
:10F6B000FCD11A604FEA010CBCF1010CFCD1DFF85F
:10F6C000E8904FF01F0CA9F10409B346C60702D019
:10F6D000C9F8005001E0C8F8005022600E46761EBE
:10F6E000FDD11A600E46761EFDD14008BCF1010C1A
:10F6F000ECD19BF81EC0ACEB0A06761E2CD0C007DE
:10F7000002D0C9F8005001E0C8F80050104622604D
:10F710004FEA010CBCF1010CFCD118604FEA010C5E
:10F72000BCF1010CFCD1761E0CD020604FEA010C1C
:10F73000BCF1010CFCD118604FEA010CBCF1010CCA
:10F74000FCD1F0E71F6020600E46761EFDD11860E8
:10F750000846401EFDD10FE01F60C00702D0C9F867
:10F76000005001E0C8F8005022600846401EFDD15C
:10F770001A600846401EFDD122600846401EFDD199
:10F780001A600846401EFDD1276022600846401ED0
:10F79000FDD11A60491EFDD1C9F80050BDE8F08FB7
:10F7A000100C0140000600201408014070B5104CF8
:10F7B0000D21204605F0ADFC0D4D6014103528607C
:10F7C0000E21204605F0A5FC4FF480402860012260
:10F7D0000C21204605F05BFC206820F00F00206023
:10F7E000206840F0070020600120286070BD000004
:10F7F000000C01402DE9F04117460D4680460026D9
:10F80000FEF7D8FBA80706D000206E220DA103F05A
:10F81000C9F900240EE00120F7E700BF57F82420C3
:10F8200008EB840100230220FEF784FB08B10126C7
:10F8300003E0641CB4EB950FF0D3FEF771FB304688
:10F84000BDE8F0812E2E5C2E2E5C2E2E5C736F7523
:10F850007263655C6869635F68616C5C73746D3367
:10F86000325C73746D33326631303378625C666C4F
:10F870006173682E630000000246002053090949A5
:10F88000012B0BD0022B0BD0D1F8241002F01F0259
:10F89000012393400B4200D0012070470968F5E72F
:10F8A000096AF3E7001002402DE9F00710F03F036A
:10F8B00008BF402310F0800FDFF8C090DFF8C0A031
:10F8C0004FF40054A9F104062CD0002B12BFDFF82E
:10F8D000B480BDE8F007704700274FF0080CDAF855
:10F8E000045010E0491EFDD1D8F800003460C0F388
:10F8F00000312846401EFDD178085B1E40EAC11742
:10F90000BCF1010C05D0002B1CBFC9F800402946F2
:10F91000E8D127FA0CF002F8010B002BDCD1BDE88E
:10F92000F0077047002B19BF4FF4804CDAF8042021
:10F93000BDE8F007704700BF11F8015B082712E02F
:10F94000E80714BFC6F800C0C9F800C0C9F80040F5
:10F950001046401EFDD134601046401EFDD16D089A
:10F960005B1E7F1E04D0002BEAD1BDE8F007704774
:10F97000002BE1D1BDE8F00770470000140C0140F6
:10F9800000060020080C0140034A52780AB100F03A
:10F9900005B800F055B90000000600202DE9F04F31
:10F9A000A04F4FF4804AC7F800A07E143D1D2E6082
:10F9B0003E60C20714BFC7F800A0C5F800A02E60C3
:10F9C0003E6042085FEAC27C14BFC7F800A0C5F8D9
:10F9D00000A02E603E60830802445FEAC37C14BF2F
:10F9E000C7F800A0C5F800A02E603E601344C2080E
:10F9F0005FEAC27C14BFC7F800A0C5F800A02E6063
:10FA00003E601A44D20714BFC7F800A0C5F800A092
:10FA10002E603E60C5F800A02E603E60C7F800A0D2
:10FA20002E603E60DFF800B2DBF8042022F0706246
:10FA3000CBF80420DBF80420CBF80420C7F800A0A2
:10FA4000DFF8E8E19EF81C20131E03D02E603E6014
:10FA5000521EFBD12E60DFF8D891D9F800203E600D
:10FA6000C2F300322E60D9F800C03E60CCF3003CF7
:10FA700042EA4C022E60D9F800C03E60CCF3003C54
:10FA800042EA8C02012A1DD0022A18BF042A7DD026
:10FA900013F1210003D02E603E60401EFBD1DBF845
:10FAA000040020F07060CBF80400DBF8040040F0A4
:10FAB0004070CBF80400C5F800A0C7F800A01046BD
:10FAC000BDE8F08F10F0020F4AD00024A04620239A
:10FAD0002E60D9F800C03E60CCF3003C6408E044DE
:10FAE00044EACC745B1EF3D12E60D9F800303E603E
:10FAF00088EA133313F0010F18BF0822002918BF3A
:10FB00000C609EF81C1019B12E603E60491EFBD19E
:10FB1000DBF8041021F07061CBF80410DBF804105E
:10FB200041F04071CBF80410C5F800A010F0800F30
:10FB30000AD0404840490068B0FBF1F03F494968AD
:10FB4000B1FBF0F0CEF80C009EF81000002818BFB2
:10FB5000C5F800A061D02E603E60401EFBD15CE085
:10FB60001BB12E603E605B1EFBD1DBF8043023F03E
:10FB70007063CBF80430DBF8043043F04073CBF80B
:10FB80000430C5F800A00968002300E017E04FF03A
:10FB9000200CCC0714BFC7F800A0C5F800A02E6049
:10FBA0003E600B444908BCF1010CF2D1D90714BFE7
:10FBB000C7F800A0C5F800A02E603E60B6E79EF82A
:10FBC0001DC0BCF1000F1CBF10F0020F212103D09B
:10FBD0002E603E60491EFBD11BB12E603E605B1E55
:10FBE000FBD1DBF8041021F07061CBF80410DBF8D6
:10FBF000041041F04071CBF80410C5F800A0BCF12E
:10FC0000000F0AD010F0020F04BFC5F800A0212099
:10FC100003D12E603E60401EFBD1C7F800A0104605
:10FC2000BDE8F08F100C0140000C014000060020E0
:10FC3000080C0140E802002040420F00001000E0E4
:10FC40002DE9F04FDFF810A44FF4804E4FF0000C78
:10FC5000CAF800E00AF104094FF40057C9F800702F
:10FC6000FE4D6A6813465B1EFDD1CAF8007013464C
:10FC70005B1EFDD1C30714BFCAF800E0C9F800E05D
:10FC8000C9F8007013465B1EFDD1CAF80070134618
:10FC90005B1EFDD10CEB00044FEA500C5FEACC7305
:10FCA00014BFCAF800E0C9F800E0C9F800701346B4
:10FCB0005B1EFDD1CAF8007013465B1EFDD1644483
:10FCC0004FEA900C5FEACC7314BFCAF800E0C9F8A1
:10FCD00000E0C9F8007013465B1EFDD1CAF8007041
:10FCE00013465B1EFDD164444FEAD00C5FEACC732F
:10FCF00014BFCAF800E0C9F800E0C9F80070134664
:10FD00005B1EFDD1CAF8007013465B1EFDD104EBEB
:10FD10000C03DB0714BFCAF800E0C9F800E0C9F81B
:10FD2000007013465B1EFDD1CAF8007013465B1EBF
:10FD3000FDD1C9F800E0C9F8007013465B1EFDD183
:10FD4000CAF8007013465B1EFDD1CAF800E0C9F87E
:10FD5000007013465B1EFDD1CAF8007013465B1E8F
:10FD6000FDD1BF4BD3F804C02CF0706CC3F804C0B5
:10FD7000D3F804C0C3F804C0CAF800E02C7FB4F183
:10FD8000000C0BD0C9F8007013465B1EFDD1CAF8F9
:10FD9000007013465B1EFDD1641EF3D1C9F80070DC
:10FDA00013465B1EFDD1DFF8BCB2DBF80030CAF8A9
:10FDB0000070C3F300331446641EFDD1C9F800700F
:10FDC0001446641EFDD1DBF80040CAF80070C4F38D
:10FDD00000341646761EFDD143EA4403C9F800708C
:10FDE0001446641EFDD1DBF80040CAF80070C4F36D
:10FDF000003415466D1EFDD143EA8408B8F1010FA9
:10FE000024D0B8F1020F18BFB8F1040F72D01CF162
:10FE100021010BD0C9F800701046401EFDD1CAF870
:10FE200000701046401EFDD1491EF3D18C48416838
:10FE300021F070614160416841F040714160C9F852
:10FE400000E0CAF800E04046BDE8F08F10F0020F75
:10FE500051D0002635464FF0200C00BFC9F8007085
:10FE600013465B1EFDD1DBF80030CAF80070C3F307
:10FE7000003413465B1EFDD17308254443EAC47663
:10FE8000BCF1010CEAD1BC46C9F80070734C1346B2
:10FE90005B1EFDD1DBF80030CAF800C0C3F30033AD
:10FEA000521EFDD185EA030212F0010F18BF4FF078
:10FEB0000808002918BF0E60257F002D18BF636851
:10FEC0000CD000BFC9F800C01A46521EFDD1CAF8B6
:10FED00000C01946491EFDD16D1EF3D160494A6824
:10FEE00022F070624A604A6842F040724A60C9F883
:10FEF00000E047E069E0BCF1000F0CD0C9F80070E9
:10FF000013465B1EFDD1CAF8007013465B1EFDD17F
:10FF1000BCF1010CF2D1524BD3F804C02CF0706C40
:10FF2000C3F804C0D3F804C04CF0407CC3F804C04C
:10FF3000F446C9F800E000240B682025D90714BF57
:10FF4000CAF800C0C9F800C0C9F800701146491EBF
:10FF5000FDD1CAF800701146491EFDD11C445B0852
:10FF60006D1EEBD1E10714BFCAF800C0C9F800C08C
:10FF70003B46C9F800701146491EFDD1CAF8003051
:10FF8000521EFDD110F0800F0AD037483749006863
:10FF9000B0FBF1F036494968B1FBF0F02F49C86079
:10FFA0002E48027C002A1CBFC9F800E0416851D0ED
:10FFB000C9F800700846401EFDD1CAF80070084616
:10FFC000401EFDD1521EF3D144E024494C7F002C49
:10FFD0001CBF10F0020F21230CD000BFC9F8007025
:10FFE0001146491EFDD1CAF800701146491EFDD1C7
:10FFF0005B1EF3D1BCF1000F0DD000BFC9F800703B
:020000040801F1
:100000001146491EFDD1CAF800701146491EFDD1A6
:10001000BCF1010CF2D112494B6823F070634B60C4
:100020004B6843F040734B60C9F800E094B110F0A6
:10003000020F04BFC9F800E021210BD1C9F80070FC
:100040001046401EFDD1CAF800701046401EFDD17A
:10005000491EF3D10EE00000100C01400006002004
:10006000000C0140080C0140E802002040420F0053
:10007000001000E0CAF800E04046BDE8F08F000044
:100080002DE9F001441E3CBFBDE8F00170474FF47C
:1000900080474FF400581348114DD0F804202E1F0C
:1000A00011F8013B4FF0080C13F0010F14BF37603B
:1000B0002F60C5F800801046401EFDD1C6F80080B4
:1000C0001046401EFDD15B08ACF1010C641E3CBF24
:1000D000BDE8F0017047BCF1000FE5D1E0E700009A
:1000E000140C0140000600200C490A680C49B0EBD2
:1000F000920F02D3012048700DE000EB5202521E15
:10010000B2FBF0F000234B70022803D90322B0FBAE
:10011000F2F000E00120486070470000E802002093
:10012000000600200B4A50680B4910F00C030B48E6
:1001300003D0042B01D0082B09D001605168084A74
:10014000C1F30311515C0268CA400260704705495F
:10015000F3E700000010024000127A00E8020020DD
:100160009899010800E6DF0C0D48016841F0010193
:10017000016041680B4A1140416001680A4A114020
:100180000160016821F480210160416821F4FE01D1
:1001900041604FF41F0181600449C003086070474B
:1001A000001002400000FFF8FFFFF6FE08ED00E03F
:1001B000BFF34F8F05480168054A01F4E061114320
:1001C0000160BFF34F8F00BFFDE700000CED00E0C2
:1001D0000400FA05044805490068B0FBF1F0044941
:1001E0004968B1FBF0F07047E802002040420F0080
:1001F000001000E0044805490068B0FBF1F0044934
:100200004968B1FBF0F07047E802002040420F005F
:10021000001000E0F0B50268144B154C154D4FF07E
:100220008047984205D0B84203D0A04201D0A842EE
:1002300003D122F070064A683243984205D0B84292
:1002400003D0A04201D0A84203D122F44074CA686E
:10025000224302608A68C2620A688262984201D1BF
:100260000969016301214161F0BD0000002C0140DA
:10027000000400400008004010B50123046A8B40D0
:100280009C430462036A8A401343036210BD00006A
:1002900030B5026A22F001020262026A4368846990
:1002A00024F073050C682C4322F002058A682A4367
:1002B0000A4DA8420BD122F00805CA6823F4407306
:1002C0002A434D6922F004021D438B692B4343608E
:1002D000846149684163026230BD0000002C014026
:1002E00030B5026A22F010020262026A4368846931
:1002F0000D6824F4E64444EA05248D6822F02002C7
:1003000042EA05120B4DA8420ED1CD6822F08002C0
:1003100042EA05124D6923F4406343EA85038D697F
:1003200022F0400243EA85034360846149688163A7
:10033000026230BD002C014030B5026A22F48072A6
:100340000262036A4268C46923F4007324F07305EF
:100350000C682C438D6843EA05230C4DA8420ED14E
:10036000CD6823F4006343EA05234D6922F440522B
:1003700042EA05128D6923F4806342EA0512426065
:10038000C4614968C163036230BD0000002C0140B4
:1003900030B5026A22F480520262046A4268C3697C
:1003A0000D6823F4E64343EA05238D6824F40054E2
:1003B00044EA0534064DA84204D14D6922F4804236
:1003C00042EA85124260C36149680164046230BD3B
:1003D000002C0140F0B501680A69C36822F440525C
:1003E0001A430A6102698168036811434269114333
:1003F000DA6841F20C64A2430A43DA6001684A6990
:10040000836922F440721A434A610468194B4068B8
:10041000642132229C424FEA800001D1164B00E059
:10042000164B6FF01807B3FBF0F5B5FBF1F5B3FB16
:10043000F0F67D4306EB8505B3FBF0F602EB051500
:10044000B5FBF1F5B6FBF1F605F0F00505EB061589
:10045000B3FBF0F6B3FBF0F0B0FBF1F0784306EB42
:10046000800002EB0010B0FBF1F000F00F00284418
:10047000A060F0BD003801400076DD4100BBEEA079
:1004800070B515480468154DA00612D52868C6B287
:10049000134802F01BFC132804D93146104802F01F
:1004A00079FC06E005D14FF013020EA10C4802F0D2
:1004B000C3FC200607D5104802F015FC20B10E48F9
:1004C00002F02CFC286070BD0448083001680B4A1B
:1004D0001140016070BD0000004400400444004031
:1004E000883000203C4441504C696E6B3A4F766531
:1004F00072666C6F773E0A00781C00207FFFFFEF6A
:100500001CB50020009001AA69460848FDF7ABFB26
:1005100040B10748DDE90012007840F0800002F0A9
:10052000FFF91CBD0349012008701CBD986700201D
:10053000CE990108EC05002038B5164D164C2888D8
:100540006188421A15486168007801F01FFE6168F1
:1005500080B201446160618801448AB26280298866
:100560008A4206D20F4B0E491B7831F81310814294
:100570000FD96B460C490D48FDF731FB002528B11A
:10058000207818B10020FFF7BBFF25706580064872
:10059000606038BDD4990108EC050020CF990108AE
:1005A000D09901086B050020E246002098670020E2
:1005B00010B50446400702D50020FFF7BDFF200715
:1005C00004D5BDE810400020FFF79ABF10BD002001
:1005D000704700000348D0E90410081A024909884E
:1005E000081A704728050020C499010870B50B4D02
:1005F0000C460346D5E90C0188420BD9401A8442C7
:1006000000DD044622461846FBF787FF686B20444E
:10061000686300E00024204670BD0000280500202B
:10062000002070472DE9F041194C0D460746D4E9EA
:100630000401401A17490988081A002802DC002022
:10064000BDE8F081854200DD0546D4E906020026BA
:1006500090420FD3104A431911448B420AD30E1A09
:10066000904632463946FBF758FF3744AD1B4046AB
:10067000C4F8188035B12A463946FBF74EFFA06909
:100680002844A0612169A81901442161D8E700002C
:1006900028050020C49901086246002010B5054CC9
:1006A0006068002805D10120606000F005F8002096
:1006B000606010BD280500202DE9F047234CA0689C
:1006C00000283DD0D4E90401421AE0684FF000064A
:1006D000104337D020461E4FDFF87880DFF878903F
:1006E0001E4DC1697AB1A069814205D338888B1843
:1006F0002844834200D3421A99F8003038F8130096
:10070000904200DA02461648E660007840F0800029
:1007100002F006F9E1690144E16162690244626143
:100720003B882B448B4200D1E561216991420BD17A
:1007300099F8002038F81210814205D10120E060BC
:10074000BDE8F087A660FBE7E660F9E72805002032
:10075000C4990108C89901086B0500206246002071
:10076000C299010810B50B4C206A18B1A06A401C50
:10077000A06210BD01202062606200F00DF8002030
:1007800060622062D4E90C018842F2D0401AFFF77F
:1007900047FF10BD2805002010B5134C1348164B19
:1007A000216B0A1A12481B780088821A114830F807
:1007B000130082420EDB1148007801F0E7FC216B48
:1007C00008442063A06A00280CD0616A002909D17E
:1007D000401E06E00120E062606A002802D0A06AA4
:1007E000401CA06210BD000028050020A246002089
:1007F000C6990108C89901086B050020C399010832
:1008000010B50446400702D52046FFF7ABFF20078E
:1008100004D52046BDE81040FFF740BF10BD70472B
:10082000002070470020704710B50B4800F03CF8DE
:10083000002810D0084A0948116801700B0A43705B
:100840000B0C8370090EC1701179017151794171DE
:1008500091798171012010BD600500206045002064
:100860000E4810B5002141608160C1600C4A0161F1
:10087000C0E90512C0E9072141620A4A8162C0E964
:100880000B124263018038304FF41652026001713E
:1008900041710821817100F015F810BD2805002074
:1008A00062460020A246002005490A6802600A79D3
:1008B00082714A7942718979017101207047000083
:1008C000F805002010B507F07BF903F0AFFF012019
:1008D00010BD10B507F0BEF9012010BD10B507F02E
:1008E00061FA012010BD0000064902680A608279A1
:1008F0000A7142794A71007988710020C8710846EE
:1009000007F0BAB9F805002010B5104800241049C6
:1009100044608460C4600461C0E90541C0E9071413
:1009200044620C498462C0E90B4141630480FFF7D3
:10093000D0FF06484FF416513830016004714471FD
:1009400008218171FFF7D0FF10BD000028050020AD
:1009500062460020A246002010B5FFF7D5FF10BD6B
:1009600070B51948007800282DD0184C00250126B4
:10097000206A50B9D4E90C10814206D11448814252
:1009800003D02063E56225626063A06A70B1206ACB
:1009900060B9E06A50B92662FFF7FEFE2562D4E92D
:1009A0000C01884202D0401AFFF73AFED4E9010157
:1009B000084308D1D4E90401884204D06660A660E7
:1009C000FFF77AFE656070BD6905002028050020EC
:1009D000A246002070B505460D480068C0698047F2
:1009E000A0B90C4C35B104F09DF82060002006F051
:1009F000E5FE0BE004F096F82168401AB0F5967F0A
:100A000001D3012000E0002003F018FF012070BD99
:100A100084940108F40500200020704700207047EE
:100A2000024910B50880FFF759FF10BD28050020C6
:100A30000A4810B58278018862F31F41C27841EA02
:100A4000026207490A6002790A7142794A71807923
:100A500088710846FFF748FF10BD00006045002080
:100A60006005002000B50346FDF732F943F230017E
:100A700018465DF804EBFDF73FB90000F0B5837848
:100A8000204A03F00F041E0657688188158803F07A
:100A90000F0307EB031304D5491C21F001011D606E
:100AA00011E09D603E2909D91F3121F01F014FF04F
:100AB000FF3505EB411545F4004503E0491C21F0E5
:100AC00001014D02DD6013880B441380C07810F0E3
:100AD000030006D0012807D0022808D003280AD135
:100AE00007E04FF4007106E04FF4806103E000215D
:100AF00001E04FF4C061044A214302EB8400C0F8D6
:100B0000001CF0BD9C04002000500040002802D1D1
:100B10000149D020088070479C04002000F0CABA28
:100B20000949CA1350B101200860002008600B1D5C
:100B300018604FF4E0500860044803E003200860A8
:100B40000248001D02607047405C004010080140F0
:100B500010B50B4C0B49A0880A78904200D8024689
:100B60001AB907490020143908718020216801F062
:100B7000D7FE216801442160A188081AA08010BD19
:100B80007C050020AB99010810B5064C0020A28816
:100B9000216801F0FBFA216801442160A188081A4C
:100BA000A08010BD7C05002070470021FDF7A4B88F
:100BB00043F22001FDF7A0B82DE9F0476F4C07463E
:100BC00080074FF00009A4F10805A4F11C0623D505
:100BD00001F070FE2078C009FFF7E6FFE088A880EA
:100BE0002078C0F3411121B101295CD0022971D1D3
:100BF00067E06178DFF888810C296BD2DFE801F0CB
:100C0000060D6A156A1A296A2D333A4801F0EAFB83
:100C100021E000BFFFF79CFF68E0002006E000BF76
:100C200001F058FED8F8000039E0012001F018FC6E
:100C3000C0B3F5E710F01F0F4CD1A078012140F0B0
:100C40008000307000F07F0001F026FE01F042FECF
:100C50004CE001F0C7FA28B3DCE710F01F0F39D1E0
:100C600046481B3812E001F04BFCD8B101F032FECF
:100C7000444813E000F01F0001282BD1707888B1A0
:100C80002079B178884225D23F4908442860C1E7DD
:100C900001F000FD30B101F01DFE3C48006828B3B2
:100CA000804723E016E010F01F0013D0012811D177
:100CB00000F004F9D0B900F05DF9B8B900F0AEF871
:100CC00007E010F01F0F05D100F082F970B900F0B5
:100CD000C3F958B92078000603D4E08808B1002091
:100CE00000E0802001F0E2FDA5F80490780721D50E
:100CF000207800061CD4A888E0B1FFF745FFA8883B
:100D0000C0B92078C0F3411161B101290AD110F0B6
:100D10001F0007D0012805D100F062F850B900F09B
:100D200037F838B9802001F0C1FDA5F8049001E042
:100D300001F0D6FD380712D52078000606D5A88820
:100D4000317908430BD0FFF703FF08E03078010644
:100D500005D500F07F003070002101F09DFD780680
:100D600002D50020FFF77EFE380604D5BDE8F04727
:100D70008020FFF777BEBDE8F087000084050020E3
:100D8000349A01082C9A01088B040020309A01083B
:100D900010B51048104A01791278914203D00F4AD9
:100DA0001278914214D1417821B1022905D020292D
:100DB0000ED10AE0FFF730FE02E04088FFF72EFE7A
:100DC00030B101F087FD012010BDFFF731FEF7E7DC
:100DD000002010BD84050020FC020020FD02002040
:100DE00010B50B480B4A01791278914203D00A4A98
:100DF0001278914209D14078092806D100F008FB09
:100E000018B101F067FD012010BD002010BD0000E9
:100E100084050020000300200203002070B5224951
:100E2000224A08791278904203D0214A12789042DF
:100E300038D11D4849781F4C1F4D408804291FD0C8
:100E400007DC79B101290FD002290BD0032929D160
:100E500011E0202906D021291AD022291BD02329CC
:100E600020D11BE02C6011E0FFF7DCFC05E02C60DA
:100E7000FFF76EFE0AE0FFF7D3FC0028F7D111E080
:100E8000FFF7A5FB0CE000BF01F024FD012070BDC1
:100E9000FFF7CAFCF1E7FFF7C3FD01E0FFF79AFD9A
:100EA0000028F1D1002070BD84050020FC02002044
:100EB000FD020020604500207C0500202DE9F04166
:100EC000244C254920790978884203D023490978A0
:100ED00088423DD16078224D224E234F0C2837D2D4
:100EE000DFE800F03606212D363636363616243247
:100EF00000F0AEF960B3E078012802D0032803D0F7
:100F000003E01A48286000E02E60FFF721FE13E09E
:100F1000E078022802D0032803D00DE014482860AE
:100F20000AE02E6008E000F07BF90AE000F04AFADF
:100F30000CE000BF01F0CEFC0120BDE8F08100F024
:100F40007DF928B12F60E0E700F058FA0028F1D1D0
:100F50000020F2E7840500200003002002030020A7
:100F60007C0500209804002060450020A145002059
:100F7000E245002010B51248124A017912789142D8
:100F80001CD1014642784888C988FE2A09D0FF2A28
:100F900014D198B991B901F049F878B101F09AFCEF
:100FA0000AE058B9012909D100F058FD30B10749CC
:100FB00005480860FFF7CCFD012010BD002010BDE2
:100FC0008405002001030020604500207C050020EE
:100FD00070B51B4D1B4900266878097888422CD1D2
:100FE000A888022829D1184CA97811B3002003E061
:100FF000227802B11444401C421C9142F8D8207857
:10100000B0B103F0EDF90146E01CFBF77AFA0F49A5
:1010100001260C602078EA8882420BD988800C492E
:101020000978491E084206D10A490120087002E0E9
:10103000002602E08A80FFF78BFD304670BD00007D
:1010400084050020CC990108580400207C0500206C
:10105000AB9901086C05002010B5104A1049002416
:1010600050780978884217D19088072814D10E4803
:101070000C49012401600989D2888A4209D98180FA
:101080000A480078401E014204D109490120087035
:1010900000E08280FFF75CFD204610BD8405002043
:1010A000CD990108080300207C050020AB990108B8
:1010B0006C050020074800214170C1600161416159
:1010C000418081808161C161C18001810162418172
:1010D000704700008C0500202DE9F047494CA0889E
:1010E00061884A4DDFF820816F1C0026884216D3A4
:1010F000A069A0B96661A680012329786A1C1846F8
:1011000007F018F96080608848B1656198F80000C0
:10111000012801D8676102E06088401C6080608817
:101120004FF00109B0BBE06808B1E66032E0206929
:1011300080B398F8001001290DD82E70A6800223E4
:101140006A1C0021012007F0F5F86080608800B17A
:10115000676126611EE02F78C846202F00D3002744
:1011600008FA07F1014218D0781CC1B22970A68094
:1011700002236A1C012007F0DDF86080608818B146
:1011800065616088401C6080206908FA07F820EAE1
:1011900008002061608830B902E07F1CFFB2DCE704
:1011A000A069002829D06088A188DFF86880401AEB
:1011B00085B2174F98F8000037F81000A84200D207
:1011C00005461548007828B140F080002A4661693C
:1011D00001F0A6FB6069114928446061A088284499
:1011E00080B2A0800988884209D298F8000037F8B8
:1011F0001000A84203D1C4F81890BDE8F087A6619A
:10120000FBE700008C050020B6990108A0450020EE
:10121000B29901086B050020AC990108B899010842
:10122000034804498078085C03490870012070472E
:1012300084050020960400206045002010B507F0CA
:1012400077F802490870012010BD000060450020B9
:101250000B4910B5C8780022012804D0022804D018
:10126000032806D103E0074A02E0002010BD064A29
:10127000521C8978002307F05DF8012010BD0000A2
:1012800084050020A0450020970400202DE9F05F90
:101290004348007800287DD0424804230025027886
:1012A000A946511C017040490C7804EB440B03FA29
:1012B0000BF35B1E9A4202DB80F8009001253B494C
:1012C00000220B88FF2B01D25B1C0B80384B374967
:1012D00033F814A009888A4500D10122354B86468F
:1012E000002100699EF8006093F800C03FE00027ED
:1012F00065B1314B5C5CFF2C01D2641C5C542F4CFB
:10130000645C1CB15B5CA34200D301272B4B4FF004
:10131000020808FA0BF85B5C03FA08F4544502DA99
:101320000BB1012400E0002432B12CB14FF00108D0
:1013300008FA01F848EA0000DFF8848018F8018014
:1013400043450AD01C4B5B5C434503D301238B40D0
:1013500018430026194B03F8018037B114B9012353
:101360008B401843144B03F80190491CC9B26145E6
:10137000BDD3CEF8100071468EF8006012B10B4A52
:10138000A2F80090002808D04888002805D1BDE8C0
:10139000F05F00E001E0FFF79FBEBDE8F09F0000B6
:1013A000690500208C0500206B05002092040020B8
:1013B000AE990108B6990108940400209504002014
:1013C00096040020094809498078C97810B1084A74
:1013D000815409E0084A0020064B127802E01954B3
:1013E000401CC0B29042FAD301207047840500200F
:1013F0009504002096040020B6990108034810B512
:10140000807807F027F8012010BD00008405002037
:101410000C4908B5C8780022012804D0022804D05D
:10142000032806D103E0002008BD074A00E0074A70
:10143000521C00230093CB88897807F00DF8012017
:1014400008BD000084050020E1450020970400202D
:101450002DE9F041EFF3108072B6354D00212C6973
:1014600080F310882961600507D501F0ABF907F01A
:101470009DF83048006800B18047200505D501F08F
:1014800039FA2D48006800B18047E00405D501F025
:101490003DFA2A48006800B18047A00503D52848D6
:1014A000006800B18047274E600403D5316809B158
:1014B00002208847DFF89080A00426D5316821B348
:1014C000012021E0EFF3108072B620490B2351F880
:1014D0002210521CB2FBF3F603FB162280F3108895
:1014E0000F0C8EB2AA60380604D558F8261009B140
:1014F00008208847380408D558F8261029B138053F
:1015000001D5022000E00420884720040DD5EFF328
:10151000108072B6D5E902218A4201D1012100E092
:10152000002180F310880029CCD0BDE8F0810000B4
:101530009C040020D8990108DC990108E099010871
:10154000E4990108E8990108EC9901082447002072
:101550000A4810B541680A4A114041604168094A89
:1015600011434160C16941F40001C161142001F0DF
:101570005FFA05494FF40040086010BD00100240BA
:10158000FFFF3F7F000080801408014070B500F02D
:1015900005F900281CD00F4802220F4D027042703E
:1015A0000E4C03202A632870A068022803D9A4F1F6
:1015B0001F008260A2600A480649007840F080005F
:1015C00001F0AEF9A068296B401AA06001202073D9
:1015D00070BD000022460020B0050020B34D002061
:1015E000BA990108114810B50178022908D00329D9
:1015F00010D0042912D0052901D10021017010BD9D
:101600000B48C07B282801D0A828F8D1BDE810409D
:1016100000F068BABDE8104000F040BD0548007811
:1016200040F0800000F052FDF4E70000B00500201B
:10163000944D0020BA990108204910B50A786AB380
:10164000012A0ED01E48052A00781BD0072A2BD06D
:1016500000F03CFD1B4902200873BDE8104000F07B
:101660001DBD18481F38C07B2A2803D02F2805D05D
:10167000AA2822D1BDE8104000F008BBBDE8104008
:1016800000F09ABA012181400F480068014201D060
:10169000012000E0002040F23F4200E009E0BDE808
:1016A00010400AA101F07EBA00200870086B1F28C4
:1016B00003D1BDE8104000F0D5B810BDB005002042
:1016C000BB990108B34D0020740500202E2E5C2E1E
:1016D0002E5C2E2E5C736F757263655C7573625C35
:1016E0006D73635C757362645F6D73632E6300007A
:1016F000104810B54168C16009B1012010BD0E4904
:1017000001F11F048A687AB1097B090604D50B48E8
:10171000007840F0800005E0A168006B814203D0B2
:101720000748007800F0D2FC0120207300F0B6FCDE
:10173000002010BDB0050020944D0020BA9901088A
:10174000BB9901081048007900F08F02100605D5FA
:1017500002F00F004FF48031814001E001219140FF
:101760000A48007840F0800090420CD1084A126884
:101770000A4208D00749084A0968914203D10D225C
:10178000044901F0CDB8704784050020BA990108DA
:1017900074050020B34D00205553425370B50A48DC
:1017A000022400F11F05816831B1007B000608D4D6
:1017B0000648007800F08AFC2C7300F06FFC0020D3
:1017C00070BD012070BD0000944D0020BB99010840
:1017D00010B50E480E4C8068216B884202D82063F9
:1017E000032000E0042020700A480B49226B007897
:1017F00040F0800001F094F80448226B1F308168AB
:10180000891A81600021017310BD0000944D0020F1
:10181000B0050020BA99010822460020064810B5FC
:10182000028807480549007800F0B0FC05490863C4
:10183000BDE81040FFF700BFC09901082246002014
:10184000BB990108B005002010B50446400702D539
:101850000020FFF7E3FF200703D5BDE81040FFF7A6
:10186000C1BE10BD2DE9F047754E764C316B1F2976
:1018700002D20A46002005E01F220020724B1B5CAA
:101880002354401C9042F9D3714FDFF8C0A14FF0B0
:10189000010838781F2940F080007CD121686D4A0A
:1018A000914278D1674D61681F356960A168A96070
:1018B000617B19B9A17B09B1102902D985F80C8087
:1018C0008CE0E17B4FF002092A293ED022DC1A2964
:1018D00050D00FDC0429F1D006DCE9B30329EDD1A7
:1018E000BDE8F04700F060BB1229E7D1BDE8F04742
:1018F00000F0BCB8232945D007DC1B2936D01E29AF
:10190000DCD1BDE8F04700F0DFB825293ED028291A
:10191000D4D149E09E2943D00FDC5529CED004DC38
:101920002F2956D03529C9D103E05A2926D091292B
:10193000C4D1BDE8F04700F0F9BBA1292AD0A32902
:1019400060D0A82930D0AA29B8D100F079FA0028AF
:1019500006D0207B000600E004E04FD486F800802B
:10196000BDE8F087BDE8F04700F0E8BBBDE8F04710
:1019700000F0C2BBBDE8F04700F03ABABDE8F0475E
:1019800000F00ABABDE8F04700F0D8BABDE8F04769
:1019900000F0ACBA00E038E0BDE8F047FFF7F6BD74
:1019A000BDE8F04700F054BB00F04AFA0028D7D059
:1019B000207B000605D586F80090BDE8F04700F0D2
:1019C00091B89AF8000000BF00F080FB85F80C90F9
:1019D00004E0207C800705D400202873BDE8F04790
:1019E00000F05CBB00F02CFA0028B9D0207B000688
:1019F00004D486F80080C6F82080B1E7387840F03B
:101A00008000E1E700F062FB58E700F05FFB387808
:101A1000114C00F00F014FF480308840216855468A
:101A2000084320609AF8000000F050FB297808FA7B
:101A300001F02168084320600620307090E7000024
:101A4000B0050020944D002022460020BB990108DB
:101A5000BA990108555342437805002002490020F5
:101A600008700120704700006045002010B5FFF7A6
:101A700095FE002820D0114800218022017042707C
:101A800002228270C2702023037141718171C17181
:101A90000B490A680821147814B14454521C00E020
:101AA0004354491CC9B22429F5D3064924200863AC
:101AB000BDE81040FFF78CBE10BD0000224600209C
:101AC00054040020B00500200548C07CC10704482C
:101AD00000F11F0000D00121017300F0DFBA000007
:101AE000944D00202DE9F0412E4C2F4F0026A16986
:101AF000606ADFF8B88088420AD33878002540F061
:101B0000800000F0E3FA88F80C6000F0C7FA08E003
:101B100028492748E56A097830F81100A84200D220
:101B20000546FFF7E5FD00B90025A06A48B375B189
:101B3000A16AE0692A460144387840F0800000F04C
:101B4000EFFEA06A2844A062E06A401BE062D4E98C
:101B50000410A26A4143914203D1A662616A08441B
:101B60006062D8F808104046491BC8F80810002DDC
:101B700005D0E16A002902D1032121700673BDE876
:101B8000F081002DE3D0E16A20690144491EB1FBD8
:101B9000F0F26069824200D90246E169606A06F0AB
:101BA000BDFCC5E7B0050020BA990108B34D00207F
:101BB000BC9901086B0500202DE9F0412F4C002550
:101BC0002F4EA169606A884207D32E4825630078AA
:101BD00000F07CFA357300F061FAFFF789FD20B15F
:101BE000206B08B3A06A10B10FE0256320E0E16A22
:101BF00020690144491EB1FBF0F26069824200D9BC
:101C00000246E169606A06F089FC00201E4BA26A68
:101C1000216B0BE0D4F81CC017181CF8077013F8E0
:101C200000C0674501D0256202E0401C8842F1D324
:101C3000A16A206B0B18A362E16A0A1AE262D4E976
:101C400004714F439F4203D1A562636A19446162E4
:101C5000B168091AB16000280DD012B120780528AA
:101C600009D1206A28B100203073BDE8F04100F0AE
:101C700015BA0120F8E7BDE8F0810000B0050020AA
:101C8000B34D0020BB990108224600202DE9F04108
:101C9000344C0025344FA169606A884207D3334829
:101CA0002563007800F012FA3D7300F0F7F9FFF7B2
:101CB0001FFD00B92563A26A216B23695018984261
:101CC00006D9BDE8F041FE2229A1002000F06ABF3C
:101CD0000020304EE36906E016F800C002EB000E6B
:101CE000401C03F80EC08842F6D3216BA06A08445A
:101CF000A062E26A521AE26209B392B988B121691C
:101D00000844401EB0FBF1F66069864200D90646E1
:101D10003246E169606A06F01BFCA562606A3044E5
:101D20000CE0D4E904125143814208D1E169606AB0
:101D300006F00EFCA5626169606A08446062B968D9
:101D4000206B091AB960002809D0E06A10B1207828
:101D5000052804D13D73BDE8F04100F09FB9BDE80E
:101D6000F0810000B0050020B34D0020BB990108B0
:101D70002E2E5C2E2E5C2E2E5C736F757263655C4E
:101D80007573625C6D73635C757362645F6D7363BE
:101D90002E6300002246002010B5FFF7FFFC00284C
:101DA0001FD0FFF7A5FC00281BD00E4800210622FB
:101DB000017042700C4A8170137ADB01C3700171AB
:101DC00041718171C1710949082010638A68082A2C
:101DD00003D9A1F11F0290608860BDE81040FFF7B1
:101DE000F7BC10BD22460020B0050020B34D0020F6
:101DF00010B5FFF7D3FC00281BD0FFF779FC0028B3
:101E000017D00C480321002201700B4942700B7A55
:101E1000DB018370C2700420086308498A68042AC1
:101E200003D9A1F11F0290608860BDE81040FFF760
:101E3000CFBC10BD22460020B0050020B34D0020CD
:101E400070B5264C264DB4F81100E17C40BA000470
:101E500040EA0120217D08430021C5E90901E17B19
:101E60002F290AD004DC28290BD02A2919D104E013
:101E7000A8290DD0AA2914D106E0FFF739FC0028C3
:101E800029D0E08A40BA0CE0FFF732FC002822D0CB
:101E9000B4F81500E17D40BA000440EA0120217E3B
:101EA000084329690D4E4843E862A16801251F36A1
:101EB00069B1814210D0207B000604D50948007822
:101EC00040F0800001E00848007800F0FFF835732A
:101ED00000F0E4F8002070BD012070BD944D00209A
:101EE000B0050020BA990108BB99010810B5FFF7A9
:101EF00055FC00281CD0FFF7FBFB002818D00D4A2A
:101F00000D489169491E0B0E03700B0C43700B0AB0
:101F10008370C17011690B0E03710B0C43710B0AB6
:101F20008371C17108201063BDE81040FFF750BCF9
:101F300010BD0000B00500202246002010B5FFF7BC
:101F40002DFC002829D0FFF7D3FB002825D013480B
:101F50000021134A0170417081700821C17091699C
:101F60000B0E03710B0C43710B0A8371C1710221BB
:101F7000017211690B0C43720B0A8372C172094919
:101F80000C2010638A680C2A03D9A1F11F0290600B
:101F90008860BDE81040FFF71BBC10BD2246002042
:101FA000B0050020B34D002010B5FFF7F7FB002867
:101FB00035D01B4870211B4A017000214170D46844
:101FC000536833EA040406D006248470282404737A
:101FD0004173D36008E0DBB1134B1B7BE3B10523F6
:101FE0008370202303734173C1700171417181714A
:101FF0000A23C371017241728172C1728173C1730C
:102000000174417412201063BDE81040FFF7E0BB7B
:10201000022383703A23E5E781700173E3E710BD83
:1020200022460020B0050020B34D002004490020C6
:1020300008600449086004490720087001207047BF
:1020400078050020B34D0020B0050020FFF7EEBF5B
:1020500010B5FFF7A3FB002817D00C482022002161
:10206000027041700A4CC177032022632070094836
:102070000649007840F0800000F052FC0648226BD0
:102080008168891A81600121017310BD22460020F8
:10209000B0050020BA990108B34D0020084910B5D9
:1020A0000648086007480D22007840F0800000F0E4
:1020B00037FC05490520087010BD000055534253F8
:1020C000B34D0020BA990108B005002010B50446B0
:1020D00000F0ECFB200605D504F00F004FF4803132
:1020E000814001E00121A1400248026811430160E2
:1020F00010BD0000740500200A4810B5817C00F175
:102100001F0429B101202073BDE81040FFF7C6BFAE
:10211000C07C054900F00100486006F017FA002075
:10212000F1E70000944D0020B00500200249002096
:102130000873FFF7B3BF0000B34D00200F4810B580
:10214000816800F11F0469B1007B000604D50C48CA
:10215000007840F0800001E00A480078FFF7B6FF01
:10216000012004E0FFF7C4FA002805D00020207306
:10217000BDE81040FFF792BF10BD0000944D002055
:10218000BA990108BB9901087047000070B5124B5D
:10219000054600F00F005B68104C03EB00139868D5
:1021A0009B8904EB4000C3F30904944200D9144610
:1021B0000022631C05E000BF30F8046B21F8026BBD
:1021C000521CB2EB530FF7D34FF440512846FBF7A4
:1021D00093FD204670BD00009C040020006000407C
:1021E000FFF7B0BA2DE9FC414E48A0F11C0501787B
:1021F000A0F1080411F01F0102D001296DD179E08E
:10220000494AC77849491378464A494E1C3A062F2D
:10221000D27810D006DC012F09D0022F14D0032F62
:102220007ED141E0072F2AD00F2F79D156E04148C7
:10223000206012205CE0002B72D01AB13E48206072
:102240000A2055E03D48FAE70BB9012A68D002237D
:1022500022B1009673700021827809E000914B70E2
:10226000F9E70098037813B1438818440090491C9B
:102270008A42F6D10098017879B3206037E063B3E1
:10228000072322B100914B700021827809E000966B
:102290007370F9E70098037813B1438818440090ED
:1022A000491C8A42F6D1E5E7254900918178032946
:1022B00001D0002108E002F0DDF80BE0009B1A7865
:1022C0000AB11A440092491C82788A42F6D10098D9
:1022D000017811B1206000780AE021E01948007807
:1022E00000281BD01848009020600178C1B14088B8
:1022F000019005E001A9684600F02AF800280DD0F9
:10230000A1880198814208D9104980B2A08009783B
:10231000491E084201D1012028710120BDE8FC813D
:102320000020FBE784050020A999010898440020BB
:10233000FF0200205C9A01086F9A01086E9A01085A
:10234000AA9A0108AA990108709A0108AB99010894
:1023500070B5194A194B1B4DD678194A1C78212E95
:102360001378154A127902D0222E22D116E0A24209
:1023700001D09A421DD1144A1378144A12780BB92D
:10238000012A16D042B1124A02601046114A128840
:1023900010442860092009E00F4AF5E7A24201D065
:1023A0009A4206D10D4828600D4800880860012037
:1023B00070BD002070BD00008405002000030020D7
:1023C000020300207C050020A99901086B0500206C
:1023D000FF0200200603002098440020389A0108DC
:1023E0005A9A010870B51C481B4D0078A5F10805E4
:1023F00010F01F040AD01848A5F11401174B4A78B1
:102400000079012C06D0022C24D109E0124816389C
:1024100028601DE0F2B1897888421BD2002015E0C7
:1024200000F08F04200605D504F00F064FF480302D
:10243000B04001E00120A0400AB922070AD18A6811
:10244000024207D0C9680142E8D0012018802B6001
:10245000012070BD002070BD840500206045002073
:1024600070B5264A0146A2F11C04107810F01F0333
:102470001046408804D0012B28D0022B26D110E032
:10248000012823D129B100F049FAE08840F0020088
:1024900005E0002000F042FAE08820F00200E08031
:1024A00029E0127902F08F06320605D506F00F02F8
:1024B0004FF48035954001E00125B54062782AB19E
:1024C000320703D0A2682A4200D008B1002070BDB4
:1024D00029B1304600F0EAF9E06828430AE02069B3
:1024E000284208D13046FEF7BDFA3046FFF778FEA5
:1024F000E068A843E060012070BD00008405002072
:102500002DE9F84F5D4F00200090387810F01F0F34
:1025100071D1B8784FF000094FF0010B4FF4803AB9
:10252000A7F11C0600287CD0554801783046C078B9
:1025300009B901285FD008B1524C6EE0524C6CE0F2
:102540006078022805D0042846D0052847D00728FF
:1025500061D16179B87881423CD1707020794C4961
:10256000B0700020494A098803E000BF02F80090DB
:10257000401C8842FAD301254FEA06080BFA05F001
:10258000D8F80810084202D02846FEF70EFBD8F80B
:1025900008100AFA05F0084203D045F08000FEF763
:1025A00004FB6D1C102DE9D34FF00110C8E902099E
:1025B0000120C8F81090FEF7A9FAE0794006B8F8B3
:1025C000060002D540F0010001E020F00100A8F86B
:1025D000060020E060881FE0E07800901BE0009893
:1025E000C8B9A07800F08F05280606D505F00F01C0
:1025F0000AFA01F003E03BE013E00BFA05F0B168E2
:1026000001432046B160FEF739FA2846FEF7D0FABA
:10261000284600F02FF920780444207800288FD134
:1026200022E04D4686F801900124D8464FEA0A0977
:10263000B16808FA04F0084202D02046FEF7B5FA65
:10264000B16809FA04F0084203D044F08000FEF7B4
:10265000ACFA641C102CEBD34FF00110C6E9020554
:1026600000203561FEF752FAB8787178884202D0BE
:102670000020BDE8F88F0120FBE700008405002062
:10268000A9990108FF020020984400208B04002033
:10269000040300202DE9FC5F454E00273D463078BD
:1026A000BB4600F01F00B84601287ED1A6F11C01F0
:1026B0004878002876D03F48BA4602780846C07865
:1026C0000AB9012871D0894608B13B4C66E03B4C01
:1026D00064E06078022805D004280AD0052819D0C3
:1026E000072859D1617999F80100814254D0608856
:1026F00053E0A7783079E5784FF00008B8424BD125
:10270000B078A84248D12E484FF0010A10F807B01F
:10271000C55541E03079B8423ED1A07800F08F0035
:102720000190000605D5019800F00F014FF48030AC
:1027300001E00199012088400090B078A84217D1AB
:10274000D9F80810009A20461143C9F80810D9F8A2
:102750000C109143C9F80C10FEF790F90198FEF7A0
:1027600027FA019800F086F8009948EA010813E07A
:102770005D4511D1009918EA010F0DD1D9F8081063
:10278000009A9143C9F80810D9F80C109143C9F880
:102790000C100198FEF709FA2078044420780028EC
:1027A00097D15046BDE8FC9FFFE70020FAE7000004
:1027B00084050020A9990108FF0200209844002008
:1027C0008B0400204FF0E0224FF480110020C2F86B
:1027D0008011BFF34F8FBFF36F8F1F4908601F49F0
:1027E000096819B14FF400514A0001E000210A467E
:1027F00011431B4A1268002A02D000BF4FF4007236
:1028000041EA020102D04FF4807201E04FF0000271
:1028100041EA0201134A41F41C411160134B124971
:102820004FF050021860486802604FF090028260DA
:102830004FF0D0020A8048F2FF71C1600C494FF49A
:1028400048500860A3F104014FF0800008604FF089
:10285000140000F0EDB80000445C0040E899010865
:10286000E4990108405C00409C040020505C00405A
:10287000005C0040FBF72CBA10B5FEF76DF8BDE820
:102880001040FFF7E3BB10B5FEF700FDFEF768F858
:1028900000F0AFF910BD0000002903D1024940F05B
:1028A00080000860704700004C5C004041F210015D
:1028B000FBF722BA082202490020FFF767BC00009C
:1028C0008405002002484FF40071006902F052B9FB
:1028D0004C00002000221146802000F021B80000AA
:1028E0000248034902780020FFF750BCAB99010869
:1028F000604500200448016841F00801016001685A
:1029000041F0040101607047405C004002480168EA
:1029100021F0080101607047405C004070470000F2
:10292000F0B5154F064600F00F037868144600EB2B
:102930000310124A006802EB40020020651C04E00C
:1029400031F802CB42F804CB401CB0EB550FF7D363
:1029500078680B4900EB0310446001EB8300D0F86A
:10296000000CC0F30110012803D030213046FBF7E2
:10297000C3F92046F0BD00009C0400200060004028
:10298000005000402DE9F047254D2868DFF894807D
:1029900020F01F0200F4FE41D8F810301A43C9435A
:1029A000C8F810202960DFF88090000448F2800702
:1029B00025D427E010F00F0009EB8006D6F8004C74
:1029C00008D1210406D5210504D4D8F8041089893A
:1029D00089051BD064F31F4003F02AFE200406D5AE
:1029E00044EA070040F68F710840C6F8000C200644
:1029F00005D53C4348F60F700440C6F8004C2868E3
:102A00000104D7D4BDE8F047FFF75CBF2106E7D546
:102A1000C4F30E0161F31F4003F00AFEE0E700007B
:102A2000445C00409C04002000500040002070479F
:102A3000002809DB00F01F020121914040098000BD
:102A400000F1E020C0F8001170470000EFF30884A7
:102A500000F00F010D2901D1EFF30984A18B04F1DE
:102A60002005890500D52D1DC10600D4483500F08C
:102A70007FFAEFF3098000F07BFAEFF3088000F0B3
:102A800077FAEFF3148000F073FA284600F070FA3A
:102A9000606900F06DFAA06900F06AFAE06900F080
:102AA00067FA1248006800F063FA1048001F0068D7
:102AB00000F05EFA0D48001D006800F059FA0B485E
:102AC0001030006800F054FA08480830006800F040
:102AD0004FFA06480C30006800F04AFA432204A17D
:102AE000002000F05FF8FDF763FBFEE72CED00E04F
:102AF0002E2E5C2E2E5C2E2E5C736F757263655CC1
:102B00006461706C696E6B5C486172644661756C7F
:102B1000745F48616E646C65722E630010B5002AA4
:102B200006DA22F00042D21D22F00703102203E051
:102B3000D21C22F003030C2213B19C188C4201D941
:102B4000012010BD024401448360C0E90021C91A7C
:102B5000D018884202D810600246F9E700201060C1
:102B600010BD000010B5044603F05AFB002805D044
:102B70004FF6FF71DFF808C0206800DF10BD0000CD
:102B8000D15C010810B5044603F04AFB002803D0CD
:102B9000DFF808C0206800DF10BD0000215C0108DC
:102BA000704700002DE9F04115460E46002819D166
:102BB000EFF3108472B600231A461946184600F047
:102BC000F7F9070003D12946304600F04DFA84F3A7
:102BD0001088002F06D100BFEFF30380C00601D19B
:102BE00005F0E0FFBDE8F0817047704700207047B6
:102BF000704770477047704710B528220D490E483E
:102C0000F9F712FD06F090F80C4806F087F805F089
:102C1000B9FE0B490B4A0C4B08604FF40071B0FB36
:102C2000F1F01160094901221A6008600949084859
:102C3000086010BDC4940108B4120020F9350108E1
:102C4000E4050020C0050020C4050020C8050020C0
:102C5000B4100020CC05002000B591B0FDF7BAFCFF
:102C6000402801D9402000E060B181B2684604F0FC
:102C7000E9FF010006D06846FDF7D4FC10B1012041
:102C800001F0BCFD05F0B6F80146402801D940210D
:102C900000E059B16846FDF7A9FC38B181B2684639
:102CA00005F096F810B1012001F0A8FD01F0BEFD7D
:102CB00011B000BD044841788078814201D00120E4
:102CC00070470020704700000801002030B505461D
:102CD000EFF3108472B600F006F8A968081A84F3BE
:102CE0001088401E30BDEFF3108172B6D0E900238A
:102CF000934201D3981A02E080681844801A81F345
:102D000010887047EFF3108372B6C0E902210021EA
:102D1000016083F3108841607047000070B505467C
:102D2000EFF3108472B6D5E90001884201D001208A
:102D300000E0002042220EA1FFF734FFE968286876
:102D40000E5C401C2860A96888420CD302D14FF069
:102D5000010001E04FF000004FF0470204A1FFF72F
:102D600021FF0020286084F31088304670BD0000E9
:102D70002E2E5C2E2E5C2E2E5C736F757263655C3E
:102D80006461706C696E6B5C636972635F627566C7
:102D90002E63000070B50546EFF3108472B6C0686C
:102DA0006A6881546868401C6860A96888420CD3CE
:102DB00002D14FF0010001E04FF000004FF030026F
:102DC00009A1FFF7EFFE00206860D5E90001884205
:102DD00001D0012000E00020352203A1FFF7E2FE30
:102DE00084F3108870BD00002E2E5C2E2E5C2E2EDB
:102DF0005C736F757263655C6461706C696E6B5C4B
:102E0000636972635F6275662E6300002DE9F041AD
:102E100017460D460646FFF766FF874200D3074672
:102E2000002404E03046FFF779FF2855641CBC42BB
:102E3000F8D33846BDE8F0812DE9F04117460D463C
:102E40000646FFF743FF874200D30746002404E00D
:102E5000295D3046FFF79EFF641CBC42F8D338461C
:102E6000BDE8F08110B508494FF4A0542246A1F105
:102E70001000FFF747FF22460449BDE81040A1F1CA
:102E80001000FFF73FBF0000881C00209830002092
:102E900000F0A6BC00F0A4BC02488079002800D055
:102EA000012070478A4D00200248C079002800D0D8
:102EB000012070478A4D00200248407A002800D047
:102EC000012070478A4D00200248007A002800D077
:102ED000012070478A4D00202DE9F0418E212148C4
:102EE000F9F7DCFB204C214F8E2520681D4EB8429F
:102EF00010D1A5888E2D01D22A4601E04FF08E0216
:102F000001D84FF08E0518491648F9F706FB002046
:102F100086F847008E211448F9F7C0FB2760A5808A
:102F200041223546F11DE01DF9F7F7FA35F8480F53
:102F300024F8480FA878A070E878E070820009496A
:102F400009484C314C30F9F7E8FA95F8440084F818
:102F5000440095F8450084F84500BDE8F04100F0D4
:102F6000BFB80000FC4C0020007F0120646C766B31
:102F7000074991F84B20102A01D30020704701EB3C
:102F80008202D06411F84B0F401CC0B20870704729
:102F9000007F012010B5054C4121E01DF9F77EFBB3
:102FA000002024F8480FE07010BD0000007F0120D1
:102FB0002DE9F047184C81461E4617468846E01D0D
:102FC000F9F735FA451CB9F1000002D04146F9F78E
:102FD00065FB002007B1388006B13070E079002829
:102FE00018D0454502D8E11D2A4604E0A5EB0800AB
:102FF00001194246C91DB9F1000F02D0B4F84800CA
:10300000388017B14846F9F788FA16B194F84A00A3
:1030100030700120BDE8F087007F0120014890F862
:103020008C007047007F0120054A92F84B1029B1AF
:1030300002F14C01016092F84B007047002070478C
:10304000007F012002488079002800D001207047CD
:10305000007F0120034890F88D00002800D0012057
:1030600070470000007F01202DE9F04188460646A8
:10307000F9F7DDF9104D441C41273946E81DF9F7F1
:103080000DFB412C02D83146224602E0413CA119F9
:103090003A46E81DF9F741FAA5F8488000F00CF926
:1030A00008B1012003E000F009F900B1022085F821
:1030B0004A00BDE8F0810000007F0120014981F84D
:1030C0008C007047007F0120014988717047000023
:1030D000007F0120014981F88D007047007F0120A9
:1030E00070B5002211461046FBF71FFE1848174D19
:1030F0000168296041686960008928810A211548B2
:1031000000F0FEFD144E134C60B12068B04209D1AE
:10311000A0880A2801D2A28800E00A220D490B48A3
:10312000F9F7FBF90A202E60A8800146094800F053
:10313000E7FD28B12068B04202D1A0880A2804D255
:10314000BDE87040014802F017B870BD8A4D0020FC
:10315000009C010800FC0108646C766B02498871D0
:10316000084602F009B800008A4D00200249C871E3
:10317000084602F001B800008A4D0020024948725A
:10318000084601F0F9BF00008A4D0020024908728C
:10319000084601F0F1BF00008A4D00202DE9F04102
:1031A0000F4606464FF0FF340025DFF83C8012E062
:1031B000705D082102F0F2FA84EA006408204146BA
:1031C000002C02DA81EA440400E06400401E10F0A2
:1031D000FF00F5D16D1CBD42EADB2021204602F044
:1031E000DDFAC043BDE8F081B71DC1042DE9F0410F
:1031F0000E4617462021C04302F0D0FA04460025AF
:10320000DFF83C8012E0705D082102F0C7FA84EA22
:10321000006408204146002C02DA81EA440400E000
:103220006400401E10F0FF00F5D16D1CBD42EADBCA
:103230002021204602F0B2FAC043BDE8F081000030
:10324000B71DC10470B514460D460646B2F5806F31
:1032500007D240F2DD120AA10020FFF7A3FC0220F2
:1032600070BD00F00FFD08B1102070BD2A46214648
:10327000304600F0A1FE0028F7D0202070BD0000ED
:103280002E2E5C2E2E5C2E2E5C736F757263655C29
:103290006461706C696E6B5C647261672D6E2D6425
:1032A000726F705C6961705F666C6173685F696E94
:1032B00074662E63000000000020704701207047F4
:1032C00010B500231A4600F0C3FA002800D00120F0
:1032D00010BD10B505F06CFA012800D0002010BD1B
:1032E0002DE9F041154D144E4FF000642878012867
:1032F00006D040F2371212A10020FFF753FC09E07C
:10330000A878022748B140F23D120DA10020FFF736
:1033100049FC2F700220BDE8F081204600F02CF817
:1033200010B12F702220F6E704F58064B442F4D384
:103330000120A8700020EEE700BC0008DC0000209F
:103340002E2E5C2E2E5C2E2E5C736F757263655C68
:103350006461706C696E6B5C647261672D6E2D6464
:10336000726F705C6961705F666C6173685F696ED3
:1033700074662E630000000070B5214C054620786D
:10338000012805D0FF221FA10020FFF70BFC18E049
:103390004FF48060B5FBF0F100FB1151022611B132
:1033A00040F2071208E0E17869B1D4E90212114451
:1033B000A94208D04FF4877212A10020FFF7F2FB58
:1033C0002670022070BD1D4A1D49954204D38D42CE
:1033D00002D22670212070BD0121E170C4E90250A3
:1033E000284601F099F9262803D00028F3D026704A
:1033F00070BD284600F046FC0028EAD170BD0000F0
:10340000DC0000202E2E5C2E2E5C2E2E5C736F7541
:103410007263655C6461706C696E6B5C6472616739
:103420002D6E2D64726F705C6961705F666C617384
:10343000685F696E74662E630000000000C00008BB
:1034400000FC01084FF480607047000010B5282888
:1034500004D2064951F82000002805D1F72204A122
:103460000020FFF79FFB0AA010BD0000C0930108D9
:103470002E2E5C2E2E5C2E2E5C736F757263655C37
:103480006461706C696E6B5C6572726F722E630042
:10349000000000000121282801D20249095C0846E9
:1034A00070470000010000202DE9F04789460446DE
:1034B000064600E0641C2078402802D00028F9D19C
:1034C00063E06078622847D012DC522853D008DCD1
:1034D000422841D0442848D0482840D04D2817D110
:1034E00018E054283ED0552817D0562810D13FE078
:1034F000722840D006DC642837D068282FD06D2889
:1035000006D107E074282DD0752806D076282FD054
:103510001FA004E000F0A2FF01E000F0A7FF80463A
:103520002046F8F784FF05464046F8F780FF074637
:10353000E019411906EB0902891E914224D2AA1E04
:10354000A11CF9F72FF83A4641462046F8F7E5FF67
:1035500020780028AFD118E000F042FFDFE700F04C
:1035600079FFDCE700F07EFFD9E700F06FFFD6E7D8
:1035700000F084FFD3E7084890F82A0010B106480D
:103580002A30CCE705A0CAE72C44A01BBDE8F08791
:103590004552524F5200000028930108687474701D
:1035A0003A2F2F61697233322E636E002DE9F0439A
:1035B000A3B0884681461E461746802102A82A9D50
:1035C000F9F78EF8002002AC03E02154401C7F285C
:1035D00002D2295C0029F8D180212046FFF764FF40
:1035E000CDE9004033463A464146484605F020F8CA
:1035F00023B0BDE8F08370472DE9F0411E46154623
:103600000C46074605F03EFC2C4890F82010032994
:103610000FD0022C0FD004B3012C0AD10168A942AB
:1036200007D190F82210A9B300214A1E01608260E0
:103630008161BDE8F0810068A842FAD1304605F00A
:1036400087F90446304605F085F90646384603F00A
:10365000C3F803462246314617E0384603F0BCF86B
:103660000328E6D0304605F071F98007E1D43846EA
:1036700003F0B2F80746304605F06AF904463046D2
:1036800005F068F901463B4622462846BDE8F04170
:1036900004F094B928220A490848F8F7C5FF03F056
:1036A000B9FE08488178012903D14178022900D167
:1036B0008170BDE8F04103F0B5BE0000B4120020F7
:1036C000C4940108080100202DE9F0411D4C054675
:1036D000174694F822008846560260B931464046A3
:1036E00003F036F8032802D0294604F011F994F8C3
:1036F000220000280FD06068A8420CD8E068A842D9
:103700000BD008D92069401C00D125612069A8424E
:1037100000D205462561BDE8F081E06932461044DB
:10372000E061E819E06094F8230020B1BDE8F041C1
:10373000002004F093B941462846BDE8F04104F06A
:1037400083B80000B4120020F0B51BA185B0096851
:1037500004910278002104AB5C5C944229D0491C9E
:103760000329F9D315A10022D1E90243D1E900755B
:103770006E46815CCDE90243CDE90075A1F1610C93
:10378000BCF1190F15D9202901D2052911D14FF00B
:10379000000C00BF16F80CE08E450AD00CF1010CAD
:1037A000BCF1100FF6D3521C0B2AE2D3012005B056
:1037B000F0BD0020FBE70000E5002000222A2B2CB2
:1037C0002E2F3A3B3C3D3E3F5B5C5D7C03480069ED
:1037D00008B1012070470020FCE700002893010891
:1037E00070B50D4C0020257875B100212170A178AD
:1037F00009B100F097FB022D05D06178032902D0B2
:10380000002800D1252070BD40F26B1203A10020DA
:10381000FFF7C8F9022070BDAC0000202E2E5C2EF0
:103820002E5C2E2E5C736F757263655C6461706CC8
:10383000696E6B5C647261672D6E2D64726F705C73
:10384000666C6173685F6465636F6465722E6300A4
:1038500070B51C460646302901D3012000E0002047
:10386000472212A1FFF79EF9316A706A1C4D0CB90C
:1038700000222A711B4A90420AD11B48814201D181
:10388000022070BD1848FC3881420CD1012070BD67
:10389000304604F049FF18B11CB90120287100E03E
:1038A0000CB1032070BD002070BD00002E2E5C2ED8
:1038B0002E5C2E2E5C736F757263655C6461706C38
:1038C000696E6B5C647261672D6E2D64726F705CE3
:1038D000666C6173685F6465636F6465722E630014
:1038E000AC000020089996978F9E939B2DE9F05F7E
:1038F0004FF00004DDF828B05FEA030A90468946DD
:103900000746264611D05FEA0B000ED00020CAF809
:1039100000000546CBF80000FFF7CEFC88B1284830
:10392000022F07D0032F05D030E0712241E0054679
:10393000244827E0B8F1000FF9D08145F7D01B24C7
:1039400025E0FFF7BBFC08B3012F02D0032F09D0FD
:103950001CE04FF00060B8F1000FE8D08145E6D0E0
:103960001A2414E01848006980B10C3003E0816823
:10397000012909D0143001680029F8D141680029D3
:10398000F5D11248066802E00568FAE71C24FFF743
:103990008BFA08B9012F03D024B12046BDE8F09F6F
:1039A0001C24FAE726B1CAF80050CBF80060F4E70F
:1039B000B82207A10020FFF7F5F80220EEE700008B
:1039C00000C00008C09401082893010884940108ED
:1039D0002E2E5C2E2E5C2E2E5C736F757263655CD2
:1039E0006461706C696E6B5C647261672D6E2D64CE
:1039F000726F705C666C6173685F6465636F646549
:103A0000722E6300144910B54B78012B04D0022BA1
:103A100004D0032B1ED103E010490FE010490DE044
:103A20000979B9B10F490969A1B10C310CE08342A0
:103A300009D84B68834206D3496859B1104488427B
:103A400008D3012010BD14310B68002BEFD14C6856
:103A5000002CECD1002010BDAC00002000BC000800
:103A600000FC01082893010810B50C4C207830B1F7
:103A7000DA220BA10020FFF795F8022010BDFF22EB
:103A800030211448F8F702FE0120207000206070F9
:103A9000A060E0602061A070E07010BDAC0000206C
:103AA0002E2E5C2E2E5C2E2E5C736F757263655C01
:103AB0006461706C696E6B5C647261672D6E2D64FD
:103AC000726F705C666C6173685F6465636F646578
:103AD000722E63005C0800202DE9F04116460F4667
:103AE00005460024FFF7EAFB50B1032D08D1064834
:103AF000006928B131463846FFF778F800B11D2437
:103B00002046BDE8F0810000289301082DE9FE4F12
:103B100005464D48894617460178012907D0EF220E
:103B20004AA10020FFF73EF80220BDE8FE8FC178D1
:103B30004FF0010A19B9C560056180F803A08046FD
:103B40008078032600286AD1D8F8101040468D42AC
:103B500001D1012200E000223944C8F810104AB314
:103B60008168C1F13004BC4200D93C46444A501837
:103B700022464946F8F7D1FCD8F808003F1B2044FC
:103B8000A1442544C8F80800302822D3444602D175
:103B90004FF0010001E04FF0000040F211122BA1A4
:103BA000FFF700F8D4E9021201233548FFF750FE71
:103BB000607001E088F8016001A8009002AB01226A
:103BC000444698F80100D8F80C10FFF78FFE10BBA0
:103BD00003E098F80200B8B92AE0FFF76DF928B1C0
:103BE00027496078A268FFF777FFA0B9A0784FF463
:103BF0009A7280F0010015A1FEF7D4FF019800F041
:103C000027F940B984F802A044461D49D4E90220AE
:103C100000F086F808B1267087E7A07840B13A46F0
:103C20004946284600F07CF810B188F800607CE72F
:103C30003A4649462846FFF7E5FE0028ECD0022127
:103C400088F80010132070E7AC0000202E2E5C2EA8
:103C50002E5C2E2E5C736F757263655C6461706C94
:103C6000696E6B5C647261672D6E2D64726F705C3F
:103C7000666C6173685F6465636F6465722E630070
:103C80005C08002010B5EFF3108472B6FAF752F812
:103C900084F3108810BD0000FEB5184D07466A7801
:103CA0006C68BA4226D0002672B194F838008007BA
:103CB00000D5F7B90096019602966168002304F1D9
:103CC000180002F025FE38B19FB194F83800800743
:103CD00004D5687810B10CE00C20FEBDCDE900766B
:103CE00002962168002304F11800EA6802F010FE31
:103CF00010B16F700020FEBD0B20FEBD70000020D3
:103D000001444FF40032A0F10060491E904205D2F8
:103D1000A1F10061914201D201207047002070475B
:103D20002DE9F0473B4D06460024687817468A4641
:103D3000012807D07B2238A10020FEF733FF0220A4
:103D4000BDE8F087E8784FF0020858B9304602F035
:103D5000DFFB040003D000BF85F8018058E001209C
:103D6000E8706E61A868B6FBF0F100FB1161721A91
:103D70006969B1FBF0F300FB1310081A824204D00A
:103D8000304600F023F90400E6D12869B6FBF0F1D3
:103D900000FB1161721A6969B1FBF0F300FB1310AB
:103DA000081A824204D0304602F0B2FB0400D3D19C
:103DB000D5E901010844B04204D8304600F006F9C4
:103DC0000400C9D11FB3D5E903010844B04204D8A7
:103DD000304602F09DFB0400BED16868A968301A25
:103DE000091A8F4200D23946894618494A46084482
:103DF0005146F8F792FBB9F1000F06D00020A870E9
:103E00004E44CA44A7EB0907D2E70120F7E76E61E9
:103E1000204695E7C00000202E2E5C2E2E5C2E2E14
:103E20005C736F757263655C6461706C696E6B5C0A
:103E3000647261672D6E2D64726F705C666C617365
:103E4000685F6D616E616765722E63008C0800208B
:103E50002DE9F0411F4C0546607808B1472225E066
:103E6000002615B3686800B3A868F0B1E868E0B14F
:103E70002869D0B16869C0B1A869B0B1E869A0B1DA
:103E80000127FF22B9021448F8F700FCA770E6707A
:103E90006660A660E6602661C4E90565286880471B
:103EA000050008D1207840B111E04D220BA100207F
:103EB000FEF778FE0220BDE8F081A0690069804726
:103EC000050004D0A069406880472846F3E7677082
:103ED000FBE70000C00000208C0800202E2E5C2E86
:103EE0002E5C2E2E5C736F757263655C6461706C02
:103EF000696E6B5C647261672D6E2D64726F705CAD
:103F0000666C6173685F6D616E616765722E6300D8
:103F100010B50446FFF7DEF80148047010BD00003C
:103F2000C000002070B5154C0025607810B1012844
:103F300007D00AE0CC2212A10020FEF733FE0220B7
:103F400070BD002000F042F80546A0694068804737
:103F50000646FF224FF480611648F8F797FB0120D0
:103F6000A0700021E1706160A160E1602161616188
:103F700061700EB1304670BD284670BDC000002093
:103F80002E2E5C2E2E5C2E2E5C736F757263655C1C
:103F90006461706C696E6B5C647261672D6E2D6418
:103FA000726F705C666C6173685F6D616E6167658E
:103FB000722E63008C08002010B5EFF3108472B6E7
:103FC000FBF718FC84F3108810BD000070B50E4C90
:103FD00006460025A07840B9A0690C498368D4E959
:103FE0000102984705460120A070FF220748A168FA
:103FF000F8F74CFBA068B6FBF0F100FB1160301A3B
:104000006060284670BD0000C00000208C080020C1
:104010000748006948B106480069D0F89C0120B102
:1040200003480069D0F89C0170470148001DFBE778
:10403000289301080748006948B106480069B0F8AC
:10404000A00120B103480069B0F8A0017047014801
:104050004088FBE7289301080022034611461046DA
:10406000184700000E4910B509690E4A0C3109E0E5
:10407000834206D84B68834203D30868D06008693E
:1040800010BD14310B68002BF2D14C68002CEFD11D
:1040900090680028F4D00168D160006910BD00006C
:1040A0002893010870000020002070470248006833
:1040B00040F30000401C7047080C01402DE9F0431C
:1040C000594885B0816941F004018161816901F03D
:1040D00004010491816941F008018161816901F065
:1040E00008010491816941F010018161816901F049
:1040F00010010491816941F020018161816901F021
:1041000020010491816941F001018161816901F01F
:104110000101049145494A6822F0E0624A608169E0
:1041200041F00401816180694FF4004600F0040011
:1041300004903F4806600124DFF8F490CDE9006464
:104140000325A9F11409694648460395F9F744FF88
:10415000DFF8E080012204214046FAF71BF8042032
:10416000CDE90004694603954046F9F735FF012281
:10417000D70239464046FAF70DF8CDE90074694692
:1041800040460395F9F728FF012297023946404639
:10419000FAF700F8CDE90074694640460395F9F74F
:1041A0001BFF012211464846F9F7F4FF00946946C7
:1041B000484603950194F9F70FFF01221146404646
:1041C000F9F7E8FF1120CDE9004069464046029426
:1041D000F9F702FF002231464046F9F7DBFFCDE94F
:1041E0000064694640460395F9F7F6FE11494FF021
:1041F000A53034310860081F016841F001010160F9
:104200008015009002200190039569464846F9F711
:10421000E3FE00F057FD08480490401E0490FCD1D6
:1042200005B0BDE8F083000000100240000001402E
:1042300014080140000C014040420F00704700008C
:1042400008B1012200E000224FF480610148F9F733
:10425000A1BF0000000C014008B1012200E00022D3
:1042600040210148F9F796BF000C014008B1012236
:1042700000E0002201210148F9F78CBF000801404D
:1042800010B50E4CE07978B9FFF70EFF48B10C4835
:104290000068C069804700280FD103F08FFA012021
:1042A0000AE0E079002808D0FFF7FEFE002804D1DC
:1042B000022003F083FA0020E07110BD4C000020C2
:1042C000849401082DE9F04385B01E460D4B174636
:1042D00088468146DDE90C510DCB02AC84E80D0027
:1042E000A01C04F07EF90020CDE900548DF81200E6
:1042F00033463A464146484602F0D0FA05B0BDE89A
:10430000F08300008C950108092800D9273030304F
:10431000C0B270471CB501AA69460A48F9F7A3FC68
:10432000002807D00198402805DD312206A1002091
:10433000FEF738FC1CBD40220020009904F036F83E
:104340001CBD0000C04D00202E2E5C2E2E5C2E2E9B
:104350005C736F757263655C7573625C6869645CDD
:10436000757362645F757365725F6869642E63005C
:1043700070B5174C00204BF6FC356060A0604FF024
:104380000066E06029463046FFF7BAFC20B12946B6
:104390003046FEF703FF60600E4D0F4E2946304653
:1043A000FFF7AEFC20B129463046FEF7F7FEA060CD
:1043B0000A4E4FF4806529463046FFF7A1FC0028DD
:1043C00004D029463046FEF7E9FEE06070BD0000EB
:1043D0002C000020FC3B010000C0000800FC01088C
:1043E000004870473C00002010B50C210948FFF739
:1043F00087FC00280AD04FF00060074A016A91420A
:1044000003D1406A0549884201D0002010BD012037
:1044100010BD000020000008939D939B089996977B
:1044200010B5FFF7E1FF002802D04FF00060806A6E
:1044300010BD000001484068704700002C000020BB
:1044400001488068704700002C0000200048704739
:10445000E806002000487047A60600200048704784
:104460009906002000487047C706002000487047A2
:104470006806002000487047F10600200048704799
:104480004600002070B5FFF773FF204801F00AF9DD
:1044900001F0B6FF1D4831212030F8F721F91B4803
:1044A0001B492030F8F72DF819491848491D2030CC
:1044B000F8F727F815495E31A1F13E00F8F721F829
:1044C0001249A031A1F18000F8F71BF80F48002431
:1044D0002030F7F7ACFFC2B2022000EB42010B48DC
:1044E000A930A0F189050170032141700221002348
:1044F00008E02E5D4654491CC9B24354491C641C53
:10450000C9B2E4B29442F4D370BD00004806002062
:104510003C00002010B5124C207830B1622211A16D
:104520000020FEF73FFB022010BD0022114610467E
:10453000FAF7FBFB08B11E2010BD00206070A070D0
:10454000E070A060E060207120616061A0614FF4C4
:1045500080611248F8F7A2F801202070002010BDF9
:10456000DC0000202E2E5C2E2E5C2E2E5C736F75D0
:104570007263655C6461706C696E6B5C64726167C8
:104580002D6E2D64726F705C6961705F666C617313
:10459000685F696E74662E63000000008C0C00205A
:1045A00070B50E4D2868002816D10024FFF742FD93
:1045B0000B4A08E029B10988814202D152F824004F
:1045C00009E0641CE4B252F824104B1CF2D12868B4
:1045D000002801D10348286070BD0000DC040020E1
:1045E000E00400200C9C010810B5002305E0DC006D
:1045F00021FA04F4C4545B1CDBB29342F7D310BD20
:104600002DE9F047DFF8CC808A46044698F8001080
:104610002F4E17464FF00060012908D040F2791262
:104620002DA10020FEF7BEFA0220BDE8F0878146EA
:104630004C4501D3B44201D32320F6E7FEF73EFEFA
:10464000A8B3351B281FB84201D93A4600E02A1FFB
:104650005146D8F81800FEF7C9FD2D49C8F81800D2
:104660008C4209D22B48A4F1006420443A465146BA
:10467000F7F753FF0020D8E7E119B14225D10AEB43
:104680000501454611F8023C31F8042DC97863F361
:104690001F4242EA0161884201D02720C5E7524605
:1046A00039462046FFF788FC10B12020BDE70CE01A
:1046B0004FF4806217494846FEF7C4FD0446FFF7F1
:1046C00057FE012068702046AFE72620ADE70000C6
:1046D00000BC0008DC0000202E2E5C2E2E5C2E2E4E
:1046E0005C736F757263655C6461706C696E6B5C42
:1046F000647261672D6E2D64726F705C6961705FAA
:10470000666C6173685F696E74662E6300000000FA
:10471000000400088C0C002070B5134904461148B1
:1047200009784FF00065012907D040F2BB120FA1B4
:104730000020FEF737FA022070BDAC4201D384425C
:1047400001D3232070BDFEF7B9FD48B1284684424D
:1047500006D1BDE870404FF480621249FEF772BD89
:10476000262070BD00BC0008DC0000202E2E5C2E30
:104770002E5C2E2E5C736F757263655C6461706C69
:10478000696E6B5C647261672D6E2D64726F705C14
:104790006961705F666C6173685F696E74662E63D1
:1047A0000000000000C000080A460146074810B596
:1047B00000EB820050F8040C002805D001F006FB45
:1047C000BDE8104001F0F2BA10BD0000EC4C002032
:1047D00008490748086001F02BFD00F0A9F9002204
:1047E0001146054800F0EEF900F0A8F9FEE70000D8
:1047F00000C0000808ED00E04D4801080249012210
:104800004A700871704700004C00002002490122E4
:104810000A70C870704700004C0000200249012255
:104820008A704871704700004C00002002484FF425
:104830000061006900F09EB94C000020024804218C
:10484000006900F097B900004C0000204FF0000A0A
:10485000D046D1461626FEF73FFB00F0ADF9914D4C
:104860002861FFF72BFC5046FFF7F6FC4046FFF7A8
:10487000E7FC4846FFF7FAFCF9F756F98A4C20881E
:10488000012800D000204FF4957288A1FEF78AF924
:10489000E06E00B18047FFF783FE9148006810B1D9
:1048A000C06800B18047207B800702D5012002F05C
:1048B00043FA207BC00702D00120FFF729FBFFF756
:1048C000E1FDFEF798F903F005FEFEF7A7FB0028CF
:1048D0005AD0002004F054F9002003F027FD0120F5
:1048E0002872002301460B271A467E4800F090F9F3
:1048F000032100F095F94FF0000B00BF4FF0FF329D
:10490000002140F63F2000F049F984B2A00506D509
:10491000A87910B1012000F0FDF8FCF799FD6007BF
:1049200002D5022002F04AFFE00613D5032002F070
:1049300045FF0020FFF782FC002003F0F7FC002079
:10494000FFF78AFC0020FFF77BFC0020FFF78EFCBE
:10495000FEF74EF9A00602D5032002F02FFF200536
:1049600001D5FEF779F9200701D5FEF73EF9E007FA
:1049700038D05A2004F030F9287A062832D2DFE8FD
:1049800000F0270E271731050120A3E785F808B0AE
:104990000020FFF753FC002003F0C8FC22E00FB119
:1049A0007F1E1FD1012003F0C1FC0320287218E0F4
:1049B00003F0B4FC18B10120FFF740FC0BE00EB18E
:1049C000761E0FD10120FFF739FC85F808B009E009
:1049D00003F0A4FC10B10220287203E085F808B0AF
:1049E0000B271626A00789D5FFF74AFCFEF7FCF82F
:1049F000287858B1E878012827D0022825D04FF030
:104A0000000A85F800B05046FFF726FCA87858B198
:104A10006879012828D0022826D04FF0000985F8AF
:104A200002B04846FFF722FC687800283FF466AFE2
:104A30002879012827D0022825D04FF0000885F8D2
:104A400001B04046FFF7FCFB58E7BAF1010F02D076
:104A50004FF0010AD7E74FF0000A0128D3D185F8BB
:104A600000B085F803B0CEE7B9F1010F02D04FF0E6
:104A70000109D6E74FF000090128D2D185F802B02C
:104A800085F805B0CDE7B8F1010F02D04FF001086D
:104A9000D7E74FF000080128D3D185F801B085F899
:104AA00004B0CEE74C000020289301082E2E5C2E87
:104AB0002E5C2E2E5C736F757263655C6461706C26
:104AC000696E6B5C696E746572666163655C6D616D
:104AD000696E5F696E746572666163652E6300005E
:104AE000DC04002015780108014988717047000036
:104AF0004C000020FEF7B8BF10B5044640F201118B
:104B0000F7F7CCFD00F062FE00202070BDE81040F9
:104B1000FEF7AABF80B2DFF808C000DF00207047B0
:104B200039590108DFF804C000DF70472D61010822
:104B30000149002008607047B00400200020704741
:104B400089B2DFF808C000DF00207047D15C01089F
:104B50000248DFF80CC000DF00487047F84A002028
:104B6000115C0108DFF808C000DF0020704700007A
:104B7000215C010810B50C464FEA0001EFF30380F9
:104B8000C006A0B202D0FFF70FFE02E0DFF808C0B7
:104B900000DF204610BD00009959010891B280B293
:104BA0000022DFF80CC000DFDFF808C000DF70472C
:104BB000F959010841590108DFF804C000DF7047C6
:104BC0002162010870B50D4D06460024286860B1C9
:104BD00000231A460B213046DFF824C000DF0446CC
:104BE0002868401C2860204670BDF7F7F7FA054A90
:104BF00005493046DFF814C000DFF1E7B0040020BB
:104C0000A5610108504700200A200300995F0108B0
:104C1000024A00215060084670470000B00400209E
:104C200005480023054A816048F60B010448DFF877
:104C300014C000DF00207047B0040020704A00203C
:104C400039610108A5610108012805D0022805D0B5
:104C500003280BD0C72202E0BB2200E0BF2204A140
:104C60000020FDF79FFFFBF7A3FAFEE7C322F6E75C
:104C70002E2E5C2E2E5C2E2E5C736F757263655C1F
:104C800072746F735C5254585F436F6E6669672E1F
:104C900063000000FEE70000074801684FF0E020D5
:104CA000416100218161072101610448016841F0EF
:104CB0007F41016040177047E49B010820ED00E050
:104CC0007047704770B590B00EA909A8F9F7BAFB04
:104CD0000D98B0F5005F05D0B0F5205F23D0B0F59A
:104CE000405F22D001202549274C00250968B1FBEF
:104CF000F0F02349B0FBF1F62248C4E90005761E26
:104D0000C4E903652148A5606561816941F40061DA
:104D10008161806900F4006008902046F9F763FF24
:104D200028B1522223E00220DDE70420DBE7164809
:104D3000F9F775FF08B1582219E07020CDE9010597
:104D40000395049505950695002201A90E4807953F
:104D5000F9F7E1FE08B1652209E0216870084863AF
:104D600000210948F9F778FF002804D06C2208A137
:104D70000020FDF717FF10B070BD0000E802002012
:104D800000127A00002C0140E01B002000100240BD
:104D90002E2E5C2E2E5C2E2E5C736F757263655CFE
:104DA0006869635F68616C5C73746D33325C7374E3
:104DB0006D33326631303378625C6770696F2E63B1
:104DC000000000002DE9FF5F8846DDE90FA50446DD
:104DD00000EB08060020DDF838B0286092489146C4
:104DE000007930B120783A2840F0BA808E4900200E
:104DF00008718D488D4FC078C8B18B490020C870AC
:104E00003A78391D0398F7F788FB387803990144FD
:104E100003912968084428608348C168B7F80100F5
:104E20006FF30F010843397801447F48C160B442F1
:104E300018BF7D4F7ED020780A2818BF0D287AD061
:104E40003A282AD03978002900F0DF8010F0100FBE
:104E500000F00F0008BF093000F00F0273487978A6
:104E6000435C1A434254491CC9B2797090F800E07F
:104E70000EF1050081426DD300216C4B08461EF1F6
:104E8000050213D013F800C0401C6144C0B2C9B27F
:104E90008242F7D851B1042763E025216348F7F730
:104EA000FDFB002038707870B87055E0B8780028A5
:104EB0004DD15E4B0120B870B3F8010040BAA3F8A1
:104EC0000100D97804297DD005DC69B1012962D0BF
:104ED000022962D03BE00A2902D00D2904D036E035
:104EE000988840BAF88032E0F98839B1504A12887F
:104EF000914203D04F4A1288914248D1F9680A463C
:104F00006FF30F021043884204D00120F87002278B
:104F1000641C26E00020F870724647490398F7F7B2
:104F2000FCFA424801780398084403902868084432
:104F3000286001E014E00FE03C49F868B1F8011086
:104F40006FF30F000143394800780844F86038785F
:104F5000002866D000203870641CB4427FF46BAF28
:104F600000272868FF22ABEB00010398F7F78EFBC0
:104F70002D482968C068401ACAF80000301BA8EB09
:104F80000000C9F8000004B03846BDE8F09F0120D9
:104F900038710027E5E70127E3E72868FF22ABEB3C
:104FA00000010398F7F772FB2868F968081ACAF835
:104FB0000000301BA8EB0000C9F800001B48017975
:104FC000090300E007E0407941EA0010F86004B00E
:104FD0000220BDE8F09F2868FF22ABEB0001039898
:104FE000F7F754FB2868F968081ACAF80000301B64
:104FF000A8EB0000C9F800000C48808840BA000403
:10500000F86004B00220BDE8F09F7978252908D225
:1050100010F0100F00F00F0008BF09300001034A24
:105020005054012097E70000F80000208C10002069
:1050300002010020000100209010002070B5012A1C
:1050400012D0022A10D0002301248C400F268D009C
:10505000082911D3203D4168AE40B1434160416809
:10506000AB400B4343600FE00823EDE7046170BDE4
:10507000022AFCD1446170BD0168AE40B1430160B9
:105080000168AB400B430360012AF1D1EEE770B534
:10509000012A12D0022A10D0002301248C400F26AE
:1050A0008D00082911D3203D4168AE40B1434160D5
:1050B0004168AB400B4343600FE00823EDE7046118
:1050C00070BD022AFCD1446170BD0168AE40B1439D
:1050D00001600168AB400B430360012AF1D1EEE7A8
:1050E00010B50F2403238A00082909D3203A416808
:1050F0009440A1434160416893400B43436010BD1D
:1051000001689440A1430160016893401943016024
:1051100010BD10B50F2403238A00082909D3203AB3
:1051200041689440A1434160416893400B43436010
:1051300010BD01689440A143016001689340194388
:10514000016010BD10B50F2407238A00082909D378
:10515000203A41689440A1434160416893400B4329
:10516000436010BD01689440A14301600168934011
:105170001943016010BD00007FB50C4C0546204668
:10518000FEF780FD002810D1FF2210216846F7F7B6
:105190007DFA28680090686801902889ADF80800B9
:1051A0006A4610212046FEF707FF7FBD00FC01087C
:1051B0002DE9F05FDFF800810446DFF8F89098F8F9
:1051C000000016468B46012805D0A2223BA10020F4
:1051D000FDF7E8FC3EE04FF48060B4FBF0F100FB2B
:1051E0001141022509B1AB222EE001468E4204D3C3
:1051F000B6FBF1F300FB13620AB1B22224E0B4FB68
:10520000F0F200FB12403044884201D9B9221BE081
:1052100098F8020078B998F8030050B1D8F808005F
:10522000844204D3D8F80C100844A04203D8C72203
:105230000AE0C12208E098F8040070B1D8E904013E
:105240000844A04209D0CF221CA10020FDF7AAFCEF
:1052500088F800500220BDE8F09F2649A7190120D8
:105260008C4207D224498F4204D900BF88F80050ED
:105270002020F0E7824688F804A0C8E904463246B8
:1052800059462046FFF7BCF9262804D00028E2D072
:1052900088F80050DFE75A4631462046FEF78CFE7C
:1052A0000028E3D14F4503D3FFF762F888F801A047
:1052B0000020D0E700BC0008DC0000202E2E5C2E71
:1052C0002E5C2E2E5C736F757263655C6461706C0E
:1052D000696E6B5C647261672D6E2D64726F705CB9
:1052E0006961705F666C6173685F696E74662E6376
:1052F0000000000000FC010800C000084FF48060BE
:105300007047000070B514460E46054620444FF421
:105310008061B1EB402F07D240F263220AA1002046
:10532000FDF740FC002070BD4FF400713046F7F7E8
:10533000B5F935B911481249006942013046F7F70D
:10534000ECF8600270BD00002E2E5C2E2E5C2E2E1E
:105350005C736F757263655C6461706C696E6B5CC5
:10536000647261672D6E2D64726F705C7669727401
:1053700075616C5F66732E630000000020010020E1
:10538000E017002010B50B464FF4007408B1002060
:1053900010BD224602491846F7F7BFF8204610BD57
:1053A000201500202DE9F04F8A46410287B00023E6
:1053B000CDE902134FEA422B1D4630B1BAF1000F7E
:1053C00003D0002007B0BDE8F08F344F38780128B3
:1053D00042D0022842D0002631A0009059465046C3
:1053E000029A03F049F90446304931A0CDE90001A1
:1053F000234659465046029A01F050FA04447988EF
:105400002DA0CDE90001234659465046029A02F0EC
:10541000F7FC04444EB12AA0CDE9000623465946C4
:105420005046029A01F03AFA044403A8FDF7FCFD45
:10543000060031D0039878B323A000902346594644
:105440005046029A03F018F904440DF110084FF089
:105450000A094FF4007719E01EA6BDE720A6BBE7B6
:1054600022A204AB07CA83E80700039850F825106E
:105470006D1CEDB204A803F0B4F82346CDE9008911
:1054800059465046029A03F0D3F80444B54203D279
:1054900004F10A00B842E3D3204693E71801002044
:1054A0004173736572740D0A00000000DC12002065
:1054B00046696C65000000004C696E6500000000E4
:1054C000536F75726365000048657864756D70731D
:1054D0000D0A0000426F6F746C6F616465720000AA
:1054E0004170706C69636174696F6E000000000048
:1054F000000000000D0A00000B4640025102024667
:10550000184602F0D1BC00002DE9FE4F04464002CF
:105510008A464FEA422B0027029003F055FB0546CE
:10552000FDF794FF06462846FDF7B4FF05462CB16B
:10553000BAF1000F02D00020BDE8FE8F21A0CDE916
:1055400000063B4659465046029A01F0A7F9044628
:105550001EA00090234659465046029A03F08CF84C
:105560000026044401274FF00208FDB1DFF86490E3
:105570000AE04FB918A1CDE9001823465946504614
:10558000029A03F055F80444E8070AD059F82600B7
:105590000090234659465046029A03F06DF80444A1
:1055A0000027761C6D0801D0052EE2D30BA1CDE9B2
:1055B0000018234659465046029A03F039F8204411
:1055C000BAE700006572726F72000000747970654E
:1055D0003A200000789501082C2000000D0A0000F8
:1055E000F8B5470256020D46002310B10DB1002058
:1055F000F8BD0D4800903A463146284603F03CF885
:1056000004460AA0009023463A4631462846FDF754
:10561000CDFF044406A0009023463A463146284672
:1056200003F02AF82044F8BD24A8010840520000E5
:1056300022293B0D0A3C2F7363726970743E0D0A78
:105640003C2F626F64793E0D0A3C2F68746D6C3E8E
:105650000D0A00002DE9F041094D07460E46284687
:10566000F6F7E5FE044646B117B10020BDE8F0812B
:10567000024629463046F6F750FF2046F6E700007E
:105680004CA7010810B50B464FF4007408B1002078
:1056900010BD224602491846F6F73FFF204610BDCE
:1056A0002013002006490B68091D0A68091D0968B6
:1056B0000360C0E901214FF0A531C16070470000CF
:1056C000E8F7FF1F10B5084654022146F6F7E6FF3B
:1056D000204610BD70B5224D6878A978884201D067
:1056E000012000E0002040F2F9121EA1FDF75AFA55
:1056F0006878022803D0C8B101281BD01EE02648D4
:105700004FF4FA7490F82000002821D001280AD024
:1057100002281DD003281BD040F20B2211A100202B
:10572000FDF740FA14E044F6206411E0A87802285E
:105730000AD003E0A878022808D028B140F21B2242
:1057400008A10020FDF72EFA002401E040F6C41461
:10575000A868A04201D9012070BD002070BD0000E2
:10576000080100202E2E5C2E2E5C2E2E5C736F7591
:105770007263655C6461706C696E6B5C64726167B6
:105780002D6E2D64726F705C7666735F6D616E61F5
:105790006765722E63000000B412002030B5034626
:1057A000202903D00020024601240CE090FAA0F04A
:1057B00030BDDD0704D08D1A6D1E04FA05F52843AF
:1057C0005B08521CD2B28A42F3D330BD10B52521FA
:1057D0000648F6F763FF06480021C160017041707A
:1057E0008170C170C180017110BD00008C1000205B
:1057F000F800002070B505460E460846F6F717FE7D
:10580000401C3C2801D93C2003E03046F6F70FFE4F
:10581000401C0446024631462846F6F77EFE00202C
:1058200085F83B00E0B270BD0146EFF3108000F058
:10583000010272B6086808B103680B60002A00D143
:1058400062B6704770B50D46002812D04FF6FF7152
:10585000084C884204D222680146104600F0D8FA6B
:1058600020684570044800F0F8F8BDE8704000F08A
:105870008BBB70BDC4040020044B002070470000A7
:1058800070B51A4DE86800282ED0A88A401EA8825C
:10589000002623E0A06838B161684160606810B1FB
:1058A000A16881606660A66010482146183800F043
:1058B000D3FAA08AA8826078042804D10C49E08A2F
:1058C00009880844A0820120607084F82000E06804
:1058D000E860E06808B10561E6602661A88A0028F2
:1058E00002D1EC68002CD5D170BD00001C4B00200B
:1058F000CC04002070B504000FD00D4DA178012616
:105900002868827891420CD900F0C2FA2868467063
:105910002046BDE8704000F037BB064800F09DF817
:10592000F7E766702146BDE87040024800F094BA7F
:10593000C4040020044B00200321FFF783BF0000B4
:1059400001480068408B7047C404002010B504462D
:10595000008B084320836278618B062A16D0052AC3
:1059600017D1084215D001EA0002628388432083E0
:10597000204600F0B1FA01206070022084F8200077
:105980002146BDE81040034800F066BA31EA000243
:10599000ECD010BD044B0020024670B5154800EB5A
:1059A000810050F8044C002C22D0208B104320831F
:1059B0006178658B062918D0052919D1284217D09E
:1059C00005EA00016183A8432083204600F084FAA1
:1059D000208BA843208301206070022084F82000DF
:1059E0002046BDE87040FFF785BF35EA0001EAD0E8
:1059F00070BD0000EC4C002070B503460C480D460D
:105A00000468208B42B133EA000101D0062109E08D
:105A100098432083022070BD10EA030101D0618306
:105A2000F6E7052163832846FFF70CFF012070BDD0
:105A3000C4040020814202D342688A4201D8012076
:105A40007047EFF3108212F0010F72B603680B601B
:105A5000016000D162B6002070470146406842688C
:105A60004A600B780022022B05D0012B03D0032BB8
:105A700001D04260704743680BB199604260826018
:105A80007047000070B504460020154620700122C2
:105A90006270A1706060A060E0602061A082E0821E
:105AA0002083608384F8200084F82100608C18B97A
:105AB0000448FFF7B9FEA06229462046BDE87040C1
:105AC00000F004B8304C00207047000010B5428C44
:105AD000920803D10F4A1288C2F38D02836A03EB46
:105AE0008202530700D5121F4FF0807342E9021360
:105AF00000231C46B2F1400242F823405B1C0E2BEF
:105B0000FAD3C36913624262C162806A02490160CA
:105B100010BD0000E09B0108A52E5AE20349044A8B
:105B20000968C8821288104488827047C404002023
:105B3000CC0400200748016807488A8A0088CB8A7D
:105B4000101A1A4480B28A82010402D40421FFF799
:105B500079BE7047C4040020CC0400202DE9F04138
:105B6000044640680F46002620B16078022818D00D
:105B7000A08980B3A089E189884241D2208904EBC1
:105B80008000076172B6A089401CA08162B620899E
:105B9000401C80B22081E189884200D12681BDE885
:105BA000F08166702046FFF758FF80F82060218959
:105BB000054604EB8101C069086172B6A089401CEA
:105BC000A08162B62089401C80B22081E189884290
:105BD0000BD1268109E0FFE72046FFF73EFF05468F
:105BE000C0690421076085F82010012068702846EC
:105BF00000F072F92946BDE8F041044800F02CB9E4
:105C0000BDE8F0410320FFF71FB80000044B00205F
:105C10000321017000214170418041608160704723
:105C20002DE9F0470546408820B1274CA968226835
:105C3000914202D0FF20BDE8F087401E0004000C16
:105C400068803ED121686878DFF880808870696854
:105C50004FF00009012739B32846FFF7FEFE06463C
:105C6000052086F82000304600F036F96F80AE60DF
:105C7000B07868702168D8F804008A788078824209
:105C800001D330460AE0114800F0E6F831460F48EB
:105C900000F0E2F820684770777010E0FFF72AFE06
:105CA000216881F820900CE0D8F804108A782168E7
:105CB000824206D9054800F0CFF8206847700020DE
:105CC000ECE70020B7E70000C4040020044B0020EC
:105CD00070B5184D0E4604464188286839B1A16850
:105CE000814208D16088401C6080002070BDA060A7
:105CF00080786070F6E776B162788078824203D26D
:105D00008870A06800F0CEF8606830B1204629683D
:105D100000F0A2F808E0012070BD286860602968E2
:105D2000002048602868846009213046FFF78AFD1A
:105D3000F1E70000C404002070B519480121026891
:105D40005170006800F0A4F8164C657813E000BFAD
:105D500004EBC50148680278C2B1012A1BD000F0EB
:105D6000E7F8E0786D1C854200D1002572B6A07876
:105D7000401EA07062B6A0780028E9D165700A487C
:105D8000FFF76BFEBDE8704000F0FEB8098989B2EC
:105D9000FFF7DCFDE5E78968FFF7E0FEE1E70000DB
:105DA000C4040020C84C0020044B002005480178A2
:105DB00011B101214170704703494FF080500860D4
:105DC00070470000BC04002004ED00E0F0B40F4B6D
:105DD0009C1CDD781E4672B69A78AA4207D2521CE5
:105DE00022703278541CAC4200D10024347062B668
:105DF000DC78944205D903EBC202C2E90101F0BC90
:105E00007047F0BC0220FEF71FBF0000C84C002006
:105E1000104A10B5D368ABB113469B8A03E08CB12E
:105E20002246A48A2344D4688B42F8D3C460D0604D
:105E30000261C46804B12061591A8182908A401AB3
:105E4000908210BD0024C460D060C91A02619182A2
:105E5000848210BD1C4B002030B502780023022A3A
:105E600003D0012A01D0032A00D101238C7800E05D
:105E70001046426812B19578A542F9D24A60416055
:105E80001BB102B19160886030BD0020FBE70000CB
:105E900003494A68426000228260486070470000FF
:105EA000044B002010B5836804462BB960780128A4
:105EB0000ED1084B03E09B6818780028FBD02046E1
:105EC00000F01EF82146BDE810401846FFF7C4BF99
:105ED00010BD0000044B002010B5016900290ED050
:105EE000C268CA60C36800223BB18B8A848A23449B
:105EF0008B82C3681961C26000E08A82026110BDB2
:105F0000816839B142684A604168002901D08068DF
:105F100088607047054906E04A68824202D14068BD
:105F20004860704711460029F6D17047044B0020A5
:105F300010B5416879B1FFF790FD0446FFF7CCFF3B
:105F400001206070032084F820002146BDE8104045
:105F50000348FFF781BF4188491C418010BD000004
:105F6000044B002006480068D0E90910814203D3A1
:105F700000680449884202D00120FEF765BE7047E0
:105F8000C4040020A52E5AE2024948600221417053
:105F900070470000C40400202DE9F04788464249BC
:105FA00081461646002004463E4A098803E000BFA9
:105FB00042F82040401C8842FAD33C4830220188F5
:105FC0003B48FCF7ABFD3B48008880B240F0004204
:105FD000394801683948FCF7A1FD39480822018891
:105FE00038480068FCF79AFD374FFF25374AFD70A7
:105FF0007C8400213846FFF745FD354804210170B7
:10600000446034480170C46004618482786A20303E
:10601000F6F7DEF8304832490760022078702F48E2
:10602000047044700978C170FFF74EFD2D48016877
:1060300041F47F0101600068290601EA0020294936
:10604000C0431439B0FA80F00968C0F10800C1F308
:106050000221814200DB481C2249091F0B686FF0B6
:106060008072824063F317020A60FEF715FE1E4934
:10607000002808600DDB00F1E02181F8005400F0F9
:106080001F02012191404011800000F1E020C0F882
:106090000011324641464846BDE8F047002300F073
:1060A00081B80000EC4C0020DE9B0108F49B010845
:1060B000644B0020E09B0108F89B0108304C002055
:1060C000FE9B0108D8040020344B0020954C0108A9
:1060D000044B00201C4B0020C4040020C84C0020AE
:1060E000FC9B010820ED00E0C00400200C4810B526
:1060F0000268012151700068FFF7CAFEFFF7BEFB7E
:1061000008480168491C0160FFF7BAFB00F02AF853
:106110000548FFF7A2FCBDE81040FFF735BF0000BF
:10612000C4040020CC040020044B00200148006877
:1061300070470000CC040020074CDFF820C0208905
:1061400080B200DFDFF818C000DF61680029F9D0F5
:1061500000208847F6E70000B00400201D5B01081E
:10616000355B010870B50D4C2068002815D0A0885B
:106170000B4E401EA0800AE0E888FEF7A2FDA8882A
:10618000A0802868206029463068FFF753FCA0886B
:10619000002802D12568002DEED170BDD00400206A
:1061A000D80400202DE9F0411E46174680460C46D3
:1061B00011F0FF0F00D14C1C1548FFF735FB051EF1
:1061C00024D0200AAF626884E1B242462846EE61DC
:1061D000FFF758FC104901240E48098806E000BF6B
:1061E00000EB840252F8042C1AB1641C8C42F7D9DB
:1061F000002400EB840040F8045CEC702846FFF7B4
:1062000079FB0648006880F820402046BDE8F08110
:10621000644B0020EC4C0020DE9B0108C4040020ED
:1062200002480068002800D0C0787047C4040020ED
:106230002DE9F0438FB014210AA8F6F751FA28216E
:106240006846F6F74DFAF9F76DFFF7F7BFFF01253E
:106250004FF00008CDE90A5829460AA8F8F72EF8A9
:1062600020B16B224DA10020FCF79CFC4FF480393B
:10627000CDE900590224CDF80880CDE907494FF453
:10628000E01009906846F8F741F920B1772243A160
:106290000020FCF787FC0AA90F2081E811014FF4C8
:1062A0008060CDE90D0802210AA8F8F707F820B1AF
:1062B00082223AA10020FCF775FC444C206840F093
:1062C00001002060606842490840606020684149E0
:1062D00008402060206820F480202060606820F45E
:1062E000FE0060604FF41F00A060206820F4803042
:1062F0002060206820F480202060206840F48030F6
:1063000020603120F9F7B8FA0028FAD04FF08077F2
:1063100097FAA7F0304EB0FA80F046F820800122BC
:106320002E494846F6F77CFA97FAA7F0B0FA80F0C3
:1063300046F820503920F9F79FFA0028FAD0606813
:1063400020F0030040F002006060606820F0F00080
:106350006060606820F4E06040F4806060606068C5
:1063600020F46050606095FAA5F0B0FA80F006EB7A
:106370008000C0F880546120F9F77EFA0028FAD036
:1063800095FAA5F0B0FA80F046F820502120F9F7F0
:1063900073FA0028FAD00FB0BDE8F0832E2E5C2EE1
:1063A0002E5C2E2E5C736F757263655C6869635F2B
:1063B00068616C5C73746D33325C73746D33326618
:1063C00031303378625C73646B2E630000100240DE
:1063D0000000FFF8FFFFF6FE000042420000281018
:1063E0007CB5DDE906540CB103A400E003A4CDE9BB
:1063F000005400F053FA7CBD310000003000000072
:106400002DE9F04700242646FDF714FEDFF8F8904A
:106410000546A0464F4621213C48C9F81080F6F7B2
:106420003DF93A4821212130F6F738F9374809215A
:106430004230F6F755F987F81480344FA7F15E0A19
:10644000B8195AF8241002F0CCF8641C3044E4B2B5
:10645000C6B2042CF4D307F8068000262B4F34462E
:106460002137A7F16F0A00BF5AF82410B81902F0BB
:10647000B8F8641C3044E4B2C6B2042CF4D307F874
:106480000680224E4446423630464F46D9F8001028
:1064900002F0A7F8C0B23454FDF7BAFD00683861C5
:1064A000194810300471280BFDF72EFF164E1536D3
:1064B0003070C5F30320FDF727FF7070FCF7AEFDC9
:1064C00001281BD0FDF782F9C0B1C5F3031000BF4E
:1064D000FDF71AFFB07005F00F00FDF715FFF07023
:1064E000094834711A303021017032214170352150
:1064F00081703821C1700471BDE8F087082040EA3E
:10650000151000F00F00E3E72C000020A606002085
:106510002DE9F041374C0746A06941693846884764
:106520000646A069816938468847054636B12DB1CF
:106530004FF4806846450AD8012009E040F2351240
:106540002DA10020FCF72EFB0220BDE8F0810020E9
:106550004FF49D7228A1FCF725FBB8FBF6F106FB72
:10656000118050B15FF0000040F23B1222A1FCF715
:1065700019FBB54203D3012002E00120F4E700201B
:106580004FF49E721CA1FCF70DFBB5FBF6F006FB69
:106590001050C8B15FF0000040F23D1216A1FCF7A8
:1065A00001FBB7FBF5F005FB1070381AC4E90305D1
:1065B0006060454500D34546A560A169096A29B1D7
:1065C000884705000AD101E00120E5E7207850B1B5
:1065D000A069C168E0688847050004D0A0694068E8
:1065E00080472846B1E7FF221048A168F6F74EF829
:1065F0000020AAE7C00000202E2E5C2E2E5C2E2E3E
:106600005C736F757263655C6461706C696E6B5C02
:10661000647261672D6E2D64726F705C666C61735D
:10662000685F6D616E616765722E63008C08002083
:1066300010B5EFF3108172B6074C084BDA6844F8D6
:1066400022000B20521CB2FBF0F400FB142081F35B
:106650001088D86010BD0000244700209C04002052
:1066600010B5094C207840B100F08AF86068C16824
:10667000064888470021217010BDC02204A10020D7
:10668000FCF790FA022010BD80000020580700207F
:106690002E2E5C2E2E5C2E2E5C736F757263655CE5
:1066A0006461706C696E6B5C647261672D6E2D64E1
:1066B000726F705C66696C655F73747265616D2E74
:1066C0006300000070B5134C0546207808B18522A0
:1066D00002E0022D06D38B220FA10020FCF762FA04
:1066E000022070BDFEF768FAA0604FF4827117486F
:1066F000F5F7F6FF0120207006480C3000EB05107E
:1067000060604168114888470028EAD00321217061
:1067100070BD0000800000202E2E5C2E2E5C2E2EE0
:106720005C736F757263655C6461706C696E6B5CE1
:10673000647261672D6E2D64726F705C66696C6542
:106740005F73747265616D2E63000000580700204E
:106750002DE9F041094D0E460746002405EB0410D3
:10676000314602683846904710B12046BDE8F081B6
:10677000641CE4B2022CF1D30320F7E78C00002064
:1067800010B5FEF719FA06498968884201D101203F
:1067900000E00020BDE81040622202A1FCF702BA2E
:1067A000800000202E2E5C2E2E5C2E2E5C736F75CA
:1067B0007263655C6461706C696E6B5C6472616766
:1067C0002D6E2D64726F705C66696C655F73747298
:1067D00065616D2E6300000010B500F10801032211
:1067E0000C4607A0F5F742FE002806D003222146FA
:1067F00004A0F5F73BFE08B1032010BD012010BD39
:1068000042494E004845580070B5154C06460D46A5
:106810002078012806D0A42212A10020FCF7C2F99A
:10682000022070BDFFF7ACFF60682A4631468368DE
:10683000194898470546132806D0142D06D02DB1C7
:1068400003202070284670BD0220FAE72078012836
:1068500000D00020B22203A1FCF7A4F9F2E7000067
:10686000800000202E2E5C2E2E5C2E2E5C736F7509
:106870007263655C6461706C696E6B5C64726167A5
:106880002D6E2D64726F705C66696C655F737472D7
:1068900065616D2E63000000580700202DE9FC475C
:1068A0008246DDE90A0600901C469046894650461D
:1068B00001F0E2FE074602250EA0CDE90005E3192E
:1068C00042464946504601F0B3FE0744E3194246AA
:1068D00049465046009601F0CFFEC61906A0CDE904
:1068E0000005A31942464946504601F0A1FE304436
:1068F000BDE8FC873A2000000D0A000010B51E21FB
:10690000002000F0EFFC002800D0012010BD0000A6
:106910002DE9F04792B00F46DDE91A9804461D466E
:10692000164644216846DDF870A0F5F7D9FECDE99A
:106930000065CDE9029860680990A0680D90206814
:10694000CDE90E074FF080701090684600F07EFC95
:1069500000281DD0144FDFF85480002411A94046B0
:1069600000F0C8F998B11198800314D56946002049
:1069700000F00CF900280BD00D49404600F008FD4E
:10698000002805D00098BAF1010F08D050B10020BE
:1069900012B0BDE8F087641CBC42DFD3F7E7711981
:1069A0008842F4D10120F3E740420F00F0ED00E00F
:1069B00003005FA010B5044600F0F6FE002801D1E8
:1069C00004F07F4010BD10B5F7F7AEF8F8F7EEFE13
:1069D000012010BD2DE9F843002000903049401EF1
:1069E000042608604FF0640800272E4C486010E031
:1069F0000121002000F076FC012000F0A9F902201E
:106A0000FEF788F8002000F0A3F90220FEF782F8D4
:106A10000027FFF7D8FF206810B1806800B18047D9
:106A2000F8F785F9A0B3FFF769FF88B300210820C4
:106A300000F058FC60B34FF0A041042000F052FC7D
:106A400030B300254FF020496946042000F0F8F8E3
:106A500050B1009939EA010002D06D1C4545F3DBC5
:106A6000454516D0A7B901E00127F9E70E490420F2
:106A700000F038FC60B1206810B1006900B18047B7
:106A80000021082000F02EFC10B10120BDE8F883A1
:106A9000FFE7761E76B2002EAADC0020F6E70000A3
:106AA00068000020DC040020000F005010B50E4CE0
:106AB00000220D212046FEF7EAFA00220E21204690
:106AC000FEF7E5FA00220C212046FEF7E0FA074C1B
:106AD000002209212046FEF7DAFA00220A21204688
:106AE000FEF7D5FA012010BD000C0140000801405E
:106AF000F8B50E46054662B394081749002000F029
:106B0000EDFA002826D00527042229466846FDF71D
:106B10006BFD6946384600F0D1FA012819D10F27DC
:106B20000021384600F0CAFA012812D10025641E5F
:106B300007E03146384600F0C1FA012809D16D1C42
:106B4000361DA542F5D30E20314600F0B7FA0128D4
:106B500000D00020F8BD00005200002338B50C46DC
:106B600005460949002000F0B9FA00280BD0694613
:106B7000284600F035F8002805D0A807C10E009877
:106B8000C8402070012038BD500000232DE9F0419D
:106B90000E46014600246425104800F0F9FB002849
:106BA00010D00E4F3F1F3146384600F0A3F80028A2
:106BB00008D03068C00302D4641CAC42F3DBAC42A2
:106BC00002D10020BDE8F08104483146001D00F0EC
:106BD00091F80028F6D00120F4E70000F4ED00E081
:106BE0001CB50C460146042201A8FDF7FDFC05205A
:106BF00001A900F063FA012820D10F20694600F0B6
:106C00005DFA01281AD10E20694600F057FA0022D9
:106C100022609DF8031042EA016222609DF8021092
:106C200042EA014121609DF8012041EA02212160F0
:106C30009DF8002011432160012800D000201CBDD8
:106C400038B50C4600F00C006946801C00F036FA9E
:106C5000002121609DF8032041EA026121609DF836
:106C6000022041EA024121609DF8012041EA02210F
:106C700021609DF8002011432160012800D00020F0
:106C800038BD00002DE9F04114460F46054608E0E6
:106C900039462846FFF762FF002828D0641E6D1C85
:106CA0007F1C1CB3A807F3D112E000BFC5F3090095
:106CB000C0F58066B44201D224F00306324639465C
:106CC0002846FFF715FF002811D035443744A41B90
:106CD000032CEBD808E039462846FFF73FFF002891
:106CE00005D0641E6D1C7F1C002CF4D10120BDE872
:106CF000F081000070B50C4605460749002000F001
:106D0000EDF9002806D021462846FFF769FF002844
:106D100000D0012070BD0000520000231CB50020EF
:106D20006946FF220A54401CC0B20828FAD3332017
:106D3000F9F7A6F901201CBD014908707047000051
:106D4000600000200149486070470000600000209A
:106D50000A4910B5096821B1C96911B1BDE81040EF
:106D60000847012428B10649064800F011FB0648EF
:106D700001E00548001F046010BD0000DC04002095
:106D80000400FA050CED00E0140C0140F8B50225F2
:106D9000524F534C064606287BD0FFF714FE304670
:106DA0007E1C082876D2DFE800F0041508565876D5
:106DB0008C940120FFF7CCFF8BE00120FFF7C8FF88
:106DC0000220FDF7A7FE0020FFF7C2FF0220FDF71B
:106DD000A1FE7CE0FFF7FEFD00287BD0414F387814
:106DE00001280BD00FE06D1E6DB2002D73DD012068
:106DF000FFF7AEFF0220FDF78DFE0020FFF7A8FF92
:106E00000220FDF787FE3146204600F0C1FA002837
:106E1000E9D0334D01210C35284600F0B9FA00289D
:106E200058D0387828B90120FFF792FF0220FDF7EB
:106E300071FE0020FFF78CFF0220FDF76BFE694614
:106E40002046FFF757FF002844D000988003F6D56E
:106E50000021284618E0394615E0F7F768FF0028BA
:106E600038D0FFF74BFD002834D00021082000F077
:106E700039FA00282ED04FF0A041042000F032FA59
:106E8000002827D03146204600F082FA002821D081
:106E90001FE016E01FE0FFF79DFD00281AD00F4904
:106EA0002046C91C00F074FA002813D06946204619
:106EB000FFF720FF00280DD000988003F6D508E0EA
:106EC00008E03946204600F063FA002802D0FFF7B8
:106ED000EDFD0120F8BD0020F8BD000000005FA01E
:106EE000F0ED00E060000020F8B502256F4F704C17
:106EF000064606287ED0FFF766FD3046FE1C0828B1
:106F000079D2DFE800F00442089698B5CAC801209B
:106F1000FFF71EFFBFE00120FFF71AFF0220FDF779
:106F2000F9FD0020FFF714FF0220FDF7F3FDFFF746
:106F300051FD00287CD069460420FFF781FE00281F
:106F400076D0009820F08041042000F0CBF9002892
:106F50006ED069460420FFF773FE002868D00098C1
:106F60000028F6DB20F08051042000F0BBF9002857
:106F70005ED069460420FFF763FE002858D00098D1
:106F80008000F6D4FFF792FD85E0FFF723FD00288F
:106F90004ED00FE06D1E6DB2002D2CDD0120FFF7ED
:106FA000D7FE0220FDF7B6FD0020FFF7D1FE02203C
:106FB000FDF7B0FD3146204600F0EAF90028E9D09F
:106FC00069462046FFF796FE002865D000988003AA
:106FD000F6D5374D01210C35284600F0D9F90028A7
:106FE0005AD0334E6946E43E3046FFF783FE002810
:106FF00052D001E051E057E0009800F4E0612D48E4
:10700000406801432C480143304600F0C1F9002894
:1070100042D00220FDF77EFD69462046FFF76AFE5A
:10702000002839D000988003F6D5002128461AE0C0
:1070300032E0394616E0F7F77AFE00282CD0FFF749
:107040005DFC002828D00021082000F04BF9002822
:1070500022D04FF0A041042000F044F900281BD0BA
:107060001249491C204600F093F9002814D012E080
:10707000FFF7B0FC00280FD03146204600F088F919
:10708000002809D069462046FFF734FE002803D0C7
:1070900000988003F6D50120F8BD3946204600F05F
:1070A00077F90028F8D06DE70020F8BD00005FA058
:1070B000F0ED00E0600000200000FA0570B50D461C
:1070C0000646002429463046F8F75EFC022803D124
:1070D000641CE4B2642CF5D370BD000038B50D46D5
:1070E0000446FFF767FC04F0F0010143082000F0BC
:1070F000F9F8002805D034B90E484168A94201D1F9
:10710000012038BD456004F00C040422294668467D
:10711000641CFDF769FA69462046FFF7CFFF012896
:1071200005D10E200021FFF7C9FF0128E9D000207A
:1071300038BD000068000020F8B50D4604462AB3AB
:10714000960813490020FFF7C9FF00281FD0052724
:10715000042221466846FDF747FA69463846FFF79C
:10716000ADFF012812D10D27002407E0294638463B
:10717000FFF7A4FF012809D1641C2D1DB442F5D3EB
:107180000E200021FFF79AFF012800D00020F8BD53
:107190005200002370B50C46054608490020FFF751
:1071A0009DFF002809D0A807C00E04FA00F1284668
:1071B00000F02CF8002800D0012070BD5000002302
:1071C00073B50646002464250F48019900F0E0F8E5
:1071D000002813D00C4846F48031001F00F0D8F886
:1071E00000280BD0084E083E01A93046FFF782FD6B
:1071F000002803D00198C00301D501207CBD641C88
:10720000AC42F1DB00207CBDF8ED00E038B50C4667
:10721000014604226846FDF7E7F905206946FFF7B5
:107220004DFF012810D1042221466846FDF7DCF904
:107230000D206946FFF742FF012805D10E200021ED
:10724000FFF73CFF012800D0002038BD38B50546C7
:107250000021082000F046F800283CD05FF0000430
:10726000204655F82410FFF7ABFF002833D0641CEC
:10727000042CF5D30920696AFFF7A2FF00282AD061
:107280005FF00D04204655F82410FFF799FF002801
:1072900021D0641C102CF5D31020296CFFF790FF2F
:1072A000002818D00E4C0D49204600F071F8002837
:1072B00011D00A492046891E00F06AF800280AD039
:1072C00069460420FFF7BCFC002804D0009810F0A9
:1072D000A00F01D0002038BD012038BD0B005FA0F9
:1072E000F0ED00E0F8B50D4E04460D46082802D139
:1072F0003068A84210D004F00C0704226846FDF75D
:1073000073F969463846FFF7D9FE012801D00020FD
:10731000F8BD082C00D135600120F8BD68000020C0
:107320002DE9F04114460E46054608E0317828461E
:10733000FFF730FF002828D0641E6D1C761C1CB39C
:10734000A807F3D112E000BFC5F30900C0F58067BC
:10735000BC4201D224F003073A4631462846FFF7E3
:10736000EBFE002811D03D443E44E41B032CEBD837
:1073700008E031782846FFF70DFF002805D0641E8D
:107380006D1C761C002CF4D10120BDE8F0810000BA
:1073900070B50C46054607490020FFF79FFE002800
:1073A00006D021462846FFF731FF002800D00120F3
:1073B00070BD00005200002310B5FDF7FDFB07492A
:1073C0004968884201D1012000E00020BDE810405A
:1073D00040F2691202A1FBF7E5BB000008010020A2
:1073E0002E2E5C2E2E5C2E2E5C736F757263655C88
:1073F0006461706C696E6B5C647261672D6E2D6484
:10740000726F705C7666735F6D616E616765722E18
:107410006300000002480021C068FDF791BB000036
:10742000080100200148C068FDF79CBB080100204E
:1074300002480078012800D000207047700000202A
:1074400002480078012800D000207047DC000020AE
:10745000FEB51C4E346984B300250C341EE000BF19
:10746000FCF700FE18B190F83800400715D42068EA
:1074700000F05AF900281FD10120FCF70DFC05008F
:107480001AD10090019002900F4800231A464068DC
:1074900081681830FFF73CFA80B114342068002866
:1074A000DED161680029DBD1306990F8A20110B10A
:1074B00000F076F805462846FEBD01E01020FBE707
:1074C0000120F9E728930108700000203EB5054629
:1074D0001348006908B31348446844B1284600F0D3
:1074E00023F8B5FBF0F100FB1150A0B901E0022038
:1074F0003EBD0120FCF7D0FB0028F9D1009001909F
:1075000002900346E1682A4604F11800FFF700FAEA
:1075100008B100203EBD0F203EBD01203EBD000051
:1075200028930108700000200F4910B50A69C2B104
:10753000916881B1491E0ED4D2F8042002EBC10338
:107540001B68834205D8042000EBC100104400688A
:1075500010BD491EF2D54FF4C67204A10020FBF7FE
:1075600021FB002010BD0000289301082E2E5C2E68
:107570002E5C2E2E5C736F757263655C6461706C3B
:10758000696E6B5C696E746572666163655C74617B
:10759000726765745F666C6173682E63000000003B
:1075A00070B5114D2869E0B1104C0020607060602A
:1075B000012000F003F910B128690C3007E0072022
:1075C00070BD017AC90701D0A06006E014300168DF
:1075D0000029F6D141680029F3D101202070002054
:1075E00070BD012070BD00002893010870000020CC
:1075F0002DE9FF5F81463E4816468846006900280F
:1076000074D03C48456885B13B48006828B143695F
:107610001BB14846984701280BD00220FCF73CFBE1
:107620004FF0000A002801D13BE0022004B0BDE881
:10763000F09F0D20FAE76C6BB44200D93446686ABB
:1076400022464146FFF76CFE78B3686ACDE9000A2E
:10765000CDF808A005F118005746296923464A4687
:107660008346FFF755F908B3FBF71EFCB0B1686914
:1076700088B30320FCF710FB0028D7D195F8380019
:10768000C00700D00120696ACDE90017029069693E
:1076900023464A465846FFF73BF9D0B1A144A044DF
:1076A000361B002EC7D10020C0E716E01120BDE731
:1076B000102C01D2274600E010273A46694648467A
:1076C000FFF7E0FA48B13A4669464046F4F783FED0
:1076D00028B11220AAE706E008E00A20A6E7F61B78
:1076E000B944B844E41B002CDBD0E1E701209DE75E
:1076F0002893010870000020DC04002070B50546C6
:107700000848006900280BD04FF480742846FFF722
:107710000BFFA04203D22846FFF706FF044620468F
:1077200070BD00002893010870B5FCF79BFC0400B5
:1077300011D00B4D6868A0420BD00020FCF7ACFACA
:10774000002807D1E26A216BA06AFFF7E9FD20B1AA
:107750006C60002070BD092070BD082070BD000065
:10776000700000200E4810B50069B0B10020FCF791
:1077700093FA002810D1FBF78FFB08B1022000E03C
:10778000012000F01BF8072000F018F80549002040
:107790000870FFF78BF9002010BD012010BD00001C
:1077A00028930108700000200348006810B1806A27
:1077B000002800D100207047DC04002070B5134C75
:1077C0000546616F01B1884711480168E1B18A69D6
:1077D0001AB12846BDE8704010478878012803D0C8
:1077E000022806D0012070BD2846BDE87040FFF792
:1077F000CDBAA06F08B9486808B1FFF7A3FA2846C8
:10780000BDE87040FFF770BB002070BD28930108F1
:10781000DC04002010B50B4C02212069FDF7AAF909
:10782000E0680321B0FBF1F201FB1201401CE060B3
:10783000002905D12069BDE810400121FDF79AB962
:1078400010BD00004C0000202DE9F041224C1646EE
:107850000D4694F8230038B1BDE8F0414FF4307282
:107860001EA10020FBF79EB9F00523D05FF00000B9
:107870004FF4317219A1FBF795F994F8210040F209
:10788000C52216A1FBF78EF931462846FEF7BCFF4C
:10789000002705464FF0010813280DD0142D17D0EE
:1078A00084F824706069304460612846BDE8F04186
:1078B00000F0D4B80120DBE7FEF7D2FE84F8217097
:1078C00084F82380054684F82480FBF793F9E9E7E0
:1078D000002584F82480E5E7B41200202E2E5C2ECB
:1078E0002E5C2E2E5C736F757263655C6461706CC8
:1078F000696E6B5C647261672D6E2D64726F705C73
:107900007666735F6D616E616765722E630000005D
:1079100070B51C4C06460D4694F82100002812D084
:107920005FF0000040F2852217A1FBF73BF9681CCD
:1079300000D0012040F2862213A1FBF733F96068E2
:10794000401C02D002E00120ECE7656094F82700BB
:10795000032801D184F827606068A84203D194F815
:107960002700B04201D0032008E03046FEF7AAFE0F
:1079700020B944F80C5F01216175A175BDE8704024
:1079800000F06CB8B41200202E2E5C2E2E5C2E2E31
:107990005C736F757263655C6461706C696E6B5C5F
:1079A000647261672D6E2D64726F705C7666735FB2
:1079B0006D616E616765722E6300000030B4194C12
:1079C00094F82050032D02D025683DB107E030BC6B
:1079D00040F2352214A10020FBF7E4B82060A06833
:1079E000401C00D1A16094F82700032801D184F83D
:1079F0002730A069904205D9E069904202D90AB1C6
:107A000003200CE0481C02D0A0688842F8D1032B68
:107A100003D094F827009842F2D10020A26130BC34
:107A200000F01CB8B41200202E2E5C2E2E5C2E2EE0
:107A30005C736F757263655C6461706C696E6B5CBE
:107A4000647261672D6E2D64726F705C7666735F11
:107A50006D616E616765722E630000002DE9F0476D
:107A60000546132803D0142D01D0012000E000208A
:107A70004FF43A7243A1FBF795F84F4C94F820006D
:107A800003280CD0216891B1D4E9060282420ED3BA
:107A900068B1D4E90102904209D1012008E0BDE8B3
:107AA000F0474FF43B7237A10020FBF77BB8002072
:107AB00084F8250094F8269019B994F82710032922
:107AC00001D0012100E00021884620B194F8241063
:107AD00009B1012700E0002794F8231011B108B183
:107AE000012000E00020824620690026401C10D0C2
:107AF0006068401C00D0012040F20A3221A1FBF74F
:107B000051F861682069401A61694002814200D9D8
:107B1000012603201DB100BF84F820001DE0B9F14B
:107B2000000F09D00EB10625F6E7B8F1000FF3D02B
:107B3000002FF1D10425EFE7BAF1000FECD10FB11E
:107B4000022003E0B8F1000F03D0012084F82000E8
:107B500012E094F8200003280BD194F8210030B1F2
:107B6000FEF77EFD002184F8211005B90546134873
:107B70000570B9F1000F03D1BDE8F04701F012B86C
:107B8000BDE8F0872E2E5C2E2E5C2E2E5C736F755A
:107B90007263655C6461706C696E6B5C6472616772
:107BA0002D6E2D64726F705C7666735F6D616E61B1
:107BB0006765722E63000000B412002008010020E7
:107BC00030B51B4885B001681A4A11400160FBF7C7
:107BD00049F91948C16941F40031C161C16901F431
:107BE00000310491816941F0040181618069134D84
:107BF00000F004000490042000900220032401906F
:107C0000039469462846F6F7E7F90820009000201B
:107C100001900120CDE9020469462846F6F7DCF917
:107C200007494020C1F8000105B0012030BD000027
:107C30000C4400405FFFFFEF0010024000080140CD
:107C400004E000E00A4601460148FBF7DFB8000007
:107C50008830002070B5064D2C680648204028600A
:107C6000FBF700F90348203004402C60012070BD70
:107C70000C4400405FFFFFEF70B50446014690B032
:107C800008223748F4F7A7FB88B33548D4E9001237
:107C90000838C0E9021240216846F4F721FD314856
:107CA0002F4B00906079083B002258714FF4C0615F
:107CB0004FF4806501281ED002281ED0049200B126
:107CC0005A71A07998714FF40056022817D00128F4
:107CD00017D0039200B19A71082018710498884255
:107CE00001D0A84211D14FF4805002900EE0FFE77E
:107CF00010B0012070BD0491E3E70495E1E703961D
:107D0000EAE7022003969871E6E70292DA7106929A
:107D1000206818600190134C0C200C3405902068EA
:107D2000114908402060FBF79DF86846F6F7ACFF64
:107D300090B10020DA220DA1FAF734FF6846F6F779
:107D4000C1FF58B10020DC2208A1FAF72BFF206800
:107D5000134908432060CBE70120EBE70120F2E75D
:107D6000F4020020004400405FFFFFEF2E2E5C2E47
:107D70002E5C2E2E5C736F757263655C6869635F41
:107D800068616C5C73746D33325C73746D3332662E
:107D900031303378625C756172742E6300000000CC
:107DA0002000001010B50949C4074FF48063A1F109
:107DB000040201D00B6000E0136083074FF40070F1
:107DC00001D5086010BD106010BD0000140801400E
:107DD0000A4610B501460448FBF72EF803490A6825
:107DE000034B1A430A6010BD781C00200C4400406D
:107DF000800000100148FAF769BF0000781C0020DD
:107E00002DE9F04186B00F46DDE90C4180461D4664
:107E1000164602A800F044FC02A900220A54CDE94B
:107E200000412B46324639464046FEF737FD06B044
:107E3000BDE8F08110B50D4C207830B100202070E5
:107E4000FAF7F4FD40B11F2010BD832208A10020E5
:107E5000FAF7A8FE022010BD607810B9FBF72CFAE3
:107E600008B1002010BD252010BD0000DC0000205E
:107E70002E2E5C2E2E5C2E2E5C736F757263655CED
:107E80006461706C696E6B5C647261672D6E2D64E9
:107E9000726F705C6961705F666C6173685F696E58
:107EA00074662E63000000002DE9FF410746644818
:107EB000009015460E460023384600F0DDFB0446D0
:107EC00060A0009023462A4631463846FBF76EFBF9
:107ED000044460A0009023462A4631463846FBF70A
:107EE00065FB0444FAF7D8FF5EA1CDE900102346F4
:107EF0002A4631463846FEF773FA0444FAF7D4FFAF
:107F00005BA1CDE9001023462A4631463846FEF7EC
:107F100067FA0444FAF7D8FF5AA1CDE900102346C6
:107F20002A4631463846FEF75BFA0444FAF7C4FFA6
:107F300059A1CDE9001023462A4631463846FEF7BE
:107F40004FFA0444FBF786F85BA1CDE90010234605
:107F50002A4631463846FEF743FA04445AA00090B8
:107F600023462A463146384600F086FB04445DA08D
:107F7000009023462A4631463846FBF717FB044457
:107F8000FCF732FAF8B15DA12346D1E90001CDE951
:107F900002015CA000902A463146384600F06CFB96
:107FA0000444FCF73DFA0146042202A800F0A4FBB9
:107FB000062102A8CDE9000123462A46314638466B
:107FC00000F036FB04445548009023462A463146CB
:107FD000384600F051FB0444FCF706FA58B1FCF7B0
:107FE00029FA4FA1CDE9001023462A4631463846EA
:107FF000FCF768F90444FCF723FA4DA1CDE9001021
:1080000023462A4631463846FCF75CF94C4904447D
:108010004CA049682346CDE900012A46314638463E
:10802000FFF7EEFE04444BA0009023462A4631465B
:108030003846FBF7BBFA04B02044BDE8F0810000ED
:10804000CCA60108556E697175652049443A2040F7
:10805000550D0A004849432049443A2040440D0A3E
:10806000000000004175746F205265736574000054
:108070004175746F6D6174696F6E20616C6C6F77A0
:10808000656400004F766572666C6F772064657476
:10809000656374696F6E0000496E636F6D70617423
:1080A00069626C6520696D616765206465746563EC
:1080B00074696F6E00000000506167652065726131
:1080C00073696E67000000004461706C696E6B201C
:1080D0004D6F64653A20496E746572666163650D23
:1080E0000A000000496E746572666163652056651A
:1080F0007273696F6E3A2040560D0A00000000004E
:108100000D0A0000426F6F746C6F616465722056D7
:10811000657273696F6E3A2000000000B8A701080D
:10812000426F6F746C6F616465722043524300004C
:10813000496E7465726661636520435243000000B6
:108140001801002052656D6F756E7420636F756E37
:108150007400000055524C3A2040520D0A000000B5
:1081600010B5064C04486060002060800448F5F7B4
:10817000A4FD0120207010BDE2460020EC05002087
:10818000986700202DE9F0434AA0DFF82481D0E968
:10819000001291B0007AC8F80010C8F80420002539
:1081A00088F808000926FAF739FF454F01286FD0F3
:1081B000FBF70CFB00286BD07D712E46012508F1E2
:1081C000090418223FA16846F4F72EFA17226946DF
:1081D0002046F4F7A2F9A670202600F089F93D7038
:1081E0006C1C7C70C146B04444223C496846AC1CBF
:1081F000F4F71AFA404642226946F4F78EF988F8F5
:10820000025008F1080088F80A5085766D1CC57682
:1082100088F82D504236F8F723FB3C71651C09EBBA
:10822000060814222EA16846F4F7FEF940461222F1
:108230006946F4F772F988F80240123600F000F946
:108240002CA2BD71D2E9003409EB0600127A03605A
:108250004460027285701A48691C0C3009368573B7
:10826000B9700C4609EB0605182225A16846F4F7FB
:10827000DBF9172269462846F4F74FF91048AC702D
:108280000C3080F8AE4011B0BDE8F043FFF768BF96
:1082900038890749401E388108717D2048800020B8
:1082A00088F87D001C4801881739018097E7000095
:1082B000984400200902940006010080FA000000A2
:1082C000FC0200200904000002080650080705828D
:1082D0000240000007050202400000009C9B0108CC
:1082E000090400000003000006092100010001222A
:1082F000210000000904000000FF03000700000047
:108300000904000002FF0000090705010240000007
:108310000705810240000000060300200248407863
:10832000002800D00120704768050020F8F7F8BB4E
:10833000002070477CB51C46154601281CD10CB1A5
:10834000012C19D101AA69460C48F5F78CFC70B1D3
:10835000019A402A05DD4E2209A10020FAF722FCED
:108360000AE028460099F4F7D8F840207CBD012C9B
:1083700002D10D490120087000207CBDC04D0020B5
:108380002E2E5C2E2E5C2E2E5C736F757263655CD8
:108390007573625C6869645C757362645F7573654C
:1083A000725F6869642E6300E80500202DE9F041E2
:1083B00007461D4816460088824202DD0020BDE8BF
:1083C000F0811A4800780028F9D0194C01224FF0AA
:1083D0000008E26000E098B16288002AFBD1154DE8
:1083E0003246681C2F70F4F798F86561A4F8048091
:1083F00066801148007801280BD86D1C65610BE080
:10840000C4F80C80C4F81480A4F80480A4F8028096
:10841000D4E76088401C60800020F8F75DFE0748C4
:1084200000F807800120CAE7B89901086905002013
:108430008C050020A0450020B69901089404002076
:108440000249012008700248F5F737BCE805002012
:10845000C04D00207047000038B51C461146022868
:1084600012D1002C10D0087807280ED06B46224677
:108470000B48F5F7B4FB60B10A4C2078002803D014
:10848000FBF748FF0020207038BD07490120087025
:1084900038BD782205A10020FAF784FB38BD000022
:1084A000C04D0020E8050020000000202E2E5C2E8C
:1084B0002E5C2E2E5C736F757263655C7573625CE7
:1084C0006869645C757362645F757365725F68691F
:1084D000642E6300054910B50020C870FFF752FEF6
:1084E000F9F752FEBDE81040F9F732B868050020F0
:1084F00010B5FCF761FB074C60600020FCF728FB1F
:10850000E060FAF779FB002060700349A070A0607A
:10851000086010BD08010020B405002070B51446A5
:108520000D460646FEF748FF074B1868002809D09D
:108530000120FCF773F9224629463046BDE8704019
:1085400000F0BABB70BD0000B40500207047000009
:108550002DE9F04115460E460746FEF72DFF10485F
:10856000006800281AD00F490F4C0020886094F84A
:108570002000032812D00120FCF750F92A4631468A
:10858000384600F03BFD94F82000032806D02A4628
:1085900031463846BDE8F041FBF796B8BDE8F081BA
:1085A000B405002008010020B412002006484FF056
:1085B000011201780548C180002101704170C0E9B5
:1085C0000221016170470000A89901086805002098
:1085D00010B5EFF3108472B6FAF7DCFC84F3108860
:1085E00010BD70B50D460446090E00F013F806469E
:1085F000A019C5F3074100F00DF80644A019C5F312
:10860000072100F007F80644E9B2A01900F002F8CB
:10861000304470BD054A02EB111301F00F011B78C5
:108620000370515C4170022070470000889401087B
:108630002DE9F0411446DDE906E55FEA000C18D0AB
:108640005F19A74215D32144994212D30020064650
:108650002A46A34202D2E01A121A00E01E1B8F42E1
:1086600001D9791A521A0EEB00010CEB0600F3F750
:1086700054FF2846BDE8F0812DE9FC418046089C66
:108680001D4616460F462046F3F7D1FECDE90040C1
:108690002B46324639464046FFF7CAFFBDE8FC810B
:1086A000F0B50646002002460B460A2505E000BF4D
:1086B000B3FBF5F3401C42F10002002BF8D150EA65
:1086C000020301D10120002200231C460FE000BF5D
:1086D000B1FBF5F705FB1717B1FBF5F13037B0EB40
:1086E000030CBCF1010C03F1010306F80C701F1A16
:1086F00074EB0207ECD3F0BD2DE9F04114460F46B0
:108700000646FFF7CDFF0546A0420AD23022214699
:108710003046F3F7BBFF601B30443946FFF7C0FF1C
:108720002046BDE8F0810000074910B5096831B165
:10873000096A21B18847002800D0012010BDBDE89A
:10874000104000F003B80000DC04002070B51749A9
:108750000A6942B30423046802F1D40107E0A54288
:1087600004D84D68A54201D30C3207E014310D68DE
:10877000002DF4D14E68002EF1D114E0C1180C6820
:1087800011460AE0A54207D84D68A54204D31B1D37
:108790000C2BF3D9012070BD14310D68002DF1D1DF
:1087A0004E68002EEED1002070BD00002893010815
:1087B0000B49096811B1496A01B1084701783A29A2
:1087C0000AD1007A302809D0322807D0332805D0C2
:1087D000342803D0352801D000207047012070478D
:1087E000DC0400202DE9FF5F984692468B460098F6
:1087F000FAF7AAFF40F2951240A1FAF7D3F94C49D3
:108800000027DFF83091B1F80B00497B484308EBB3
:108810000001491EB1FBF0F6B8F1000F1ED0002494
:10882000751ED9F80C700CE0D9F80C10481C82B2F7
:10883000414800F0DDFCD9F80C00401C641CC9F86C
:108840000C00AC42F0D34FF6FF724C463A48D9F8D0
:108850000C1000F0CDFCE068401CE060D9F810007E
:108860004C46202802D34FF4D5721CE03349202215
:1088700001EB4015401C206131492846F3F74DFEBD
:108880000098016829604168696001892981807ABE
:10889000A872C5F81C80380CA8826F83A0681028C5
:1088A00009D34FF4DC7215A10020FAF77BF9002000
:1088B00004B0BDE8F09F214A00EB4001C03A214BD3
:1088C00042F8213002EB81031F4F5F60BBF1000FC4
:1088D00001D042F821B0BAF1000F01D0C3F804A0D2
:1088E0001349401CB1F80B20497B4A4372439A60FC
:1088F000A0602078401C20702846D9E72E2E5C2EE0
:108900002E5C2E2E5C736F757263655C6461706C97
:10891000696E6B5C647261672D6E2D64726F705C42
:108920007669727475616C5F66732E630000000077
:10893000201300202001002020150020E017002037
:10894000E8970108C556010825930108C07A7047C9
:10895000C0697047C16961B1074A084B408BB2F8E2
:108960000B105B69527BB3FBF1F1801E00FB021020
:1089700070474FF0FF307047201300202001002087
:10898000C17270470A4910B50846B1F81340B0F8F3
:108990000B000CB90C6A0CB1444306E0002440F211
:1089A000891204A12046FAF7FDF8204610BD000008
:1089B000201300202E2E5C2E2E5C2E2E5C736F75E5
:1089C0007263655C6461706C696E6B5C6472616734
:1089D0002D6E2D64726F705C7669727475616C5F58
:1089E00066732E63000000002DE9F0410F468046BB
:1089F0004FF4007631464E48F3F772FE31464D484B
:108A0000F3F76EFE4C4D0024C0214C48EC60F3F7A8
:108A100067FE4A487100C030F3F762FE2C612C708B
:108A20004748C5E901043246464941486C61F3F7BD
:108A3000FBFD3F4E07F5803740F62D02B6F80B00E0
:108A4000717BB7FBF0F04A43B0EB420F09D24FF411
:108A5000AB723DA10020FAF7A5F8707B41F25A01F4
:108A60000DE04FF691725143814209D240F2591202
:108A700035A10020FAF796F8707B4FF691714843C4
:108A8000B0F5803F03D3A6F81340306202E0A6F8A9
:108A900013003462717B3022B0FBF1F040F2FF1121
:108AA00001EB4000C0F34F27F78234492348F3F726
:108AB000BBFD2249780222464861086204206C61AD
:108AC000A860002000EB400301EB8303401C9B687F
:108AD00004281A44F6D3EC606A614FF6F872214616
:108AE000144800F085FBE9684FF6FF72491C1148F5
:108AF000E96000F07DFBE8682049401CC5E90304FB
:108B00000E4C2022C03420463031F3F706FDD8F851
:108B100000102160D8F804106160B8F808102181B5
:108B200098F80A00A07201202861BDE8F0810000D9
:108B300020130020201500202001002020170020F5
:108B4000F7350108989501082E2E5C2E2E5C2E2EEE
:108B50005C736F757263655C6461706C696E6B5C8D
:108B6000647261672D6E2D64726F705C76697274C9
:108B700075616C5F66732E630000000098970108B2
:108B800010B50446FEF746FC05493CB1887808B9A3
:108B900002208870BDE81040FEF744BC0020F8E7D2
:108BA0000801002010B5FEF735FCFAF783F828B964
:108BB00004484178022901D101218170BDE81040AB
:108BC000FEF730BC0801002010B5FEF7F5FB0148A8
:108BD000007810BD080100202DE9F0410446FEF7A1
:108BE000EBFBFEF717FCFAF765F880B1FCF772FDB6
:108BF00021494EF660238A689A4201D222448A6053
:108C000028B18C784D784C70012C06D103E0BDE87A
:108C1000F041FEF707BC0220887000268E60FEF748
:108C200001FC0127CDB1012D17D0022D15D1134D17
:108C300095F82000032804D085F826700020FEF760
:108C40000DFF95F82000032812D0002040F21112E9
:108C50000BA1F9F7A7FF00F0F9F8164D54B1012C5C
:108C600008D0022C02D1F9F7C7FF2F60BDE8F081D0
:108C70000120EBE72E60F9E708010020B412002084
:108C80002E2E5C2E2E5C2E2E5C736F757263655CCF
:108C90006461706C696E6B5C647261672D6E2D64CB
:108CA000726F705C7666735F6D616E616765722E60
:108CB00063000000B40500202DE9F0478A46054610
:108CC0001746002651025046F3F7E8FCDFF84880CB
:108CD000002000BF06EB460208EB820385429B683A
:108CE00000EB53240FD3A5420DD2631BBB4200D32C
:108CF0003B46994658F82230281A4A46514698472A
:108D00004D44A7EB0907002F04D0761CF6B220468D
:108D1000102EDFD3BDE8F0872017002001494860FE
:108D200070470000200100201CB52E4CE07F10B1E0
:108D300004F11F0000E02CA04FF08061FFF754FE0B
:108D40002C48FBF789F90346207D10B125481430E3
:108D500000E029A000222749FFF744FD2948FBF73E
:108D60007BF903460022274927A0FFF73BFDFFF7C9
:108D70002BFF40B12748FBF76FF903460022254936
:108D800025A0FFF72FFD274B41219A1C2648FAF713
:108D90000FF958B12548FBF75FF903460022234934
:108DA0002348FFF71FFD0021FFF7EAFD4FF00060A9
:108DB000009020480190FAF781FA78B1DDE90001CE
:108DC0004FF48062F3F707FB40B91B48FBF744F907
:108DD00003460022184919A0FFF704FD00F034F8FB
:108DE0001CBD0000289301084441504C494E4B20C3
:108DF00020202000E15501084D424544202020203C
:108E000048544D00F954010844455441494C5320FD
:108E100054585400095501084641494C202020204F
:108E20005458540018010020DC120020A5530108FA
:108E3000EC94010800C00008555601084E45454411
:108E40005F424C20545854007047000010B5FAF7A8
:108E500033FA20B1FFF7B8FE08B9F7F7A9F9FAF726
:108E60002DFA40B1FAF7EEF818B9FAF7D7F8012859
:108E700001D1F7F79DF902484168491C416010BDD6
:108E8000180100202DE9F8430C46804600F0B2F8A6
:108E9000002855D1FBF70AF90125002630B9FBF768
:108EA00003F918B9FAF700F8002849D0022C47D086
:108EB00074B1012C44D10B2240494046F3F78BFAA0
:108EC00000283DD1FFF784FBBDE8F843FFF76ABEF9
:108ED0008DF800504FF0FF356946404600F08CF8A1
:108EE000002864D1354F002417F10C070B2257F8E6
:108EF00034104046F3F76FFA10B907EBC400057958
:108F0000641C102CF2D3681C18D0102D49D2DFE855
:108F100005F008104E1924262A2C303236383C3EF3
:108F20004244FAF7CBF9002841D00120FAF7CCF8F7
:108F30003DE0E22222A10020F9F734FE8DF8006026
:108F4000BDE8F8832A4C20680068804720680069E3
:108F5000804720684068804729E0012000E0002029
:108F6000FAF7FCF823E0012000E00020FAF7FEF811
:108F70001DE0012000E00020FAF708F917E00020CA
:108F800000E00120FAF79AF811E0012000E000204B
:108F9000FAF7F4F80BE0012000E00020FAF79AF865
:108FA00005E04FF4887206A10020F9F7FBFD9DF85B
:108FB00000000028C4D0FFF7F5FDC1E7EC940108DC
:108FC0002E2E5C2E2E5C2E2E5C736F757263655C8C
:108FD0006461706C696E6B5C647261672D6E2D6488
:108FE000726F705C7666735F757365722E630000D6
:108FF0008494010800207047002070472DE9F05F3D
:109000000446002516468B462846DFF85090144F3C
:109010001FE000BF05EB450209EB82028442916824
:1090200000EB512188460FD38C420DD2A8EB0401EE
:10903000B14200D3314653688A460A46201A59463F
:1090400098475444A6EB0A06002E05D06D1C4046F6
:10905000EDB2B9688D42DDD3BDE8F09F2017002046
:1090600020010020FEB5044690F8300016460F4659
:10907000302801D3606B31E0C0F13005B54200D338
:10908000154620442A46F3F748FA94F8300028445D
:10909000C1B284F83010302901D20020FEBD002377
:1090A0002F44761B1A462046FAF7D2FB08B302A9D2
:1090B0000022009101AB1146FAF718FC0028EDD10F
:1090C0000198606394F830202146FAF71FFD0028CC
:1090D000E4D194F83010606B08446063324639463E
:1090E000FAF714FD0028D9D1606B30446063142076
:1090F000FEBD1C20FEBD00002DE9F84F89468118F9
:109100004FF48063B3EB412F07D2BDE8F84F4FF423
:109110001F7228A10020F9F745BD4FEA422A4102FB
:10912000314A49094FEA5A1702EB411818B1002693
:10913000DFF8B8B034E00126FAE700BF09EB4611CA
:1091400008EB46150C4620222846F3F744F930B3C5
:10915000214628460B22F3F73EF970B1002000901B
:10916000DBF804C023462A4620460221E047207847
:10917000E52804D0009838B111E00120EFE72A4635
:1091800023461046012107E02046FAF7DDFA30B108
:1091900023462A4618460021DBF80440A047761CE7
:1091A000BE42CBD3524640464946BDE8F84FF3F79E
:1091B000B4B900002E2E5C2E2E5C2E2E5C736F75C3
:1091C0007263655C6461706C696E6B5C647261672C
:1091D0002D6E2D64726F705C7669727475616C5F50
:1091E00066732E6300000000E017002020010020BD
:1091F00030B44B00012404EB4101B1F5007F06D3EC
:1092000030BC40F2391204A10020F9F7CBBCC254A3
:10921000120A425430BC70472E2E5C2E2E5C2E2E2D
:109220005C736F757263655C6461706C696E6B5CB6
:10923000647261672D6E2D64726F705C76697274F2
:1092400075616C5F66732E63000000002DE9F047C6
:1092500086B000249246894605460394049404AEE1
:1092600003AF4FF480780594CDF80080CDE9017606
:109270006B1C05AA51464846FBF7A4FD58B10228CD
:1092800011D001281CD0042824D0052824D0062879
:10929000EAD1012021E0049A2AB3691C0398FAF765
:1092A00035FC04461FE0049A2AB1691C0398FAF7BA
:1092B0002DFC040017D10598AAEB000A8144D3E7DE
:1092C000049A2AB1691C0398FAF720FC04000AD119
:1092D000132408E0152406E000204FF4B07204A126
:1092E000F9F760FC162406B02046BDE8F0870000C0
:1092F0002E2E5C2E2E5C2E2E5C736F757263655C59
:109300006461706C696E6B5C647261672D6E2D6454
:10931000726F705C66696C655F73747265616D2EE7
:109320006300000070470000010001003030303160
:1093300000000000000000003801002000000000D4
:10934000000000000000000000000000000000001D
:10935000000000000000000000000000000000000D
:1093600000000000000000000000000000000000FD
:1093700000000000000000000000000000000000ED
:1093800000000000000000000000000000000000DD
:1093900000000000000000000000000000000000CD
:1093A00000000000F89E0108009F0108322E312EB7
:1093B000300053544152545F424C4143540000002A
:1093C00040A60108FCA50108DCA50108A0A601082B
:1093D000E8A20108A4A5010800A30108BCA4010893
:1093E00014A501085CA6010868A5010870A401087D
:1093F00094A40108E0A4010814A601089CA3010894
:1094000070A3010848A30108CCA3010848A50108DE
:1094100084A601087CA001083CA0010800A0010866
:10942000FCA3010878A20108D4A101089CA10108AD
:10943000C4A00108ACA20108A09F0108D49F0108A4
:10944000749F0108149F0108449F010834A2010879
:1094500014A1010850A10108C8A6010810A2010822
:10946000A175010865770108F1750108CD7401083F
:1094700051740108FD76010829750108317401084D
:10948000297701086094010830313233343536379A
:1094900038396162636465660000000015450108A3
:1094A000357E0108B151010879330108E132010824
:1094B000FD52010845340108417401080000000014
:1094C0009C94010800000000FFFFFFFFFFFFFFFF6B
:1094D000FFFFFFFFFFFFFFFF000000000000000094
:1094E000000000000000000000000003415353454D
:1094F0005254202054585400B29301080000000038
:1095000034A901080100000040A901080200000080
:1095100028A90108030000001CA90108040000009C
:1095200010A9010805000000D4A8010806000000E9
:10953000F8A8010807000000C8A8010808000000FA
:10954000ECA8010809000000B0A801080A0000000A
:10955000BCA801080B000000E0A801080C000000F6
:1095600004A901080D0000004CA901080E0000002C
:1095700058A901080F00000070A901088CA9010872
:109580007CA9010884A9010864A9010830780000B9
:109590000000000000000000EB3C904D53443053AD
:1095A000342E310002080100022000501FF8010093
:1095B000010001000000000000000000000029740C
:1095C0001902274441504C494E4B2D444E444641CC
:1095D000543136202020FAB8C0070520018ED0BCB7
:1095E0000010B8C0078ED8BE6D00E80B00EBFEB4CB
:1095F0000EB700B307CD10C38A044608C07405E84F
:10960000EDFFEBF4C3504C454153452052454D4FBF
:109610005645205448452041524D204D4245442056
:109620004441504C494E4B205553422044455649E5
:10963000434520414E44205245424F4F5420544808
:10964000452053595354454D2E2E00000000000074
:10965000000000000000000000000000000000000A
:1096600000000000000000000000000000000000FA
:1096700000000000000000000000000000000000EA
:1096800000000000000000000000000000000000DA
:1096900000000000000000000000000000000000CA
:1096A00000000000000000000000000000000000BA
:1096B00000000000000000000000000000000000AA
:1096C000000000000000000000000000000000009A
:1096D000000000000000000000000000000000008A
:1096E000000000000000000000000000000000007A
:1096F000000000000000000000000000000000006A
:109700000000000000000000000000000000000059
:109710000000000000000000000000000000000049
:109720000000000000000000000000000000000039
:109730000000000000000000000000000000000029
:109740000000000000000000000000000000000019
:109750000000000000000000000000000000000009
:1097600000000000000000000000000000000000F9
:1097700000000000000000000000000000000000E9
:1097800000000000000000000000000000000000D9
:1097900000000000000055AA855601082593010825
:1097A0000002000085530108259301080000000015
:1097B00085530108259301080000000005530108A6
:1097C000F990010800040000000000000000000003
:1097D0000000002800000000000000000000418E92
:1097E000BB3200000000000000000000000000008C
:1097F0000000000100000000764876480000DC838D
:10980000764800000000000000BE0AE00D782D063A
:1098100068400824400000D35840641EFAD1491C17
:10982000521E002AF2D1704710B503460020444C66
:10983000206044486060444860602046C06910F081
:10984000040F08D145F25550404C2060062060605E
:1098500040F6FF70A060002010BD01463848006946
:1098600040F08000364A106100207047344800699B
:1098700040F00400324908610846006940F04000A9
:10988000086103E04AF6AA20304908602C48C06805
:1098900010F0010FF6D12A48006920F00400284991
:1098A00008610020704701462548006940F0020029
:1098B000234A106110464161006940F04000106188
:1098C00003E04AF6AA20214A10601D48C06810F043
:1098D000010FF6D11A48006920F00200184A106101
:1098E0000020704710B50346481C20F0010122E01B
:1098F0001348006940F00100114C20611088188065
:1099000000BF0F48C06810F0010FFAD10C48006981
:1099100020F001000A4C20612046C06810F0140FAE
:1099200006D02046C06840F01400E060012010BD61
:109930009B1C921C891E0029DAD10020F7E7000049
:109940000020024023016745AB89EFCD0030004085
:1099500000000000000000080004000021000020BA
:1099600053000020650000209F000020DD00002043
:109970000000000001000020480100200008002035
:10998000000A0020000000204C0100000898010897
:1099900000040000000000000000000000000000C3
:1099A000010203040607080900000140000001004D
:1099B0004000400040000100400002024000000260
:1099C000400004044000400010001000212001016C
:1099D000400000024000000079280108000000005B
:1099E000000000008728010800000000B90B0108F2
:1099F000B1050108491801081F08010801080108FC
:109A00000000000000000000000000000000000056
:109A10000000000000000000000000000000000046
:109A20000000000000000000000000001D0B010805
:109A300000000000000000000600FF0901A1011560
:109A40000026FF0075089540090181029540090133
:109A5000910295010901B102C0002100120110021A
:109A6000EF020140280D0402000101020301000081
:109A7000050F3900021810050038B60834A909A0EE
:109A8000478BFDA0768815B665000121011C1005E5
:109A900000DF60DDD88945C74C9CD2659D9E648AF5
:109AA0009F000003064A0120000004030904080384
:109AB000410072006D002003410069007200330014
:109AC0003200200043004D005300490053002D0098
:109AD0004400410050001A033000300030003100D3
:109AE00041003000300030003000300030003000E5
:109AF00022036D00620065006400200053006500D1
:109B00007200690061006C00200050006F0072005C
:109B1000740022036D0062006500640020005300A1
:109B200065007200690061006C00200050006F0049
:109B3000720074001A0343004D00530049005300A3
:109B40002D00440041005000200076003100240325
:109B50005700650062005500530042003A002000A3
:109B600043004D005300490053002D0044004100C4
:109B7000500010035500530042005F004D00530099
:109B800043001A0343004D005300490053002D00C9
:109B9000440041005000200076003200080B000213
:109BA000020201040904000001020201040524006C
:109BB0001001052401030204240206052406000006
:109BC0000705830310002009040000020A000005B5
:109BD00007050402100000070584021000000400BD
:109BE000880004017FFC0A0001000000102700002B
:109BF00000000000CC0000009800000004000000FD
:109C0000000000000000010101000000010001004F
:109C10000000000000000000000000000000000044
:109C20000000000000000000000000000000000034
:109C3000000000000000000002000200010000001F
:109C40000000000000000000000000000000000014
:109C50000000000000000000000000000000000004
:109C600000000000030002000400000000000000EB
:109C700000000000000000000000000000000000E4
:109C800000000000000000000000000000000000D4
:109C900000000000000000000000000000000000C4
:109CA00000000000000000000000000000000000B4
:109EF00000000000000000004C7561744F5300002A
:109F00004169723332204D494E49204441504C69D9
:109F10006E6B0000496E206170706C6963617469DA
:109F20006F6E2070726F6772616D6D696E672073FE
:109F30006563746F72206572617365206661696C18
:109F400065642E00496E206170706C69636174698C
:109F50006F6E2070726F6772616D6D696E67206DD4
:109F6000617373206572617365206661696C6564F5
:109F70002E000000496E206170706C696361746925
:109F80006F6E2070726F6772616D6D696E6720779A
:109F900072697465206661696C65642E000000005A
:109FA000496E206170706C69636174696F6E2070B6
:109FB000726F6772616D6D696E6720696E69746931
:109FC000616C697A6174696F6E206661696C656441
:109FD0002E000000496E206170706C6963617469C5
:109FE0006F6E2070726F6772616D6D696E6720753C
:109FF0006E696E6974206661696C65642E0000008C
:10A00000546865206865782066696C652063616EB8
:10A010006E6F742062652070726F6772616D6D651E
:10A02000642E204C6F676963206661696C75726588
:10A03000206F636375727265642E0000546865203A
:10A040006865782066696C652063616E6E6F742048
:10A050006265206465636F6465642E20506172736D
:10A060006572206C6F676963206661696C757265E3
:10A07000206F636375727265642E000054686520FA
:10A080006865782066696C652063616E6E6F742008
:10A090006265206465636F6465642E204368656350
:10A0A0006B73756D2063616C63756C6174696F6E41
:10A0B000206661696C757265206F63637572726585
:10A0C000642E0000546865206170706C696361746F
:10A0D000696F6E2066696C6520666F726D617420B1
:10A0E000697320756E6B6E6F776E20616E6420638E
:10A0F000616E6E6F7420626520706172736564209A
:10A10000616E642F6F722070726F63657373656424
:10A110002E000000496E206170706C696361746983
:10A120006F6E2070726F6772616D6D696E67206E01
:10A130006F7420737570706F72746564206F6E2019
:10A1400074686973206465766963652E0000000099
:10A15000496E206170706C69636174696F6E207004
:10A16000726F6772616D6D696E67206661696C659B
:10A17000642062656361757365207468652075701D
:10A18000646174652073656E742077617320696EF5
:10A19000636F6D706C6574652E00000054686520F7
:10A1A0007374617274696E6720616464726573733D
:10A1B00020666F722074686520696E7465726661CE
:10A1C0006365207570646174652069732077726FB0
:10A1D0006E672E00546865207374617274696E67CF
:10A1E000206164647265737320666F7220746865A1
:10A1F00020626F6F746C6F6164657220757064614A
:10A2000074652069732077726F6E672E00000000FE
:10A2100054686520626F6F746C6F6164657220436F
:10A22000524320646964206E6F7420706173732ED2
:10A2300000000000496E206170706C696361746990
:10A240006F6E2070726F6772616D6D696E672061ED
:10A25000626F727465642064756520746F20616E2E
:10A26000206F7574206F6620626F756E6473206155
:10A270006464726573732E00546865206865782085
:10A2800066696C65206F6666736574206C6F6164C7
:10A290002061646472657373206973206E6F74202B
:10A2A000636F72726563742E00000000546865204D
:10A2B0006170706C69636174696F6E20696D61674C
:10A2C00065206973206E6F7420636F6D70617469AF
:10A2D000626C6520776974682074686520746172A7
:10A2E0006765742E00000000546865207472616E0A
:10A2F000736665722074696D6564206F75742E00D5
:10A3000046696C652073656E74206F7574206F6686
:10A31000206F726465722062792050432E20546150
:10A3200072676574206D69676874206E6F7420624F
:10A33000652070726F6772616D6D656420636F7206
:10A34000726563746C792E00466C61736820616C71
:10A35000676F726974686D20777269746520636FC6
:10A360006D6D616E64204641494C555245000000B8
:10A37000466C61736820616C676F726974686D20E8
:10A38000657261736520616C6C20636F6D6D616EC9
:10A3900064204641494C555245000000466C6173AB
:10A3A0006820616C676F726974686D206572617393
:10A3B0006520736563746F7220636F6D6D616E6489
:10A3C000204641494C55524500000000466C6173DF
:10A3D0006820616C676F726974686D207772697448
:10A3E000652076657269667920636F6D6D616E6454
:10A3F000204641494C5552450000000054686520F4
:10A400006865782066696C6520796F752064726F65
:10A41000707065642069736E277420636F6D70615E
:10A420007469626C65207769746820746869732048
:10A430006D6F6465206F72206465766963652E2098
:10A4400041726520796F7520696E204D41494E54E7
:10A45000454E414E4345206D6F64653F2053656511
:10A460002048454C50204641512E48544D00000094
:10A470004661696C656420746F20696E69746961F6
:10A480006C697A65207468652074617267657420F0
:10A490004D4355004661696C656420746F20756E8C
:10A4A000696E697469616C697A6520746865207485
:10A4B0006172676574204D43550000004661696C08
:10A4C000656420746F2072657365742F68616C74A5
:10A4D0002074686520746172676574204D4355006F
:10A4E00050726F6772616D6D696E672061626F7225
:10A4F0007465643A20696D61676520776F756C6477
:10A50000206C6F636B20746172676574204D4355D6
:10A51000000000004661696C656420746F20646F00
:10A52000776E6C6F616420666C61736820616C6724
:10A530006F726974686D20746F20746172676574DE
:10A54000204D435500000000456E64206F66207367
:10A55000747265616D20686173206265656E20723A
:10A5600065616368656400004661696C65642074B8
:10A570006F20646F776E6C6F61642074686520660D
:10A580006C617368206461746120636F6E74656EC2
:10A59000747320746F2062652070726F6772616DD2
:10A5A0006D656400506F737369626C65206D6973CB
:10A5B0006D61746368206265747765656E20666995
:10A5C0006C652073697A6520616E642073697A65B1
:10A5D0002070726F6772616D6D656400416E2069F5
:10A5E0006E7465726E616C206572726F7220686144
:10A5F00073206F636375727265640000416E20653D
:10A6000072726F7220686173206F63637572726516
:10A61000640000004661696C656420746F20756E8B
:10A620006C6F636B20746172676574204D435520B5
:10A63000666F722070726F6772616D6D696E670010
:10A640004F7065726174696F6E20776173207375E6
:10A65000636365737366756C00000000466C61731C
:10A660006820616C676F726974686D206D697373BF
:10A67000696E6720666F72206120726567696F6E10
:10A6800000000000456E64206F662073747265617F
:10A690006D20697320756E6B6E6F776E0000000021
:10A6A000416E206572726F72206F6363757272659E
:10A6B0006420647572696E672074686520747261C5
:10A6C0006E736665720000000000000023204441A4
:10A6D000504C696E6B204669726D77617265202DF2
:10A6E000207365652068747470733A2F2F676974DE
:10A6F00065652E636F6D2F6F70656E4C7561742F7D
:10A700006C7561746F732D736F632D616972333271
:10A71000663130332F0D0A4275696C642049443A22
:10A720002076303235372D34382D67396337393557
:10A73000623536202861726D63632C206C6F636113
:10A740006C206D6F6473290D0A0000004120626F58
:10A750006F746C6F616465722075706461746520DC
:10A7600077617320737461727465642062757420FC
:10A77000756E61626C6520746F20636F6D706C65BF
:10A7800074652E0D0A52656C6F61642074686520D3
:10A79000626F6F746C6F6164657220746F2066699C
:10A7A000782074686973206572726F72206D6573AA
:10A7B000736167652E0D0A00476974205348413A5A
:10A7C00020396337393562353661303530353333CA
:10A7D000656539383663396662366664646361314B
:10A7E0003562343966626462610D0A4C6F63616C74
:10A7F000204D6F64733A20310D0A55534220496E43
:10A8000074657266616365733A204D53442C20432E
:10A8100044432C204849442C205765625553420D2F
:10A820000A0000003C21646F6374797065206874CD
:10A830006D6C3E0D0A3C68746D6C3E0D0A3C68659B
:10A8400061643E0D0A3C6D657461206368617273DA
:10A8500065743D227574662D38223E0D0A3C74697C
:10A86000746C653E4169723332204441504C696ECC
:10A870006B3C2F7469746C653E0D0A3C2F686561F2
:10A88000643E0D0A3C626F64793E0D0A3C7363724C
:10A890006970743E0D0A77696E646F772E6C6F6312
:10A8A0006174696F6E2E7265706C61636528220039
:10A8B0004D53445F4F4E2020434647004D53445F65
:10A8C0004F464620434647004F56464C5F4F4E206A
:10A8D000434647004155544F5F4F4E204346470083
:10A8E000434F4D505F4F4E20434647004F56464C16
:10A8F0005F4F4646434647004155544F5F4F4646DB
:10A9000043464700434F4D505F4F4646434647003E
:10A91000484152445F525354434647004155544FB7
:10A920005F5253544346470045524153452020202F
:10A930004143540041535345525420204143540055
:10A9400052454652455348204143540050414745E3
:10A950005F4F4E2041435400504147455F4F4646AC
:10A9600041435400696E746572666163650000005E
:10A97000696E7465726E616C0000000075736572BB
:10A980000000000074617267657400007472616E8B
:10A990007369656E7400000041697233324631306C
:10A9A000334342004D424544202020205646532048
:10A9B000202020202020202020202020302E310088
:10A9C000E0A90108000000200006000028C10008DE
:10A9D00068AB010800060020D081000084C1000897
:10A9E00021380801010206020208013A04063F016B
:10A9F0000106060604017A100131051F0899969791
:10AA000004120101010227041812C1320108F54A9B
:10AA1000010865900108912E0108D3101AF9101E43
:10AA20004D9201089510018C29E75D54990108EFBA
:10AA3000199C6A020C111A5C1801B712201A5004F2
:10AA400001C75009F89E010898A9010826E6DF0C05
:10AA50008025490DE11206126B520A1C03064A2F8B
:10AA6000320212A012141203A757494E5553421234
:10AA70008412041207122A12441265127612691AFD
:10AA800063081249126E1A7408127212663A611241
:10AA900012471A5516124432731250127B12391291
:10AAA000321243124512361A340412321A2D12127F
:10AAB000431A37023A2D121A461C29141A33021A65
:10AAC000420A12331A31203A422612351A4102291B
:10AAD000181239527D0950A01A430C3A4264296E6B
:10AAE0001A44823A328E298C29A01A360C5A2D88A3
:10AAF0001A360A3A310C3A451C29043A33CC5A36F4
:10AB0000A021401DA4A901081C030177696B692ECF
:10AB10006C7561746F732E636F6D2F6461702F3F5E
:10AB20000A10171C011A1260023C401E0C9C0108FE
:10AB300038041A64041A90041ABC041AE8041E6C3F
:10AB40009D010814041A40041A98041AC4041AF047
:10AB5000041E1C9E010848041A74041AA0041ACC8E
:10AB6000041AFF0101D80000FFFFFFFFFFFFFFFFF6
:10AB7000FFFFFFFFFFFFFFFFFFFFFFFFFFFFFFFFE5
:10AB8000FFFFFFFFFFFFFFFFFFFFFFFFFFFFFFFFD5
:10AB9000FFFFFFFFFFFFFFFFFFFFFFFFFFFFFFFFC5
:10ABA000FFFFFFFFFFFFFFFFFFFFFFFFFFFFFFFFB5
:10FBF000FFFFFFFFFFFFFFFFFFFFFFFFBCF1C1FBA8
:00000001FF
